{
	"contracts/SampleBoolean.sol": {
		"SampleBoolean": {
			"abi": [
				{
					"inputs": [],
					"name": "decrement",
					"outputs": [],
					"stateMutability": "nonpayable",
					"type": "function"
				},
				{
					"inputs": [],
					"name": "incrementMyInt",
					"outputs": [],
					"stateMutability": "nonpayable",
					"type": "function"
				},
				{
					"inputs": [],
					"name": "myBool",
					"outputs": [
						{
							"internalType": "bool",
							"name": "",
							"type": "bool"
						}
					],
					"stateMutability": "view",
					"type": "function"
				},
				{
					"inputs": [],
					"name": "myInt",
					"outputs": [
						{
							"internalType": "uint256",
							"name": "",
							"type": "uint256"
						}
					],
					"stateMutability": "view",
					"type": "function"
				},
				{
					"inputs": [],
					"name": "myUint",
					"outputs": [
						{
							"internalType": "uint8",
							"name": "",
							"type": "uint8"
						}
					],
					"stateMutability": "view",
					"type": "function"
				},
				{
					"inputs": [
						{
							"internalType": "bool",
							"name": "_myBool",
							"type": "bool"
						}
					],
					"name": "setMyBool",
					"outputs": [],
					"stateMutability": "nonpayable",
					"type": "function"
				}
			],
			"devdoc": {
				"kind": "dev",
				"methods": {},
				"version": 1
			},
			"evm": {
				"assembly": "    /* \"contracts/SampleBoolean.sol\":60:417  contract SampleBoolean{... */\n  mstore(0x40, 0x80)\n  callvalue\n  dup1\n  iszero\n  tag_1\n  jumpi\n  revert(0x00, 0x00)\ntag_1:\n  pop\n  dataSize(sub_0)\n  dup1\n  dataOffset(sub_0)\n  0x00\n  codecopy\n  0x00\n  return\nstop\n\nsub_0: assembly {\n        /* \"contracts/SampleBoolean.sol\":60:417  contract SampleBoolean{... */\n      mstore(0x40, 0x80)\n      callvalue\n      dup1\n      iszero\n      tag_1\n      jumpi\n      revert(0x00, 0x00)\n    tag_1:\n      pop\n      jumpi(tag_2, lt(calldatasize, 0x04))\n      shr(0xe0, calldataload(0x00))\n      dup1\n      0x06540f7e\n      eq\n      tag_3\n      jumpi\n      dup1\n      0x2baeceb7\n      eq\n      tag_4\n      jumpi\n      dup1\n      0x2cb777a6\n      eq\n      tag_5\n      jumpi\n      dup1\n      0x6deecdbe\n      eq\n      tag_6\n      jumpi\n      dup1\n      0x8f340414\n      eq\n      tag_7\n      jumpi\n      dup1\n      0xeb1b30d9\n      eq\n      tag_8\n      jumpi\n    tag_2:\n      revert(0x00, 0x00)\n        /* \"contracts/SampleBoolean.sol\":283:302  uint8 public myUint */\n    tag_3:\n      tag_9\n      tag_10\n      jump\t// in\n    tag_9:\n      mload(0x40)\n      tag_11\n      swap2\n      swap1\n      tag_12\n      jump\t// in\n    tag_11:\n      mload(0x40)\n      dup1\n      swap2\n      sub\n      swap1\n      return\n        /* \"contracts/SampleBoolean.sol\":309:398  function decrement()public {... */\n    tag_4:\n      tag_13\n      tag_14\n      jump\t// in\n    tag_13:\n      stop\n        /* \"contracts/SampleBoolean.sol\":194:211  uint public myInt */\n    tag_5:\n      tag_15\n      tag_16\n      jump\t// in\n    tag_15:\n      mload(0x40)\n      tag_17\n      swap2\n      swap1\n      tag_18\n      jump\t// in\n    tag_17:\n      mload(0x40)\n      dup1\n      swap2\n      sub\n      swap1\n      return\n        /* \"contracts/SampleBoolean.sol\":89:107  bool public myBool */\n    tag_6:\n      tag_19\n      tag_20\n      jump\t// in\n    tag_19:\n      mload(0x40)\n      tag_21\n      swap2\n      swap1\n      tag_22\n      jump\t// in\n    tag_21:\n      mload(0x40)\n      dup1\n      swap2\n      sub\n      swap1\n      return\n        /* \"contracts/SampleBoolean.sol\":218:277  function incrementMyInt() public {... */\n    tag_7:\n      tag_23\n      tag_24\n      jump\t// in\n    tag_23:\n      stop\n        /* \"contracts/SampleBoolean.sol\":114:188  function setMyBool(bool _myBool) public{... */\n    tag_8:\n      tag_25\n      0x04\n      dup1\n      calldatasize\n      sub\n      dup2\n      add\n      swap1\n      tag_26\n      swap2\n      swap1\n      tag_27\n      jump\t// in\n    tag_26:\n      tag_28\n      jump\t// in\n    tag_25:\n      stop\n        /* \"contracts/SampleBoolean.sol\":283:302  uint8 public myUint */\n    tag_10:\n      0x02\n      0x00\n      swap1\n      sload\n      swap1\n      0x0100\n      exp\n      swap1\n      div\n      0xff\n      and\n      dup2\n      jump\t// out\n        /* \"contracts/SampleBoolean.sol\":309:398  function decrement()public {... */\n    tag_14:\n        /* \"contracts/SampleBoolean.sol\":371:377  myUint */\n      0x02\n      0x00\n        /* \"contracts/SampleBoolean.sol\":371:379  myUint-- */\n      dup2\n      dup2\n      swap1\n      sload\n      swap1\n      0x0100\n      exp\n      swap1\n      div\n      0xff\n      and\n      dup1\n      swap3\n      swap2\n      swap1\n      0x01\n      swap1\n      sub\n      swap2\n      swap1\n      0x0100\n      exp\n      dup2\n      sload\n      dup2\n      0xff\n      mul\n      not\n      and\n      swap1\n      dup4\n      0xff\n      and\n      mul\n      or\n      swap1\n      sstore\n      pop\n      pop\n        /* \"contracts/SampleBoolean.sol\":309:398  function decrement()public {... */\n      jump\t// out\n        /* \"contracts/SampleBoolean.sol\":194:211  uint public myInt */\n    tag_16:\n      sload(0x01)\n      dup2\n      jump\t// out\n        /* \"contracts/SampleBoolean.sol\":89:107  bool public myBool */\n    tag_20:\n      0x00\n      0x00\n      swap1\n      sload\n      swap1\n      0x0100\n      exp\n      swap1\n      div\n      0xff\n      and\n      dup2\n      jump\t// out\n        /* \"contracts/SampleBoolean.sol\":218:277  function incrementMyInt() public {... */\n    tag_24:\n        /* \"contracts/SampleBoolean.sol\":261:266  myInt */\n      0x01\n      0x00\n        /* \"contracts/SampleBoolean.sol\":261:268  myInt++ */\n      dup2\n      sload\n      dup1\n      swap3\n      swap2\n      swap1\n      tag_31\n      swap1\n      tag_32\n      jump\t// in\n    tag_31:\n      swap2\n      swap1\n      pop\n      sstore\n      pop\n        /* \"contracts/SampleBoolean.sol\":218:277  function incrementMyInt() public {... */\n      jump\t// out\n        /* \"contracts/SampleBoolean.sol\":114:188  function setMyBool(bool _myBool) public{... */\n    tag_28:\n        /* \"contracts/SampleBoolean.sol\":173:180  _myBool */\n      dup1\n        /* \"contracts/SampleBoolean.sol\":164:170  myBool */\n      0x00\n      0x00\n        /* \"contracts/SampleBoolean.sol\":164:180  myBool = _myBool */\n      0x0100\n      exp\n      dup2\n      sload\n      dup2\n      0xff\n      mul\n      not\n      and\n      swap1\n      dup4\n      iszero\n      iszero\n      mul\n      or\n      swap1\n      sstore\n      pop\n        /* \"contracts/SampleBoolean.sol\":114:188  function setMyBool(bool _myBool) public{... */\n      pop\n      jump\t// out\n        /* \"#utility.yul\":7:93   */\n    tag_34:\n        /* \"#utility.yul\":42:49   */\n      0x00\n        /* \"#utility.yul\":82:86   */\n      0xff\n        /* \"#utility.yul\":75:80   */\n      dup3\n        /* \"#utility.yul\":71:87   */\n      and\n        /* \"#utility.yul\":60:87   */\n      swap1\n      pop\n        /* \"#utility.yul\":7:93   */\n      swap2\n      swap1\n      pop\n      jump\t// out\n        /* \"#utility.yul\":99:211   */\n    tag_35:\n        /* \"#utility.yul\":182:204   */\n      tag_49\n        /* \"#utility.yul\":198:203   */\n      dup2\n        /* \"#utility.yul\":182:204   */\n      tag_34\n      jump\t// in\n    tag_49:\n        /* \"#utility.yul\":177:180   */\n      dup3\n        /* \"#utility.yul\":170:205   */\n      mstore\n        /* \"#utility.yul\":99:211   */\n      pop\n      pop\n      jump\t// out\n        /* \"#utility.yul\":217:431   */\n    tag_12:\n        /* \"#utility.yul\":306:310   */\n      0x00\n        /* \"#utility.yul\":344:346   */\n      0x20\n        /* \"#utility.yul\":333:342   */\n      dup3\n        /* \"#utility.yul\":329:347   */\n      add\n        /* \"#utility.yul\":321:347   */\n      swap1\n      pop\n        /* \"#utility.yul\":357:424   */\n      tag_51\n        /* \"#utility.yul\":421:422   */\n      0x00\n        /* \"#utility.yul\":410:419   */\n      dup4\n        /* \"#utility.yul\":406:423   */\n      add\n        /* \"#utility.yul\":397:403   */\n      dup5\n        /* \"#utility.yul\":357:424   */\n      tag_35\n      jump\t// in\n    tag_51:\n        /* \"#utility.yul\":217:431   */\n      swap3\n      swap2\n      pop\n      pop\n      jump\t// out\n        /* \"#utility.yul\":437:514   */\n    tag_36:\n        /* \"#utility.yul\":474:481   */\n      0x00\n        /* \"#utility.yul\":503:508   */\n      dup2\n        /* \"#utility.yul\":492:508   */\n      swap1\n      pop\n        /* \"#utility.yul\":437:514   */\n      swap2\n      swap1\n      pop\n      jump\t// out\n        /* \"#utility.yul\":520:638   */\n    tag_37:\n        /* \"#utility.yul\":607:631   */\n      tag_54\n        /* \"#utility.yul\":625:630   */\n      dup2\n        /* \"#utility.yul\":607:631   */\n      tag_36\n      jump\t// in\n    tag_54:\n        /* \"#utility.yul\":602:605   */\n      dup3\n        /* \"#utility.yul\":595:632   */\n      mstore\n        /* \"#utility.yul\":520:638   */\n      pop\n      pop\n      jump\t// out\n        /* \"#utility.yul\":644:866   */\n    tag_18:\n        /* \"#utility.yul\":737:741   */\n      0x00\n        /* \"#utility.yul\":775:777   */\n      0x20\n        /* \"#utility.yul\":764:773   */\n      dup3\n        /* \"#utility.yul\":760:778   */\n      add\n        /* \"#utility.yul\":752:778   */\n      swap1\n      pop\n        /* \"#utility.yul\":788:859   */\n      tag_56\n        /* \"#utility.yul\":856:857   */\n      0x00\n        /* \"#utility.yul\":845:854   */\n      dup4\n        /* \"#utility.yul\":841:858   */\n      add\n        /* \"#utility.yul\":832:838   */\n      dup5\n        /* \"#utility.yul\":788:859   */\n      tag_37\n      jump\t// in\n    tag_56:\n        /* \"#utility.yul\":644:866   */\n      swap3\n      swap2\n      pop\n      pop\n      jump\t// out\n        /* \"#utility.yul\":872:962   */\n    tag_38:\n        /* \"#utility.yul\":906:913   */\n      0x00\n        /* \"#utility.yul\":949:954   */\n      dup2\n        /* \"#utility.yul\":942:955   */\n      iszero\n        /* \"#utility.yul\":935:956   */\n      iszero\n        /* \"#utility.yul\":924:956   */\n      swap1\n      pop\n        /* \"#utility.yul\":872:962   */\n      swap2\n      swap1\n      pop\n      jump\t// out\n        /* \"#utility.yul\":968:1077   */\n    tag_39:\n        /* \"#utility.yul\":1049:1070   */\n      tag_59\n        /* \"#utility.yul\":1064:1069   */\n      dup2\n        /* \"#utility.yul\":1049:1070   */\n      tag_38\n      jump\t// in\n    tag_59:\n        /* \"#utility.yul\":1044:1047   */\n      dup3\n        /* \"#utility.yul\":1037:1071   */\n      mstore\n        /* \"#utility.yul\":968:1077   */\n      pop\n      pop\n      jump\t// out\n        /* \"#utility.yul\":1083:1293   */\n    tag_22:\n        /* \"#utility.yul\":1170:1174   */\n      0x00\n        /* \"#utility.yul\":1208:1210   */\n      0x20\n        /* \"#utility.yul\":1197:1206   */\n      dup3\n        /* \"#utility.yul\":1193:1211   */\n      add\n        /* \"#utility.yul\":1185:1211   */\n      swap1\n      pop\n        /* \"#utility.yul\":1221:1286   */\n      tag_61\n        /* \"#utility.yul\":1283:1284   */\n      0x00\n        /* \"#utility.yul\":1272:1281   */\n      dup4\n        /* \"#utility.yul\":1268:1285   */\n      add\n        /* \"#utility.yul\":1259:1265   */\n      dup5\n        /* \"#utility.yul\":1221:1286   */\n      tag_39\n      jump\t// in\n    tag_61:\n        /* \"#utility.yul\":1083:1293   */\n      swap3\n      swap2\n      pop\n      pop\n      jump\t// out\n        /* \"#utility.yul\":1380:1497   */\n    tag_41:\n        /* \"#utility.yul\":1489:1490   */\n      0x00\n        /* \"#utility.yul\":1486:1487   */\n      0x00\n        /* \"#utility.yul\":1479:1491   */\n      revert\n        /* \"#utility.yul\":1626:1742   */\n    tag_43:\n        /* \"#utility.yul\":1696:1717   */\n      tag_66\n        /* \"#utility.yul\":1711:1716   */\n      dup2\n        /* \"#utility.yul\":1696:1717   */\n      tag_38\n      jump\t// in\n    tag_66:\n        /* \"#utility.yul\":1689:1694   */\n      dup2\n        /* \"#utility.yul\":1686:1718   */\n      eq\n        /* \"#utility.yul\":1676:1736   */\n      tag_67\n      jumpi\n        /* \"#utility.yul\":1732:1733   */\n      0x00\n        /* \"#utility.yul\":1729:1730   */\n      0x00\n        /* \"#utility.yul\":1722:1734   */\n      revert\n        /* \"#utility.yul\":1676:1736   */\n    tag_67:\n        /* \"#utility.yul\":1626:1742   */\n      pop\n      jump\t// out\n        /* \"#utility.yul\":1748:1881   */\n    tag_44:\n        /* \"#utility.yul\":1791:1796   */\n      0x00\n        /* \"#utility.yul\":1829:1835   */\n      dup2\n        /* \"#utility.yul\":1816:1836   */\n      calldataload\n        /* \"#utility.yul\":1807:1836   */\n      swap1\n      pop\n        /* \"#utility.yul\":1845:1875   */\n      tag_69\n        /* \"#utility.yul\":1869:1874   */\n      dup2\n        /* \"#utility.yul\":1845:1875   */\n      tag_43\n      jump\t// in\n    tag_69:\n        /* \"#utility.yul\":1748:1881   */\n      swap3\n      swap2\n      pop\n      pop\n      jump\t// out\n        /* \"#utility.yul\":1887:2210   */\n    tag_27:\n        /* \"#utility.yul\":1943:1949   */\n      0x00\n        /* \"#utility.yul\":1992:1994   */\n      0x20\n        /* \"#utility.yul\":1980:1989   */\n      dup3\n        /* \"#utility.yul\":1971:1978   */\n      dup5\n        /* \"#utility.yul\":1967:1990   */\n      sub\n        /* \"#utility.yul\":1963:1995   */\n      slt\n        /* \"#utility.yul\":1960:2079   */\n      iszero\n      tag_71\n      jumpi\n        /* \"#utility.yul\":1998:2077   */\n      tag_72\n      tag_41\n      jump\t// in\n    tag_72:\n        /* \"#utility.yul\":1960:2079   */\n    tag_71:\n        /* \"#utility.yul\":2118:2119   */\n      0x00\n        /* \"#utility.yul\":2143:2193   */\n      tag_73\n        /* \"#utility.yul\":2185:2192   */\n      dup5\n        /* \"#utility.yul\":2176:2182   */\n      dup3\n        /* \"#utility.yul\":2165:2174   */\n      dup6\n        /* \"#utility.yul\":2161:2183   */\n      add\n        /* \"#utility.yul\":2143:2193   */\n      tag_44\n      jump\t// in\n    tag_73:\n        /* \"#utility.yul\":2133:2193   */\n      swap2\n      pop\n        /* \"#utility.yul\":2089:2203   */\n      pop\n        /* \"#utility.yul\":1887:2210   */\n      swap3\n      swap2\n      pop\n      pop\n      jump\t// out\n        /* \"#utility.yul\":2216:2396   */\n    tag_45:\n        /* \"#utility.yul\":2264:2341   */\n      0x4e487b7100000000000000000000000000000000000000000000000000000000\n        /* \"#utility.yul\":2261:2262   */\n      0x00\n        /* \"#utility.yul\":2254:2342   */\n      mstore\n        /* \"#utility.yul\":2361:2365   */\n      0x11\n        /* \"#utility.yul\":2358:2359   */\n      0x04\n        /* \"#utility.yul\":2351:2366   */\n      mstore\n        /* \"#utility.yul\":2385:2389   */\n      0x24\n        /* \"#utility.yul\":2382:2383   */\n      0x00\n        /* \"#utility.yul\":2375:2390   */\n      revert\n        /* \"#utility.yul\":2402:2635   */\n    tag_32:\n        /* \"#utility.yul\":2441:2444   */\n      0x00\n        /* \"#utility.yul\":2464:2488   */\n      tag_76\n        /* \"#utility.yul\":2482:2487   */\n      dup3\n        /* \"#utility.yul\":2464:2488   */\n      tag_36\n      jump\t// in\n    tag_76:\n        /* \"#utility.yul\":2455:2488   */\n      swap2\n      pop\n        /* \"#utility.yul\":2510:2576   */\n      0xffffffffffffffffffffffffffffffffffffffffffffffffffffffffffffffff\n        /* \"#utility.yul\":2503:2508   */\n      dup3\n        /* \"#utility.yul\":2500:2577   */\n      sub\n        /* \"#utility.yul\":2497:2600   */\n      tag_77\n      jumpi\n        /* \"#utility.yul\":2580:2598   */\n      tag_78\n      tag_45\n      jump\t// in\n    tag_78:\n        /* \"#utility.yul\":2497:2600   */\n    tag_77:\n        /* \"#utility.yul\":2627:2628   */\n      0x01\n        /* \"#utility.yul\":2620:2625   */\n      dup3\n        /* \"#utility.yul\":2616:2629   */\n      add\n        /* \"#utility.yul\":2609:2629   */\n      swap1\n      pop\n        /* \"#utility.yul\":2402:2635   */\n      swap2\n      swap1\n      pop\n      jump\t// out\n\n    auxdata: 0xa2646970667358221220c96104c1a57d384801b5aea8c1a74c7b914ebde4c41aa221c438ad6d818ad20e64736f6c634300081c0033\n}\n",
				"bytecode": {
					"linkReferences": {},
					"object": "6080604052348015600e575f5ffd5b5061031a8061001c5f395ff3fe608060405234801561000f575f5ffd5b5060043610610060575f3560e01c806306540f7e146100645780632baeceb7146100825780632cb777a61461008c5780636deecdbe146100aa5780638f340414146100c8578063eb1b30d9146100d2575b5f5ffd5b61006c6100ee565b604051610079919061019a565b60405180910390f35b61008a610100565b005b610094610134565b6040516100a191906101cb565b60405180910390f35b6100b261013a565b6040516100bf91906101fe565b60405180910390f35b6100d061014b565b005b6100ec60048036038101906100e79190610245565b610164565b005b60025f9054906101000a900460ff1681565b60025f81819054906101000a900460ff16809291906001900391906101000a81548160ff021916908360ff16021790555050565b60015481565b5f5f9054906101000a900460ff1681565b60015f81548092919061015d9061029d565b9190505550565b805f5f6101000a81548160ff02191690831515021790555050565b5f60ff82169050919050565b6101948161017f565b82525050565b5f6020820190506101ad5f83018461018b565b92915050565b5f819050919050565b6101c5816101b3565b82525050565b5f6020820190506101de5f8301846101bc565b92915050565b5f8115159050919050565b6101f8816101e4565b82525050565b5f6020820190506102115f8301846101ef565b92915050565b5f5ffd5b610224816101e4565b811461022e575f5ffd5b50565b5f8135905061023f8161021b565b92915050565b5f6020828403121561025a57610259610217565b5b5f61026784828501610231565b91505092915050565b7f4e487b71000000000000000000000000000000000000000000000000000000005f52601160045260245ffd5b5f6102a7826101b3565b91507fffffffffffffffffffffffffffffffffffffffffffffffffffffffffffffffff82036102d9576102d8610270565b5b60018201905091905056fea2646970667358221220c96104c1a57d384801b5aea8c1a74c7b914ebde4c41aa221c438ad6d818ad20e64736f6c634300081c0033",
					"opcodes": "PUSH1 0x80 PUSH1 0x40 MSTORE CALLVALUE DUP1 ISZERO PUSH1 0xE JUMPI PUSH0 PUSH0 REVERT JUMPDEST POP PUSH2 0x31A DUP1 PUSH2 0x1C PUSH0 CODECOPY PUSH0 RETURN INVALID PUSH1 0x80 PUSH1 0x40 MSTORE CALLVALUE DUP1 ISZERO PUSH2 0xF JUMPI PUSH0 PUSH0 REVERT JUMPDEST POP PUSH1 0x4 CALLDATASIZE LT PUSH2 0x60 JUMPI PUSH0 CALLDATALOAD PUSH1 0xE0 SHR DUP1 PUSH4 0x6540F7E EQ PUSH2 0x64 JUMPI DUP1 PUSH4 0x2BAECEB7 EQ PUSH2 0x82 JUMPI DUP1 PUSH4 0x2CB777A6 EQ PUSH2 0x8C JUMPI DUP1 PUSH4 0x6DEECDBE EQ PUSH2 0xAA JUMPI DUP1 PUSH4 0x8F340414 EQ PUSH2 0xC8 JUMPI DUP1 PUSH4 0xEB1B30D9 EQ PUSH2 0xD2 JUMPI JUMPDEST PUSH0 PUSH0 REVERT JUMPDEST PUSH2 0x6C PUSH2 0xEE JUMP JUMPDEST PUSH1 0x40 MLOAD PUSH2 0x79 SWAP2 SWAP1 PUSH2 0x19A JUMP JUMPDEST PUSH1 0x40 MLOAD DUP1 SWAP2 SUB SWAP1 RETURN JUMPDEST PUSH2 0x8A PUSH2 0x100 JUMP JUMPDEST STOP JUMPDEST PUSH2 0x94 PUSH2 0x134 JUMP JUMPDEST PUSH1 0x40 MLOAD PUSH2 0xA1 SWAP2 SWAP1 PUSH2 0x1CB JUMP JUMPDEST PUSH1 0x40 MLOAD DUP1 SWAP2 SUB SWAP1 RETURN JUMPDEST PUSH2 0xB2 PUSH2 0x13A JUMP JUMPDEST PUSH1 0x40 MLOAD PUSH2 0xBF SWAP2 SWAP1 PUSH2 0x1FE JUMP JUMPDEST PUSH1 0x40 MLOAD DUP1 SWAP2 SUB SWAP1 RETURN JUMPDEST PUSH2 0xD0 PUSH2 0x14B JUMP JUMPDEST STOP JUMPDEST PUSH2 0xEC PUSH1 0x4 DUP1 CALLDATASIZE SUB DUP2 ADD SWAP1 PUSH2 0xE7 SWAP2 SWAP1 PUSH2 0x245 JUMP JUMPDEST PUSH2 0x164 JUMP JUMPDEST STOP JUMPDEST PUSH1 0x2 PUSH0 SWAP1 SLOAD SWAP1 PUSH2 0x100 EXP SWAP1 DIV PUSH1 0xFF AND DUP2 JUMP JUMPDEST PUSH1 0x2 PUSH0 DUP2 DUP2 SWAP1 SLOAD SWAP1 PUSH2 0x100 EXP SWAP1 DIV PUSH1 0xFF AND DUP1 SWAP3 SWAP2 SWAP1 PUSH1 0x1 SWAP1 SUB SWAP2 SWAP1 PUSH2 0x100 EXP DUP2 SLOAD DUP2 PUSH1 0xFF MUL NOT AND SWAP1 DUP4 PUSH1 0xFF AND MUL OR SWAP1 SSTORE POP POP JUMP JUMPDEST PUSH1 0x1 SLOAD DUP2 JUMP JUMPDEST PUSH0 PUSH0 SWAP1 SLOAD SWAP1 PUSH2 0x100 EXP SWAP1 DIV PUSH1 0xFF AND DUP2 JUMP JUMPDEST PUSH1 0x1 PUSH0 DUP2 SLOAD DUP1 SWAP3 SWAP2 SWAP1 PUSH2 0x15D SWAP1 PUSH2 0x29D JUMP JUMPDEST SWAP2 SWAP1 POP SSTORE POP JUMP JUMPDEST DUP1 PUSH0 PUSH0 PUSH2 0x100 EXP DUP2 SLOAD DUP2 PUSH1 0xFF MUL NOT AND SWAP1 DUP4 ISZERO ISZERO MUL OR SWAP1 SSTORE POP POP JUMP JUMPDEST PUSH0 PUSH1 0xFF DUP3 AND SWAP1 POP SWAP2 SWAP1 POP JUMP JUMPDEST PUSH2 0x194 DUP2 PUSH2 0x17F JUMP JUMPDEST DUP3 MSTORE POP POP JUMP JUMPDEST PUSH0 PUSH1 0x20 DUP3 ADD SWAP1 POP PUSH2 0x1AD PUSH0 DUP4 ADD DUP5 PUSH2 0x18B JUMP JUMPDEST SWAP3 SWAP2 POP POP JUMP JUMPDEST PUSH0 DUP2 SWAP1 POP SWAP2 SWAP1 POP JUMP JUMPDEST PUSH2 0x1C5 DUP2 PUSH2 0x1B3 JUMP JUMPDEST DUP3 MSTORE POP POP JUMP JUMPDEST PUSH0 PUSH1 0x20 DUP3 ADD SWAP1 POP PUSH2 0x1DE PUSH0 DUP4 ADD DUP5 PUSH2 0x1BC JUMP JUMPDEST SWAP3 SWAP2 POP POP JUMP JUMPDEST PUSH0 DUP2 ISZERO ISZERO SWAP1 POP SWAP2 SWAP1 POP JUMP JUMPDEST PUSH2 0x1F8 DUP2 PUSH2 0x1E4 JUMP JUMPDEST DUP3 MSTORE POP POP JUMP JUMPDEST PUSH0 PUSH1 0x20 DUP3 ADD SWAP1 POP PUSH2 0x211 PUSH0 DUP4 ADD DUP5 PUSH2 0x1EF JUMP JUMPDEST SWAP3 SWAP2 POP POP JUMP JUMPDEST PUSH0 PUSH0 REVERT JUMPDEST PUSH2 0x224 DUP2 PUSH2 0x1E4 JUMP JUMPDEST DUP2 EQ PUSH2 0x22E JUMPI PUSH0 PUSH0 REVERT JUMPDEST POP JUMP JUMPDEST PUSH0 DUP2 CALLDATALOAD SWAP1 POP PUSH2 0x23F DUP2 PUSH2 0x21B JUMP JUMPDEST SWAP3 SWAP2 POP POP JUMP JUMPDEST PUSH0 PUSH1 0x20 DUP3 DUP5 SUB SLT ISZERO PUSH2 0x25A JUMPI PUSH2 0x259 PUSH2 0x217 JUMP JUMPDEST JUMPDEST PUSH0 PUSH2 0x267 DUP5 DUP3 DUP6 ADD PUSH2 0x231 JUMP JUMPDEST SWAP2 POP POP SWAP3 SWAP2 POP POP JUMP JUMPDEST PUSH32 0x4E487B7100000000000000000000000000000000000000000000000000000000 PUSH0 MSTORE PUSH1 0x11 PUSH1 0x4 MSTORE PUSH1 0x24 PUSH0 REVERT JUMPDEST PUSH0 PUSH2 0x2A7 DUP3 PUSH2 0x1B3 JUMP JUMPDEST SWAP2 POP PUSH32 0xFFFFFFFFFFFFFFFFFFFFFFFFFFFFFFFFFFFFFFFFFFFFFFFFFFFFFFFFFFFFFFFF DUP3 SUB PUSH2 0x2D9 JUMPI PUSH2 0x2D8 PUSH2 0x270 JUMP JUMPDEST JUMPDEST PUSH1 0x1 DUP3 ADD SWAP1 POP SWAP2 SWAP1 POP JUMP INVALID LOG2 PUSH5 0x6970667358 0x22 SLT KECCAK256 0xC9 PUSH2 0x4C1 0xA5 PUSH30 0x384801B5AEA8C1A74C7B914EBDE4C41AA221C438AD6D818AD20E64736F6C PUSH4 0x4300081C STOP CALLER "
				},
				"gasEstimates": {
					"creation": {
						"codeDepositCost": "158800",
						"executionCost": "200",
						"totalCost": "159000"
					},
					"external": {
						"decrement()": "26574",
						"incrementMyInt()": "24563",
						"myBool()": "2509",
						"myInt()": "2447",
						"myUint()": "2444",
						"setMyBool(bool)": "24760"
					}
				},
				"methodIdentifiers": {
					"decrement()": "2baeceb7",
					"incrementMyInt()": "8f340414",
					"myBool()": "6deecdbe",
					"myInt()": "2cb777a6",
					"myUint()": "06540f7e",
					"setMyBool(bool)": "eb1b30d9"
				}
			},
			"storageLayout": {
				"storage": [
					{
						"astId": 3,
						"contract": "contracts/SampleBoolean.sol:SampleBoolean",
						"label": "myBool",
						"offset": 0,
						"slot": "0",
						"type": "t_bool"
					},
					{
						"astId": 15,
						"contract": "contracts/SampleBoolean.sol:SampleBoolean",
						"label": "myInt",
						"offset": 0,
						"slot": "1",
						"type": "t_uint256"
					},
					{
						"astId": 24,
						"contract": "contracts/SampleBoolean.sol:SampleBoolean",
						"label": "myUint",
						"offset": 0,
						"slot": "2",
						"type": "t_uint8"
					}
				],
				"types": {
					"t_bool": {
						"encoding": "inplace",
						"label": "bool",
						"numberOfBytes": "1"
					},
					"t_uint256": {
						"encoding": "inplace",
						"label": "uint256",
						"numberOfBytes": "32"
					},
					"t_uint8": {
						"encoding": "inplace",
						"label": "uint8",
						"numberOfBytes": "1"
					}
				}
			},
			"userdoc": {
				"kind": "user",
				"methods": {},
				"version": 1
			}
		}
	}
}