{
	"contracts/SampleString.sol": {
		"SampleString": {
			"abi": [
				{
					"inputs": [
						{
							"internalType": "string",
							"name": "_myString",
							"type": "string"
						}
					],
					"name": "compareStrings",
					"outputs": [
						{
							"internalType": "bool",
							"name": "",
							"type": "bool"
						}
					],
					"stateMutability": "view",
					"type": "function"
				},
				{
					"inputs": [],
					"name": "getaddressbalance",
					"outputs": [
						{
							"internalType": "uint256",
							"name": "",
							"type": "uint256"
						}
					],
					"stateMutability": "view",
					"type": "function"
				},
				{
					"inputs": [],
					"name": "length",
					"outputs": [
						{
							"internalType": "uint256",
							"name": "",
							"type": "uint256"
						}
					],
					"stateMutability": "view",
					"type": "function"
				},
				{
					"inputs": [
						{
							"internalType": "string",
							"name": "_mystring",
							"type": "string"
						}
					],
					"name": "lengthString",
					"outputs": [],
					"stateMutability": "nonpayable",
					"type": "function"
				},
				{
					"inputs": [],
					"name": "myBytes",
					"outputs": [
						{
							"internalType": "bytes",
							"name": "",
							"type": "bytes"
						}
					],
					"stateMutability": "view",
					"type": "function"
				},
				{
					"inputs": [],
					"name": "myString",
					"outputs": [
						{
							"internalType": "string",
							"name": "",
							"type": "string"
						}
					],
					"stateMutability": "view",
					"type": "function"
				},
				{
					"inputs": [
						{
							"internalType": "string",
							"name": "_myString",
							"type": "string"
						}
					],
					"name": "setMyString",
					"outputs": [],
					"stateMutability": "nonpayable",
					"type": "function"
				},
				{
					"inputs": [
						{
							"internalType": "address",
							"name": "_someAddress",
							"type": "address"
						}
					],
					"name": "setSomeAddress",
					"outputs": [],
					"stateMutability": "nonpayable",
					"type": "function"
				},
				{
					"inputs": [],
					"name": "someAddress",
					"outputs": [
						{
							"internalType": "address",
							"name": "",
							"type": "address"
						}
					],
					"stateMutability": "view",
					"type": "function"
				}
			],
			"devdoc": {
				"kind": "dev",
				"methods": {},
				"version": 1
			},
			"evm": {
				"assembly": "    /* \"contracts/SampleString.sol\":60:849  contract SampleString{... */\n  mstore(0x40, 0x80)\n    /* \"contracts/SampleString.sol\":88:126  string public myString = \"Hello world\" */\n  mload(0x40)\n  dup1\n  0x40\n  add\n  0x40\n  mstore\n  dup1\n  0x0b\n  dup2\n  mstore\n  0x20\n  add\n  0x48656c6c6f20776f726c64000000000000000000000000000000000000000000\n  dup2\n  mstore\n  pop\n  0x00\n  swap1\n  dup2\n  tag_1\n  swap2\n  swap1\n  tag_2\n  jump\t// in\ntag_1:\n  pop\n    /* \"contracts/SampleString.sol\":133:169  bytes public myBytes = \"Hello World\" */\n  mload(0x40)\n  dup1\n  0x40\n  add\n  0x40\n  mstore\n  dup1\n  0x0b\n  dup2\n  mstore\n  0x20\n  add\n  0x48656c6c6f20576f726c64000000000000000000000000000000000000000000\n  dup2\n  mstore\n  pop\n  0x01\n  swap1\n  dup2\n  tag_3\n  swap2\n  swap1\n  tag_4\n  jump\t// in\ntag_3:\n  pop\n    /* \"contracts/SampleString.sol\":60:849  contract SampleString{... */\n  callvalue\n  dup1\n  iszero\n  tag_5\n  jumpi\n  revert(0x00, 0x00)\ntag_5:\n  pop\n  jump(tag_6)\n    /* \"#utility.yul\":7:106   */\ntag_7:\n    /* \"#utility.yul\":59:65   */\n  0x00\n    /* \"#utility.yul\":93:98   */\n  dup2\n    /* \"#utility.yul\":87:99   */\n  mload\n    /* \"#utility.yul\":77:99   */\n  swap1\n  pop\n    /* \"#utility.yul\":7:106   */\n  swap2\n  swap1\n  pop\n  jump\t// out\n    /* \"#utility.yul\":112:292   */\ntag_8:\n    /* \"#utility.yul\":160:237   */\n  0x4e487b7100000000000000000000000000000000000000000000000000000000\n    /* \"#utility.yul\":157:158   */\n  0x00\n    /* \"#utility.yul\":150:238   */\n  mstore\n    /* \"#utility.yul\":257:261   */\n  0x41\n    /* \"#utility.yul\":254:255   */\n  0x04\n    /* \"#utility.yul\":247:262   */\n  mstore\n    /* \"#utility.yul\":281:285   */\n  0x24\n    /* \"#utility.yul\":278:279   */\n  0x00\n    /* \"#utility.yul\":271:286   */\n  revert\n    /* \"#utility.yul\":298:478   */\ntag_9:\n    /* \"#utility.yul\":346:423   */\n  0x4e487b7100000000000000000000000000000000000000000000000000000000\n    /* \"#utility.yul\":343:344   */\n  0x00\n    /* \"#utility.yul\":336:424   */\n  mstore\n    /* \"#utility.yul\":443:447   */\n  0x22\n    /* \"#utility.yul\":440:441   */\n  0x04\n    /* \"#utility.yul\":433:448   */\n  mstore\n    /* \"#utility.yul\":467:471   */\n  0x24\n    /* \"#utility.yul\":464:465   */\n  0x00\n    /* \"#utility.yul\":457:472   */\n  revert\n    /* \"#utility.yul\":484:804   */\ntag_10:\n    /* \"#utility.yul\":528:534   */\n  0x00\n    /* \"#utility.yul\":565:566   */\n  0x02\n    /* \"#utility.yul\":559:563   */\n  dup3\n    /* \"#utility.yul\":555:567   */\n  div\n    /* \"#utility.yul\":545:567   */\n  swap1\n  pop\n    /* \"#utility.yul\":612:613   */\n  0x01\n    /* \"#utility.yul\":606:610   */\n  dup3\n    /* \"#utility.yul\":602:614   */\n  and\n    /* \"#utility.yul\":633:651   */\n  dup1\n    /* \"#utility.yul\":623:704   */\n  tag_34\n  jumpi\n    /* \"#utility.yul\":689:693   */\n  0x7f\n    /* \"#utility.yul\":681:687   */\n  dup3\n    /* \"#utility.yul\":677:694   */\n  and\n    /* \"#utility.yul\":667:694   */\n  swap2\n  pop\n    /* \"#utility.yul\":623:704   */\ntag_34:\n    /* \"#utility.yul\":751:753   */\n  0x20\n    /* \"#utility.yul\":743:749   */\n  dup3\n    /* \"#utility.yul\":740:754   */\n  lt\n    /* \"#utility.yul\":720:738   */\n  dup2\n    /* \"#utility.yul\":717:755   */\n  sub\n    /* \"#utility.yul\":714:798   */\n  tag_35\n  jumpi\n    /* \"#utility.yul\":770:788   */\n  tag_36\n  tag_9\n  jump\t// in\ntag_36:\n    /* \"#utility.yul\":714:798   */\ntag_35:\n    /* \"#utility.yul\":535:804   */\n  pop\n    /* \"#utility.yul\":484:804   */\n  swap2\n  swap1\n  pop\n  jump\t// out\n    /* \"#utility.yul\":810:951   */\ntag_11:\n    /* \"#utility.yul\":859:863   */\n  0x00\n    /* \"#utility.yul\":882:885   */\n  dup2\n    /* \"#utility.yul\":874:885   */\n  swap1\n  pop\n    /* \"#utility.yul\":905:908   */\n  dup2\n    /* \"#utility.yul\":902:903   */\n  0x00\n    /* \"#utility.yul\":895:909   */\n  mstore\n    /* \"#utility.yul\":939:943   */\n  0x20\n    /* \"#utility.yul\":936:937   */\n  0x00\n    /* \"#utility.yul\":926:944   */\n  keccak256\n    /* \"#utility.yul\":918:944   */\n  swap1\n  pop\n    /* \"#utility.yul\":810:951   */\n  swap2\n  swap1\n  pop\n  jump\t// out\n    /* \"#utility.yul\":957:1050   */\ntag_12:\n    /* \"#utility.yul\":994:1000   */\n  0x00\n    /* \"#utility.yul\":1041:1043   */\n  0x20\n    /* \"#utility.yul\":1036:1038   */\n  0x1f\n    /* \"#utility.yul\":1029:1034   */\n  dup4\n    /* \"#utility.yul\":1025:1039   */\n  add\n    /* \"#utility.yul\":1021:1044   */\n  div\n    /* \"#utility.yul\":1011:1044   */\n  swap1\n  pop\n    /* \"#utility.yul\":957:1050   */\n  swap2\n  swap1\n  pop\n  jump\t// out\n    /* \"#utility.yul\":1056:1163   */\ntag_13:\n    /* \"#utility.yul\":1100:1108   */\n  0x00\n    /* \"#utility.yul\":1150:1155   */\n  dup3\n    /* \"#utility.yul\":1144:1148   */\n  dup3\n    /* \"#utility.yul\":1140:1156   */\n  shl\n    /* \"#utility.yul\":1119:1156   */\n  swap1\n  pop\n    /* \"#utility.yul\":1056:1163   */\n  swap3\n  swap2\n  pop\n  pop\n  jump\t// out\n    /* \"#utility.yul\":1169:1562   */\ntag_14:\n    /* \"#utility.yul\":1238:1244   */\n  0x00\n    /* \"#utility.yul\":1288:1289   */\n  0x08\n    /* \"#utility.yul\":1276:1286   */\n  dup4\n    /* \"#utility.yul\":1272:1290   */\n  mul\n    /* \"#utility.yul\":1311:1408   */\n  tag_41\n    /* \"#utility.yul\":1341:1407   */\n  0xffffffffffffffffffffffffffffffffffffffffffffffffffffffffffffffff\n    /* \"#utility.yul\":1330:1339   */\n  dup3\n    /* \"#utility.yul\":1311:1408   */\n  tag_13\n  jump\t// in\ntag_41:\n    /* \"#utility.yul\":1429:1468   */\n  tag_42\n    /* \"#utility.yul\":1459:1467   */\n  dup7\n    /* \"#utility.yul\":1448:1457   */\n  dup4\n    /* \"#utility.yul\":1429:1468   */\n  tag_13\n  jump\t// in\ntag_42:\n    /* \"#utility.yul\":1417:1468   */\n  swap6\n  pop\n    /* \"#utility.yul\":1501:1505   */\n  dup1\n    /* \"#utility.yul\":1497:1506   */\n  not\n    /* \"#utility.yul\":1490:1495   */\n  dup5\n    /* \"#utility.yul\":1486:1507   */\n  and\n    /* \"#utility.yul\":1477:1507   */\n  swap4\n  pop\n    /* \"#utility.yul\":1550:1554   */\n  dup1\n    /* \"#utility.yul\":1540:1548   */\n  dup7\n    /* \"#utility.yul\":1536:1555   */\n  and\n    /* \"#utility.yul\":1529:1534   */\n  dup5\n    /* \"#utility.yul\":1526:1556   */\n  or\n    /* \"#utility.yul\":1516:1556   */\n  swap3\n  pop\n    /* \"#utility.yul\":1245:1562   */\n  pop\n  pop\n    /* \"#utility.yul\":1169:1562   */\n  swap4\n  swap3\n  pop\n  pop\n  pop\n  jump\t// out\n    /* \"#utility.yul\":1568:1645   */\ntag_15:\n    /* \"#utility.yul\":1605:1612   */\n  0x00\n    /* \"#utility.yul\":1634:1639   */\n  dup2\n    /* \"#utility.yul\":1623:1639   */\n  swap1\n  pop\n    /* \"#utility.yul\":1568:1645   */\n  swap2\n  swap1\n  pop\n  jump\t// out\n    /* \"#utility.yul\":1651:1711   */\ntag_16:\n    /* \"#utility.yul\":1679:1682   */\n  0x00\n    /* \"#utility.yul\":1700:1705   */\n  dup2\n    /* \"#utility.yul\":1693:1705   */\n  swap1\n  pop\n    /* \"#utility.yul\":1651:1711   */\n  swap2\n  swap1\n  pop\n  jump\t// out\n    /* \"#utility.yul\":1717:1859   */\ntag_17:\n    /* \"#utility.yul\":1767:1776   */\n  0x00\n    /* \"#utility.yul\":1800:1853   */\n  tag_46\n    /* \"#utility.yul\":1818:1852   */\n  tag_47\n    /* \"#utility.yul\":1827:1851   */\n  tag_48\n    /* \"#utility.yul\":1845:1850   */\n  dup5\n    /* \"#utility.yul\":1827:1851   */\n  tag_15\n  jump\t// in\ntag_48:\n    /* \"#utility.yul\":1818:1852   */\n  tag_16\n  jump\t// in\ntag_47:\n    /* \"#utility.yul\":1800:1853   */\n  tag_15\n  jump\t// in\ntag_46:\n    /* \"#utility.yul\":1787:1853   */\n  swap1\n  pop\n    /* \"#utility.yul\":1717:1859   */\n  swap2\n  swap1\n  pop\n  jump\t// out\n    /* \"#utility.yul\":1865:1940   */\ntag_18:\n    /* \"#utility.yul\":1908:1911   */\n  0x00\n    /* \"#utility.yul\":1929:1934   */\n  dup2\n    /* \"#utility.yul\":1922:1934   */\n  swap1\n  pop\n    /* \"#utility.yul\":1865:1940   */\n  swap2\n  swap1\n  pop\n  jump\t// out\n    /* \"#utility.yul\":1946:2215   */\ntag_19:\n    /* \"#utility.yul\":2056:2095   */\n  tag_51\n    /* \"#utility.yul\":2087:2094   */\n  dup4\n    /* \"#utility.yul\":2056:2095   */\n  tag_17\n  jump\t// in\ntag_51:\n    /* \"#utility.yul\":2117:2208   */\n  tag_52\n    /* \"#utility.yul\":2166:2207   */\n  tag_53\n    /* \"#utility.yul\":2190:2206   */\n  dup3\n    /* \"#utility.yul\":2166:2207   */\n  tag_18\n  jump\t// in\ntag_53:\n    /* \"#utility.yul\":2158:2164   */\n  dup5\n    /* \"#utility.yul\":2151:2155   */\n  dup5\n    /* \"#utility.yul\":2145:2156   */\n  sload\n    /* \"#utility.yul\":2117:2208   */\n  tag_14\n  jump\t// in\ntag_52:\n    /* \"#utility.yul\":2111:2115   */\n  dup3\n    /* \"#utility.yul\":2104:2209   */\n  sstore\n    /* \"#utility.yul\":2022:2215   */\n  pop\n    /* \"#utility.yul\":1946:2215   */\n  pop\n  pop\n  pop\n  jump\t// out\n    /* \"#utility.yul\":2221:2294   */\ntag_20:\n    /* \"#utility.yul\":2266:2269   */\n  0x00\n    /* \"#utility.yul\":2287:2288   */\n  0x00\n    /* \"#utility.yul\":2280:2288   */\n  swap1\n  pop\n    /* \"#utility.yul\":2221:2294   */\n  swap1\n  jump\t// out\n    /* \"#utility.yul\":2300:2489   */\ntag_21:\n    /* \"#utility.yul\":2377:2409   */\n  tag_56\n  tag_20\n  jump\t// in\ntag_56:\n    /* \"#utility.yul\":2418:2483   */\n  tag_57\n    /* \"#utility.yul\":2476:2482   */\n  dup2\n    /* \"#utility.yul\":2468:2474   */\n  dup5\n    /* \"#utility.yul\":2462:2466   */\n  dup5\n    /* \"#utility.yul\":2418:2483   */\n  tag_19\n  jump\t// in\ntag_57:\n    /* \"#utility.yul\":2353:2489   */\n  pop\n    /* \"#utility.yul\":2300:2489   */\n  pop\n  pop\n  jump\t// out\n    /* \"#utility.yul\":2495:2681   */\ntag_22:\n    /* \"#utility.yul\":2555:2675   */\ntag_59:\n    /* \"#utility.yul\":2572:2575   */\n  dup2\n    /* \"#utility.yul\":2565:2570   */\n  dup2\n    /* \"#utility.yul\":2562:2576   */\n  lt\n    /* \"#utility.yul\":2555:2675   */\n  iszero\n  tag_61\n  jumpi\n    /* \"#utility.yul\":2626:2665   */\n  tag_62\n    /* \"#utility.yul\":2663:2664   */\n  0x00\n    /* \"#utility.yul\":2656:2661   */\n  dup3\n    /* \"#utility.yul\":2626:2665   */\n  tag_21\n  jump\t// in\ntag_62:\n    /* \"#utility.yul\":2599:2600   */\n  0x01\n    /* \"#utility.yul\":2592:2597   */\n  dup2\n    /* \"#utility.yul\":2588:2601   */\n  add\n    /* \"#utility.yul\":2579:2601   */\n  swap1\n  pop\n    /* \"#utility.yul\":2555:2675   */\n  jump(tag_59)\ntag_61:\n    /* \"#utility.yul\":2495:2681   */\n  pop\n  pop\n  jump\t// out\n    /* \"#utility.yul\":2687:3230   */\ntag_23:\n    /* \"#utility.yul\":2788:2790   */\n  0x1f\n    /* \"#utility.yul\":2783:2786   */\n  dup3\n    /* \"#utility.yul\":2780:2791   */\n  gt\n    /* \"#utility.yul\":2777:3223   */\n  iszero\n  tag_64\n  jumpi\n    /* \"#utility.yul\":2822:2860   */\n  tag_65\n    /* \"#utility.yul\":2854:2859   */\n  dup2\n    /* \"#utility.yul\":2822:2860   */\n  tag_11\n  jump\t// in\ntag_65:\n    /* \"#utility.yul\":2906:2935   */\n  tag_66\n    /* \"#utility.yul\":2924:2934   */\n  dup5\n    /* \"#utility.yul\":2906:2935   */\n  tag_12\n  jump\t// in\ntag_66:\n    /* \"#utility.yul\":2896:2904   */\n  dup2\n    /* \"#utility.yul\":2892:2936   */\n  add\n    /* \"#utility.yul\":3089:3091   */\n  0x20\n    /* \"#utility.yul\":3077:3087   */\n  dup6\n    /* \"#utility.yul\":3074:3092   */\n  lt\n    /* \"#utility.yul\":3071:3120   */\n  iszero\n  tag_67\n  jumpi\n    /* \"#utility.yul\":3110:3118   */\n  dup2\n    /* \"#utility.yul\":3095:3118   */\n  swap1\n  pop\n    /* \"#utility.yul\":3071:3120   */\ntag_67:\n    /* \"#utility.yul\":3133:3213   */\n  tag_68\n    /* \"#utility.yul\":3189:3211   */\n  tag_69\n    /* \"#utility.yul\":3207:3210   */\n  dup6\n    /* \"#utility.yul\":3189:3211   */\n  tag_12\n  jump\t// in\ntag_69:\n    /* \"#utility.yul\":3179:3187   */\n  dup4\n    /* \"#utility.yul\":3175:3212   */\n  add\n    /* \"#utility.yul\":3162:3173   */\n  dup3\n    /* \"#utility.yul\":3133:3213   */\n  tag_22\n  jump\t// in\ntag_68:\n    /* \"#utility.yul\":2792:3223   */\n  pop\n  pop\n    /* \"#utility.yul\":2777:3223   */\ntag_64:\n    /* \"#utility.yul\":2687:3230   */\n  pop\n  pop\n  pop\n  jump\t// out\n    /* \"#utility.yul\":3236:3353   */\ntag_24:\n    /* \"#utility.yul\":3290:3298   */\n  0x00\n    /* \"#utility.yul\":3340:3345   */\n  dup3\n    /* \"#utility.yul\":3334:3338   */\n  dup3\n    /* \"#utility.yul\":3330:3346   */\n  shr\n    /* \"#utility.yul\":3309:3346   */\n  swap1\n  pop\n    /* \"#utility.yul\":3236:3353   */\n  swap3\n  swap2\n  pop\n  pop\n  jump\t// out\n    /* \"#utility.yul\":3359:3528   */\ntag_25:\n    /* \"#utility.yul\":3403:3409   */\n  0x00\n    /* \"#utility.yul\":3436:3487   */\n  tag_72\n    /* \"#utility.yul\":3484:3485   */\n  0x00\n    /* \"#utility.yul\":3480:3486   */\n  not\n    /* \"#utility.yul\":3472:3477   */\n  dup5\n    /* \"#utility.yul\":3469:3470   */\n  0x08\n    /* \"#utility.yul\":3465:3478   */\n  mul\n    /* \"#utility.yul\":3436:3487   */\n  tag_24\n  jump\t// in\ntag_72:\n    /* \"#utility.yul\":3432:3488   */\n  not\n    /* \"#utility.yul\":3517:3521   */\n  dup1\n    /* \"#utility.yul\":3511:3515   */\n  dup4\n    /* \"#utility.yul\":3507:3522   */\n  and\n    /* \"#utility.yul\":3497:3522   */\n  swap2\n  pop\n    /* \"#utility.yul\":3410:3528   */\n  pop\n    /* \"#utility.yul\":3359:3528   */\n  swap3\n  swap2\n  pop\n  pop\n  jump\t// out\n    /* \"#utility.yul\":3533:3828   */\ntag_26:\n    /* \"#utility.yul\":3609:3613   */\n  0x00\n    /* \"#utility.yul\":3755:3784   */\n  tag_74\n    /* \"#utility.yul\":3780:3783   */\n  dup4\n    /* \"#utility.yul\":3774:3778   */\n  dup4\n    /* \"#utility.yul\":3755:3784   */\n  tag_25\n  jump\t// in\ntag_74:\n    /* \"#utility.yul\":3747:3784   */\n  swap2\n  pop\n    /* \"#utility.yul\":3817:3820   */\n  dup3\n    /* \"#utility.yul\":3814:3815   */\n  0x02\n    /* \"#utility.yul\":3810:3821   */\n  mul\n    /* \"#utility.yul\":3804:3808   */\n  dup3\n    /* \"#utility.yul\":3801:3822   */\n  or\n    /* \"#utility.yul\":3793:3822   */\n  swap1\n  pop\n    /* \"#utility.yul\":3533:3828   */\n  swap3\n  swap2\n  pop\n  pop\n  jump\t// out\n    /* \"#utility.yul\":3833:5228   */\ntag_2:\n    /* \"#utility.yul\":3950:3987   */\n  tag_76\n    /* \"#utility.yul\":3983:3986   */\n  dup3\n    /* \"#utility.yul\":3950:3987   */\n  tag_7\n  jump\t// in\ntag_76:\n    /* \"#utility.yul\":4052:4070   */\n  0xffffffffffffffff\n    /* \"#utility.yul\":4044:4050   */\n  dup2\n    /* \"#utility.yul\":4041:4071   */\n  gt\n    /* \"#utility.yul\":4038:4094   */\n  iszero\n  tag_77\n  jumpi\n    /* \"#utility.yul\":4074:4092   */\n  tag_78\n  tag_8\n  jump\t// in\ntag_78:\n    /* \"#utility.yul\":4038:4094   */\ntag_77:\n    /* \"#utility.yul\":4118:4156   */\n  tag_79\n    /* \"#utility.yul\":4150:4154   */\n  dup3\n    /* \"#utility.yul\":4144:4155   */\n  sload\n    /* \"#utility.yul\":4118:4156   */\n  tag_10\n  jump\t// in\ntag_79:\n    /* \"#utility.yul\":4203:4270   */\n  tag_80\n    /* \"#utility.yul\":4263:4269   */\n  dup3\n    /* \"#utility.yul\":4255:4261   */\n  dup3\n    /* \"#utility.yul\":4249:4253   */\n  dup6\n    /* \"#utility.yul\":4203:4270   */\n  tag_23\n  jump\t// in\ntag_80:\n    /* \"#utility.yul\":4297:4298   */\n  0x00\n    /* \"#utility.yul\":4321:4325   */\n  0x20\n    /* \"#utility.yul\":4308:4325   */\n  swap1\n  pop\n    /* \"#utility.yul\":4353:4355   */\n  0x1f\n    /* \"#utility.yul\":4345:4351   */\n  dup4\n    /* \"#utility.yul\":4342:4356   */\n  gt\n    /* \"#utility.yul\":4370:4371   */\n  0x01\n    /* \"#utility.yul\":4365:4983   */\n  dup2\n  eq\n  tag_82\n  jumpi\n    /* \"#utility.yul\":5027:5028   */\n  0x00\n    /* \"#utility.yul\":5044:5050   */\n  dup5\n    /* \"#utility.yul\":5041:5118   */\n  iszero\n  tag_83\n  jumpi\n    /* \"#utility.yul\":5093:5102   */\n  dup3\n    /* \"#utility.yul\":5088:5091   */\n  dup8\n    /* \"#utility.yul\":5084:5103   */\n  add\n    /* \"#utility.yul\":5078:5104   */\n  mload\n    /* \"#utility.yul\":5069:5104   */\n  swap1\n  pop\n    /* \"#utility.yul\":5041:5118   */\ntag_83:\n    /* \"#utility.yul\":5144:5211   */\n  tag_84\n    /* \"#utility.yul\":5204:5210   */\n  dup6\n    /* \"#utility.yul\":5197:5202   */\n  dup3\n    /* \"#utility.yul\":5144:5211   */\n  tag_26\n  jump\t// in\ntag_84:\n    /* \"#utility.yul\":5138:5142   */\n  dup7\n    /* \"#utility.yul\":5131:5212   */\n  sstore\n    /* \"#utility.yul\":5000:5222   */\n  pop\n    /* \"#utility.yul\":4335:5222   */\n  jump(tag_81)\n    /* \"#utility.yul\":4365:4983   */\ntag_82:\n    /* \"#utility.yul\":4417:4421   */\n  0x1f\n    /* \"#utility.yul\":4413:4422   */\n  not\n    /* \"#utility.yul\":4405:4411   */\n  dup5\n    /* \"#utility.yul\":4401:4423   */\n  and\n    /* \"#utility.yul\":4451:4488   */\n  tag_85\n    /* \"#utility.yul\":4483:4487   */\n  dup7\n    /* \"#utility.yul\":4451:4488   */\n  tag_11\n  jump\t// in\ntag_85:\n    /* \"#utility.yul\":4510:4511   */\n  0x00\n    /* \"#utility.yul\":4524:4732   */\ntag_86:\n    /* \"#utility.yul\":4538:4545   */\n  dup3\n    /* \"#utility.yul\":4535:4536   */\n  dup2\n    /* \"#utility.yul\":4532:4546   */\n  lt\n    /* \"#utility.yul\":4524:4732   */\n  iszero\n  tag_88\n  jumpi\n    /* \"#utility.yul\":4617:4626   */\n  dup5\n    /* \"#utility.yul\":4612:4615   */\n  dup10\n    /* \"#utility.yul\":4608:4627   */\n  add\n    /* \"#utility.yul\":4602:4628   */\n  mload\n    /* \"#utility.yul\":4594:4600   */\n  dup3\n    /* \"#utility.yul\":4587:4629   */\n  sstore\n    /* \"#utility.yul\":4668:4669   */\n  0x01\n    /* \"#utility.yul\":4660:4666   */\n  dup3\n    /* \"#utility.yul\":4656:4670   */\n  add\n    /* \"#utility.yul\":4646:4670   */\n  swap2\n  pop\n    /* \"#utility.yul\":4715:4717   */\n  0x20\n    /* \"#utility.yul\":4704:4713   */\n  dup6\n    /* \"#utility.yul\":4700:4718   */\n  add\n    /* \"#utility.yul\":4687:4718   */\n  swap5\n  pop\n    /* \"#utility.yul\":4561:4565   */\n  0x20\n    /* \"#utility.yul\":4558:4559   */\n  dup2\n    /* \"#utility.yul\":4554:4566   */\n  add\n    /* \"#utility.yul\":4549:4566   */\n  swap1\n  pop\n    /* \"#utility.yul\":4524:4732   */\n  jump(tag_86)\ntag_88:\n    /* \"#utility.yul\":4760:4766   */\n  dup7\n    /* \"#utility.yul\":4751:4758   */\n  dup4\n    /* \"#utility.yul\":4748:4767   */\n  lt\n    /* \"#utility.yul\":4745:4924   */\n  iszero\n  tag_89\n  jumpi\n    /* \"#utility.yul\":4818:4827   */\n  dup5\n    /* \"#utility.yul\":4813:4816   */\n  dup10\n    /* \"#utility.yul\":4809:4828   */\n  add\n    /* \"#utility.yul\":4803:4829   */\n  mload\n    /* \"#utility.yul\":4861:4909   */\n  tag_90\n    /* \"#utility.yul\":4903:4907   */\n  0x1f\n    /* \"#utility.yul\":4895:4901   */\n  dup10\n    /* \"#utility.yul\":4891:4908   */\n  and\n    /* \"#utility.yul\":4880:4889   */\n  dup3\n    /* \"#utility.yul\":4861:4909   */\n  tag_25\n  jump\t// in\ntag_90:\n    /* \"#utility.yul\":4853:4859   */\n  dup4\n    /* \"#utility.yul\":4846:4910   */\n  sstore\n    /* \"#utility.yul\":4768:4924   */\n  pop\n    /* \"#utility.yul\":4745:4924   */\ntag_89:\n    /* \"#utility.yul\":4970:4971   */\n  0x01\n    /* \"#utility.yul\":4966:4967   */\n  0x02\n    /* \"#utility.yul\":4958:4964   */\n  dup9\n    /* \"#utility.yul\":4954:4968   */\n  mul\n    /* \"#utility.yul\":4950:4972   */\n  add\n    /* \"#utility.yul\":4944:4948   */\n  dup9\n    /* \"#utility.yul\":4937:4973   */\n  sstore\n    /* \"#utility.yul\":4372:4983   */\n  pop\n  pop\n  pop\n    /* \"#utility.yul\":4335:5222   */\ntag_81:\n  pop\n    /* \"#utility.yul\":3925:5228   */\n  pop\n  pop\n  pop\n    /* \"#utility.yul\":3833:5228   */\n  pop\n  pop\n  jump\t// out\n    /* \"#utility.yul\":5234:5374   */\ntag_27:\n    /* \"#utility.yul\":5282:5286   */\n  0x00\n    /* \"#utility.yul\":5305:5308   */\n  dup2\n    /* \"#utility.yul\":5297:5308   */\n  swap1\n  pop\n    /* \"#utility.yul\":5328:5331   */\n  dup2\n    /* \"#utility.yul\":5325:5326   */\n  0x00\n    /* \"#utility.yul\":5318:5332   */\n  mstore\n    /* \"#utility.yul\":5362:5366   */\n  0x20\n    /* \"#utility.yul\":5359:5360   */\n  0x00\n    /* \"#utility.yul\":5349:5367   */\n  keccak256\n    /* \"#utility.yul\":5341:5367   */\n  swap1\n  pop\n    /* \"#utility.yul\":5234:5374   */\n  swap2\n  swap1\n  pop\n  jump\t// out\n    /* \"#utility.yul\":5380:5921   */\ntag_28:\n    /* \"#utility.yul\":5480:5482   */\n  0x1f\n    /* \"#utility.yul\":5475:5478   */\n  dup3\n    /* \"#utility.yul\":5472:5483   */\n  gt\n    /* \"#utility.yul\":5469:5914   */\n  iszero\n  tag_93\n  jumpi\n    /* \"#utility.yul\":5514:5551   */\n  tag_94\n    /* \"#utility.yul\":5545:5550   */\n  dup2\n    /* \"#utility.yul\":5514:5551   */\n  tag_27\n  jump\t// in\ntag_94:\n    /* \"#utility.yul\":5597:5626   */\n  tag_95\n    /* \"#utility.yul\":5615:5625   */\n  dup5\n    /* \"#utility.yul\":5597:5626   */\n  tag_12\n  jump\t// in\ntag_95:\n    /* \"#utility.yul\":5587:5595   */\n  dup2\n    /* \"#utility.yul\":5583:5627   */\n  add\n    /* \"#utility.yul\":5780:5782   */\n  0x20\n    /* \"#utility.yul\":5768:5778   */\n  dup6\n    /* \"#utility.yul\":5765:5783   */\n  lt\n    /* \"#utility.yul\":5762:5811   */\n  iszero\n  tag_96\n  jumpi\n    /* \"#utility.yul\":5801:5809   */\n  dup2\n    /* \"#utility.yul\":5786:5809   */\n  swap1\n  pop\n    /* \"#utility.yul\":5762:5811   */\ntag_96:\n    /* \"#utility.yul\":5824:5904   */\n  tag_97\n    /* \"#utility.yul\":5880:5902   */\n  tag_98\n    /* \"#utility.yul\":5898:5901   */\n  dup6\n    /* \"#utility.yul\":5880:5902   */\n  tag_12\n  jump\t// in\ntag_98:\n    /* \"#utility.yul\":5870:5878   */\n  dup4\n    /* \"#utility.yul\":5866:5903   */\n  add\n    /* \"#utility.yul\":5853:5864   */\n  dup3\n    /* \"#utility.yul\":5824:5904   */\n  tag_22\n  jump\t// in\ntag_97:\n    /* \"#utility.yul\":5484:5914   */\n  pop\n  pop\n    /* \"#utility.yul\":5469:5914   */\ntag_93:\n    /* \"#utility.yul\":5380:5921   */\n  pop\n  pop\n  pop\n  jump\t// out\n    /* \"#utility.yul\":5927:7319   */\ntag_4:\n    /* \"#utility.yul\":6043:6080   */\n  tag_100\n    /* \"#utility.yul\":6076:6079   */\n  dup3\n    /* \"#utility.yul\":6043:6080   */\n  tag_7\n  jump\t// in\ntag_100:\n    /* \"#utility.yul\":6145:6163   */\n  0xffffffffffffffff\n    /* \"#utility.yul\":6137:6143   */\n  dup2\n    /* \"#utility.yul\":6134:6164   */\n  gt\n    /* \"#utility.yul\":6131:6187   */\n  iszero\n  tag_101\n  jumpi\n    /* \"#utility.yul\":6167:6185   */\n  tag_102\n  tag_8\n  jump\t// in\ntag_102:\n    /* \"#utility.yul\":6131:6187   */\ntag_101:\n    /* \"#utility.yul\":6211:6249   */\n  tag_103\n    /* \"#utility.yul\":6243:6247   */\n  dup3\n    /* \"#utility.yul\":6237:6248   */\n  sload\n    /* \"#utility.yul\":6211:6249   */\n  tag_10\n  jump\t// in\ntag_103:\n    /* \"#utility.yul\":6296:6362   */\n  tag_104\n    /* \"#utility.yul\":6355:6361   */\n  dup3\n    /* \"#utility.yul\":6347:6353   */\n  dup3\n    /* \"#utility.yul\":6341:6345   */\n  dup6\n    /* \"#utility.yul\":6296:6362   */\n  tag_28\n  jump\t// in\ntag_104:\n    /* \"#utility.yul\":6389:6390   */\n  0x00\n    /* \"#utility.yul\":6413:6417   */\n  0x20\n    /* \"#utility.yul\":6400:6417   */\n  swap1\n  pop\n    /* \"#utility.yul\":6445:6447   */\n  0x1f\n    /* \"#utility.yul\":6437:6443   */\n  dup4\n    /* \"#utility.yul\":6434:6448   */\n  gt\n    /* \"#utility.yul\":6462:6463   */\n  0x01\n    /* \"#utility.yul\":6457:7074   */\n  dup2\n  eq\n  tag_106\n  jumpi\n    /* \"#utility.yul\":7118:7119   */\n  0x00\n    /* \"#utility.yul\":7135:7141   */\n  dup5\n    /* \"#utility.yul\":7132:7209   */\n  iszero\n  tag_107\n  jumpi\n    /* \"#utility.yul\":7184:7193   */\n  dup3\n    /* \"#utility.yul\":7179:7182   */\n  dup8\n    /* \"#utility.yul\":7175:7194   */\n  add\n    /* \"#utility.yul\":7169:7195   */\n  mload\n    /* \"#utility.yul\":7160:7195   */\n  swap1\n  pop\n    /* \"#utility.yul\":7132:7209   */\ntag_107:\n    /* \"#utility.yul\":7235:7302   */\n  tag_108\n    /* \"#utility.yul\":7295:7301   */\n  dup6\n    /* \"#utility.yul\":7288:7293   */\n  dup3\n    /* \"#utility.yul\":7235:7302   */\n  tag_26\n  jump\t// in\ntag_108:\n    /* \"#utility.yul\":7229:7233   */\n  dup7\n    /* \"#utility.yul\":7222:7303   */\n  sstore\n    /* \"#utility.yul\":7091:7313   */\n  pop\n    /* \"#utility.yul\":6427:7313   */\n  jump(tag_105)\n    /* \"#utility.yul\":6457:7074   */\ntag_106:\n    /* \"#utility.yul\":6509:6513   */\n  0x1f\n    /* \"#utility.yul\":6505:6514   */\n  not\n    /* \"#utility.yul\":6497:6503   */\n  dup5\n    /* \"#utility.yul\":6493:6515   */\n  and\n    /* \"#utility.yul\":6543:6579   */\n  tag_109\n    /* \"#utility.yul\":6574:6578   */\n  dup7\n    /* \"#utility.yul\":6543:6579   */\n  tag_27\n  jump\t// in\ntag_109:\n    /* \"#utility.yul\":6601:6602   */\n  0x00\n    /* \"#utility.yul\":6615:6823   */\ntag_110:\n    /* \"#utility.yul\":6629:6636   */\n  dup3\n    /* \"#utility.yul\":6626:6627   */\n  dup2\n    /* \"#utility.yul\":6623:6637   */\n  lt\n    /* \"#utility.yul\":6615:6823   */\n  iszero\n  tag_112\n  jumpi\n    /* \"#utility.yul\":6708:6717   */\n  dup5\n    /* \"#utility.yul\":6703:6706   */\n  dup10\n    /* \"#utility.yul\":6699:6718   */\n  add\n    /* \"#utility.yul\":6693:6719   */\n  mload\n    /* \"#utility.yul\":6685:6691   */\n  dup3\n    /* \"#utility.yul\":6678:6720   */\n  sstore\n    /* \"#utility.yul\":6759:6760   */\n  0x01\n    /* \"#utility.yul\":6751:6757   */\n  dup3\n    /* \"#utility.yul\":6747:6761   */\n  add\n    /* \"#utility.yul\":6737:6761   */\n  swap2\n  pop\n    /* \"#utility.yul\":6806:6808   */\n  0x20\n    /* \"#utility.yul\":6795:6804   */\n  dup6\n    /* \"#utility.yul\":6791:6809   */\n  add\n    /* \"#utility.yul\":6778:6809   */\n  swap5\n  pop\n    /* \"#utility.yul\":6652:6656   */\n  0x20\n    /* \"#utility.yul\":6649:6650   */\n  dup2\n    /* \"#utility.yul\":6645:6657   */\n  add\n    /* \"#utility.yul\":6640:6657   */\n  swap1\n  pop\n    /* \"#utility.yul\":6615:6823   */\n  jump(tag_110)\ntag_112:\n    /* \"#utility.yul\":6851:6857   */\n  dup7\n    /* \"#utility.yul\":6842:6849   */\n  dup4\n    /* \"#utility.yul\":6839:6858   */\n  lt\n    /* \"#utility.yul\":6836:7015   */\n  iszero\n  tag_113\n  jumpi\n    /* \"#utility.yul\":6909:6918   */\n  dup5\n    /* \"#utility.yul\":6904:6907   */\n  dup10\n    /* \"#utility.yul\":6900:6919   */\n  add\n    /* \"#utility.yul\":6894:6920   */\n  mload\n    /* \"#utility.yul\":6952:7000   */\n  tag_114\n    /* \"#utility.yul\":6994:6998   */\n  0x1f\n    /* \"#utility.yul\":6986:6992   */\n  dup10\n    /* \"#utility.yul\":6982:6999   */\n  and\n    /* \"#utility.yul\":6971:6980   */\n  dup3\n    /* \"#utility.yul\":6952:7000   */\n  tag_25\n  jump\t// in\ntag_114:\n    /* \"#utility.yul\":6944:6950   */\n  dup4\n    /* \"#utility.yul\":6937:7001   */\n  sstore\n    /* \"#utility.yul\":6859:7015   */\n  pop\n    /* \"#utility.yul\":6836:7015   */\ntag_113:\n    /* \"#utility.yul\":7061:7062   */\n  0x01\n    /* \"#utility.yul\":7057:7058   */\n  0x02\n    /* \"#utility.yul\":7049:7055   */\n  dup9\n    /* \"#utility.yul\":7045:7059   */\n  mul\n    /* \"#utility.yul\":7041:7063   */\n  add\n    /* \"#utility.yul\":7035:7039   */\n  dup9\n    /* \"#utility.yul\":7028:7064   */\n  sstore\n    /* \"#utility.yul\":6464:7074   */\n  pop\n  pop\n  pop\n    /* \"#utility.yul\":6427:7313   */\ntag_105:\n  pop\n    /* \"#utility.yul\":6018:7319   */\n  pop\n  pop\n  pop\n    /* \"#utility.yul\":5927:7319   */\n  pop\n  pop\n  jump\t// out\n    /* \"contracts/SampleString.sol\":60:849  contract SampleString{... */\ntag_6:\n  dataSize(sub_0)\n  dup1\n  dataOffset(sub_0)\n  0x00\n  codecopy\n  0x00\n  return\nstop\n\nsub_0: assembly {\n        /* \"contracts/SampleString.sol\":60:849  contract SampleString{... */\n      mstore(0x40, 0x80)\n      callvalue\n      dup1\n      iszero\n      tag_1\n      jumpi\n      revert(0x00, 0x00)\n    tag_1:\n      pop\n      jumpi(tag_2, lt(calldatasize, 0x04))\n      shr(0xe0, calldataload(0x00))\n      dup1\n      0x4f86f506\n      gt\n      tag_12\n      jumpi\n      dup1\n      0x4f86f506\n      eq\n      tag_7\n      jumpi\n      dup1\n      0x712f4602\n      eq\n      tag_8\n      jumpi\n      dup1\n      0x82180568\n      eq\n      tag_9\n      jumpi\n      dup1\n      0xbe9bea9d\n      eq\n      tag_10\n      jumpi\n      dup1\n      0xc4e70408\n      eq\n      tag_11\n      jumpi\n      jump(tag_2)\n    tag_12:\n      dup1\n      0x18e5f16b\n      eq\n      tag_3\n      jumpi\n      dup1\n      0x1f7b6d32\n      eq\n      tag_4\n      jumpi\n      dup1\n      0x2c1a8eda\n      eq\n      tag_5\n      jumpi\n      dup1\n      0x492bfa18\n      eq\n      tag_6\n      jumpi\n    tag_2:\n      revert(0x00, 0x00)\n        /* \"contracts/SampleString.sol\":604:630  address public someAddress */\n    tag_3:\n      tag_13\n      tag_14\n      jump\t// in\n    tag_13:\n      mload(0x40)\n      tag_15\n      swap2\n      swap1\n      tag_16\n      jump\t// in\n    tag_15:\n      mload(0x40)\n      dup1\n      swap2\n      sub\n      swap1\n      return\n        /* \"contracts/SampleString.sol\":462:480  uint public length */\n    tag_4:\n      tag_17\n      tag_18\n      jump\t// in\n    tag_17:\n      mload(0x40)\n      tag_19\n      swap2\n      swap1\n      tag_20\n      jump\t// in\n    tag_19:\n      mload(0x40)\n      dup1\n      swap2\n      sub\n      swap1\n      return\n        /* \"contracts/SampleString.sol\":489:594  function lengthString(string memory _mystring) public {... */\n    tag_5:\n      tag_21\n      0x04\n      dup1\n      calldatasize\n      sub\n      dup2\n      add\n      swap1\n      tag_22\n      swap2\n      swap1\n      tag_23\n      jump\t// in\n    tag_22:\n      tag_24\n      jump\t// in\n    tag_21:\n      stop\n        /* \"contracts/SampleString.sol\":88:126  string public myString = \"Hello world\" */\n    tag_6:\n      tag_25\n      tag_26\n      jump\t// in\n    tag_25:\n      mload(0x40)\n      tag_27\n      swap2\n      swap1\n      tag_28\n      jump\t// in\n    tag_27:\n      mload(0x40)\n      dup1\n      swap2\n      sub\n      swap1\n      return\n        /* \"contracts/SampleString.sol\":277:454  function compareStrings(string memory _myString) public view returns(bool){... */\n    tag_7:\n      tag_29\n      0x04\n      dup1\n      calldatasize\n      sub\n      dup2\n      add\n      swap1\n      tag_30\n      swap2\n      swap1\n      tag_23\n      jump\t// in\n    tag_30:\n      tag_31\n      jump\t// in\n    tag_29:\n      mload(0x40)\n      tag_32\n      swap2\n      swap1\n      tag_33\n      jump\t// in\n    tag_32:\n      mload(0x40)\n      dup1\n      swap2\n      sub\n      swap1\n      return\n        /* \"contracts/SampleString.sol\":133:169  bytes public myBytes = \"Hello World\" */\n    tag_8:\n      tag_34\n      tag_35\n      jump\t// in\n    tag_34:\n      mload(0x40)\n      tag_36\n      swap2\n      swap1\n      tag_37\n      jump\t// in\n    tag_36:\n      mload(0x40)\n      dup1\n      swap2\n      sub\n      swap1\n      return\n        /* \"contracts/SampleString.sol\":178:269  function setMyString(string memory _myString) public{... */\n    tag_9:\n      tag_38\n      0x04\n      dup1\n      calldatasize\n      sub\n      dup2\n      add\n      swap1\n      tag_39\n      swap2\n      swap1\n      tag_23\n      jump\t// in\n    tag_39:\n      tag_40\n      jump\t// in\n    tag_38:\n      stop\n        /* \"contracts/SampleString.sol\":639:737  function setSomeAddress(address _someAddress) public {... */\n    tag_10:\n      tag_41\n      0x04\n      dup1\n      calldatasize\n      sub\n      dup2\n      add\n      swap1\n      tag_42\n      swap2\n      swap1\n      tag_43\n      jump\t// in\n    tag_42:\n      tag_44\n      jump\t// in\n    tag_41:\n      stop\n        /* \"contracts/SampleString.sol\":747:846  function getaddressbalance() public view returns(uint){... */\n    tag_11:\n      tag_45\n      tag_46\n      jump\t// in\n    tag_45:\n      mload(0x40)\n      tag_47\n      swap2\n      swap1\n      tag_20\n      jump\t// in\n    tag_47:\n      mload(0x40)\n      dup1\n      swap2\n      sub\n      swap1\n      return\n        /* \"contracts/SampleString.sol\":604:630  address public someAddress */\n    tag_14:\n      0x03\n      0x00\n      swap1\n      sload\n      swap1\n      0x0100\n      exp\n      swap1\n      div\n      0xffffffffffffffffffffffffffffffffffffffff\n      and\n      dup2\n      jump\t// out\n        /* \"contracts/SampleString.sol\":462:480  uint public length */\n    tag_18:\n      sload(0x02)\n      dup2\n      jump\t// out\n        /* \"contracts/SampleString.sol\":489:594  function lengthString(string memory _mystring) public {... */\n    tag_24:\n        /* \"contracts/SampleString.sol\":569:578  _mystring */\n      dup1\n        /* \"contracts/SampleString.sol\":563:586  bytes(_mystring).length */\n      mload\n        /* \"contracts/SampleString.sol\":554:560  length */\n      0x02\n        /* \"contracts/SampleString.sol\":554:586  length = bytes(_mystring).length */\n      dup2\n      swap1\n      sstore\n      pop\n        /* \"contracts/SampleString.sol\":489:594  function lengthString(string memory _mystring) public {... */\n      pop\n      jump\t// out\n        /* \"contracts/SampleString.sol\":88:126  string public myString = \"Hello world\" */\n    tag_26:\n      0x00\n      dup1\n      sload\n      tag_49\n      swap1\n      tag_50\n      jump\t// in\n    tag_49:\n      dup1\n      0x1f\n      add\n      0x20\n      dup1\n      swap2\n      div\n      mul\n      0x20\n      add\n      mload(0x40)\n      swap1\n      dup2\n      add\n      0x40\n      mstore\n      dup1\n      swap3\n      swap2\n      swap1\n      dup2\n      dup2\n      mstore\n      0x20\n      add\n      dup3\n      dup1\n      sload\n      tag_51\n      swap1\n      tag_50\n      jump\t// in\n    tag_51:\n      dup1\n      iszero\n      tag_52\n      jumpi\n      dup1\n      0x1f\n      lt\n      tag_53\n      jumpi\n      0x0100\n      dup1\n      dup4\n      sload\n      div\n      mul\n      dup4\n      mstore\n      swap2\n      0x20\n      add\n      swap2\n      jump(tag_52)\n    tag_53:\n      dup3\n      add\n      swap2\n      swap1\n      0x00\n      mstore\n      keccak256(0x00, 0x20)\n      swap1\n    tag_54:\n      dup2\n      sload\n      dup2\n      mstore\n      swap1\n      0x01\n      add\n      swap1\n      0x20\n      add\n      dup1\n      dup4\n      gt\n      tag_54\n      jumpi\n      dup3\n      swap1\n      sub\n      0x1f\n      and\n      dup3\n      add\n      swap2\n    tag_52:\n      pop\n      pop\n      pop\n      pop\n      pop\n      dup2\n      jump\t// out\n        /* \"contracts/SampleString.sol\":277:454  function compareStrings(string memory _myString) public view returns(bool){... */\n    tag_31:\n        /* \"contracts/SampleString.sol\":346:350  bool */\n      0x00\n        /* \"contracts/SampleString.sol\":435:444  _myString */\n      dup2\n        /* \"contracts/SampleString.sol\":418:445  abi.encodePacked(_myString) */\n      add(0x20, mload(0x40))\n      tag_56\n      swap2\n      swap1\n      tag_57\n      jump\t// in\n    tag_56:\n      mload(0x40)\n      0x20\n      dup2\n      dup4\n      sub\n      sub\n      dup2\n      mstore\n      swap1\n      0x40\n      mstore\n        /* \"contracts/SampleString.sol\":408:446  keccak256(abi.encodePacked(_myString)) */\n      dup1\n      mload\n      swap1\n      0x20\n      add\n      keccak256\n        /* \"contracts/SampleString.sol\":396:404  myString */\n      0x00\n        /* \"contracts/SampleString.sol\":379:405  abi.encodePacked(myString) */\n      add(0x20, mload(0x40))\n      tag_58\n      swap2\n      swap1\n      tag_59\n      jump\t// in\n    tag_58:\n      mload(0x40)\n      0x20\n      dup2\n      dup4\n      sub\n      sub\n      dup2\n      mstore\n      swap1\n      0x40\n      mstore\n        /* \"contracts/SampleString.sol\":369:406  keccak256(abi.encodePacked(myString)) */\n      dup1\n      mload\n      swap1\n      0x20\n      add\n      keccak256\n        /* \"contracts/SampleString.sol\":369:446  keccak256(abi.encodePacked(myString))==keccak256(abi.encodePacked(_myString)) */\n      eq\n        /* \"contracts/SampleString.sol\":362:446  return keccak256(abi.encodePacked(myString))==keccak256(abi.encodePacked(_myString)) */\n      swap1\n      pop\n        /* \"contracts/SampleString.sol\":277:454  function compareStrings(string memory _myString) public view returns(bool){... */\n      swap2\n      swap1\n      pop\n      jump\t// out\n        /* \"contracts/SampleString.sol\":133:169  bytes public myBytes = \"Hello World\" */\n    tag_35:\n      0x01\n      dup1\n      sload\n      tag_60\n      swap1\n      tag_50\n      jump\t// in\n    tag_60:\n      dup1\n      0x1f\n      add\n      0x20\n      dup1\n      swap2\n      div\n      mul\n      0x20\n      add\n      mload(0x40)\n      swap1\n      dup2\n      add\n      0x40\n      mstore\n      dup1\n      swap3\n      swap2\n      swap1\n      dup2\n      dup2\n      mstore\n      0x20\n      add\n      dup3\n      dup1\n      sload\n      tag_61\n      swap1\n      tag_50\n      jump\t// in\n    tag_61:\n      dup1\n      iszero\n      tag_62\n      jumpi\n      dup1\n      0x1f\n      lt\n      tag_63\n      jumpi\n      0x0100\n      dup1\n      dup4\n      sload\n      div\n      mul\n      dup4\n      mstore\n      swap2\n      0x20\n      add\n      swap2\n      jump(tag_62)\n    tag_63:\n      dup3\n      add\n      swap2\n      swap1\n      0x00\n      mstore\n      keccak256(0x00, 0x20)\n      swap1\n    tag_64:\n      dup2\n      sload\n      dup2\n      mstore\n      swap1\n      0x01\n      add\n      swap1\n      0x20\n      add\n      dup1\n      dup4\n      gt\n      tag_64\n      jumpi\n      dup3\n      swap1\n      sub\n      0x1f\n      and\n      dup3\n      add\n      swap2\n    tag_62:\n      pop\n      pop\n      pop\n      pop\n      pop\n      dup2\n      jump\t// out\n        /* \"contracts/SampleString.sol\":178:269  function setMyString(string memory _myString) public{... */\n    tag_40:\n        /* \"contracts/SampleString.sol\":252:261  _myString */\n      dup1\n        /* \"contracts/SampleString.sol\":241:249  myString */\n      0x00\n        /* \"contracts/SampleString.sol\":241:261  myString = _myString */\n      swap1\n      dup2\n      tag_66\n      swap2\n      swap1\n      tag_67\n      jump\t// in\n    tag_66:\n      pop\n        /* \"contracts/SampleString.sol\":178:269  function setMyString(string memory _myString) public{... */\n      pop\n      jump\t// out\n        /* \"contracts/SampleString.sol\":639:737  function setSomeAddress(address _someAddress) public {... */\n    tag_44:\n        /* \"contracts/SampleString.sol\":717:729  _someAddress */\n      dup1\n        /* \"contracts/SampleString.sol\":703:714  someAddress */\n      0x03\n      0x00\n        /* \"contracts/SampleString.sol\":703:729  someAddress = _someAddress */\n      0x0100\n      exp\n      dup2\n      sload\n      dup2\n      0xffffffffffffffffffffffffffffffffffffffff\n      mul\n      not\n      and\n      swap1\n      dup4\n      0xffffffffffffffffffffffffffffffffffffffff\n      and\n      mul\n      or\n      swap1\n      sstore\n      pop\n        /* \"contracts/SampleString.sol\":639:737  function setSomeAddress(address _someAddress) public {... */\n      pop\n      jump\t// out\n        /* \"contracts/SampleString.sol\":747:846  function getaddressbalance() public view returns(uint){... */\n    tag_46:\n        /* \"contracts/SampleString.sol\":796:800  uint */\n      0x00\n        /* \"contracts/SampleString.sol\":819:830  someAddress */\n      0x03\n      0x00\n      swap1\n      sload\n      swap1\n      0x0100\n      exp\n      swap1\n      div\n      0xffffffffffffffffffffffffffffffffffffffff\n      and\n        /* \"contracts/SampleString.sol\":819:838  someAddress.balance */\n      0xffffffffffffffffffffffffffffffffffffffff\n      and\n      balance\n        /* \"contracts/SampleString.sol\":812:838  return someAddress.balance */\n      swap1\n      pop\n        /* \"contracts/SampleString.sol\":747:846  function getaddressbalance() public view returns(uint){... */\n      swap1\n      jump\t// out\n        /* \"#utility.yul\":7:133   */\n    tag_70:\n        /* \"#utility.yul\":44:51   */\n      0x00\n        /* \"#utility.yul\":84:126   */\n      0xffffffffffffffffffffffffffffffffffffffff\n        /* \"#utility.yul\":77:82   */\n      dup3\n        /* \"#utility.yul\":73:127   */\n      and\n        /* \"#utility.yul\":62:127   */\n      swap1\n      pop\n        /* \"#utility.yul\":7:133   */\n      swap2\n      swap1\n      pop\n      jump\t// out\n        /* \"#utility.yul\":139:235   */\n    tag_71:\n        /* \"#utility.yul\":176:183   */\n      0x00\n        /* \"#utility.yul\":205:229   */\n      tag_121\n        /* \"#utility.yul\":223:228   */\n      dup3\n        /* \"#utility.yul\":205:229   */\n      tag_70\n      jump\t// in\n    tag_121:\n        /* \"#utility.yul\":194:229   */\n      swap1\n      pop\n        /* \"#utility.yul\":139:235   */\n      swap2\n      swap1\n      pop\n      jump\t// out\n        /* \"#utility.yul\":241:359   */\n    tag_72:\n        /* \"#utility.yul\":328:352   */\n      tag_123\n        /* \"#utility.yul\":346:351   */\n      dup2\n        /* \"#utility.yul\":328:352   */\n      tag_71\n      jump\t// in\n    tag_123:\n        /* \"#utility.yul\":323:326   */\n      dup3\n        /* \"#utility.yul\":316:353   */\n      mstore\n        /* \"#utility.yul\":241:359   */\n      pop\n      pop\n      jump\t// out\n        /* \"#utility.yul\":365:587   */\n    tag_16:\n        /* \"#utility.yul\":458:462   */\n      0x00\n        /* \"#utility.yul\":496:498   */\n      0x20\n        /* \"#utility.yul\":485:494   */\n      dup3\n        /* \"#utility.yul\":481:499   */\n      add\n        /* \"#utility.yul\":473:499   */\n      swap1\n      pop\n        /* \"#utility.yul\":509:580   */\n      tag_125\n        /* \"#utility.yul\":577:578   */\n      0x00\n        /* \"#utility.yul\":566:575   */\n      dup4\n        /* \"#utility.yul\":562:579   */\n      add\n        /* \"#utility.yul\":553:559   */\n      dup5\n        /* \"#utility.yul\":509:580   */\n      tag_72\n      jump\t// in\n    tag_125:\n        /* \"#utility.yul\":365:587   */\n      swap3\n      swap2\n      pop\n      pop\n      jump\t// out\n        /* \"#utility.yul\":593:670   */\n    tag_73:\n        /* \"#utility.yul\":630:637   */\n      0x00\n        /* \"#utility.yul\":659:664   */\n      dup2\n        /* \"#utility.yul\":648:664   */\n      swap1\n      pop\n        /* \"#utility.yul\":593:670   */\n      swap2\n      swap1\n      pop\n      jump\t// out\n        /* \"#utility.yul\":676:794   */\n    tag_74:\n        /* \"#utility.yul\":763:787   */\n      tag_128\n        /* \"#utility.yul\":781:786   */\n      dup2\n        /* \"#utility.yul\":763:787   */\n      tag_73\n      jump\t// in\n    tag_128:\n        /* \"#utility.yul\":758:761   */\n      dup3\n        /* \"#utility.yul\":751:788   */\n      mstore\n        /* \"#utility.yul\":676:794   */\n      pop\n      pop\n      jump\t// out\n        /* \"#utility.yul\":800:1022   */\n    tag_20:\n        /* \"#utility.yul\":893:897   */\n      0x00\n        /* \"#utility.yul\":931:933   */\n      0x20\n        /* \"#utility.yul\":920:929   */\n      dup3\n        /* \"#utility.yul\":916:934   */\n      add\n        /* \"#utility.yul\":908:934   */\n      swap1\n      pop\n        /* \"#utility.yul\":944:1015   */\n      tag_130\n        /* \"#utility.yul\":1012:1013   */\n      0x00\n        /* \"#utility.yul\":1001:1010   */\n      dup4\n        /* \"#utility.yul\":997:1014   */\n      add\n        /* \"#utility.yul\":988:994   */\n      dup5\n        /* \"#utility.yul\":944:1015   */\n      tag_74\n      jump\t// in\n    tag_130:\n        /* \"#utility.yul\":800:1022   */\n      swap3\n      swap2\n      pop\n      pop\n      jump\t// out\n        /* \"#utility.yul\":1028:1103   */\n    tag_75:\n        /* \"#utility.yul\":1061:1067   */\n      0x00\n        /* \"#utility.yul\":1094:1096   */\n      0x40\n        /* \"#utility.yul\":1088:1097   */\n      mload\n        /* \"#utility.yul\":1078:1097   */\n      swap1\n      pop\n        /* \"#utility.yul\":1028:1103   */\n      swap1\n      jump\t// out\n        /* \"#utility.yul\":1109:1226   */\n    tag_76:\n        /* \"#utility.yul\":1218:1219   */\n      0x00\n        /* \"#utility.yul\":1215:1216   */\n      0x00\n        /* \"#utility.yul\":1208:1220   */\n      revert\n        /* \"#utility.yul\":1232:1349   */\n    tag_77:\n        /* \"#utility.yul\":1341:1342   */\n      0x00\n        /* \"#utility.yul\":1338:1339   */\n      0x00\n        /* \"#utility.yul\":1331:1343   */\n      revert\n        /* \"#utility.yul\":1355:1472   */\n    tag_78:\n        /* \"#utility.yul\":1464:1465   */\n      0x00\n        /* \"#utility.yul\":1461:1462   */\n      0x00\n        /* \"#utility.yul\":1454:1466   */\n      revert\n        /* \"#utility.yul\":1478:1595   */\n    tag_79:\n        /* \"#utility.yul\":1587:1588   */\n      0x00\n        /* \"#utility.yul\":1584:1585   */\n      0x00\n        /* \"#utility.yul\":1577:1589   */\n      revert\n        /* \"#utility.yul\":1601:1703   */\n    tag_80:\n        /* \"#utility.yul\":1642:1648   */\n      0x00\n        /* \"#utility.yul\":1693:1695   */\n      0x1f\n        /* \"#utility.yul\":1689:1696   */\n      not\n        /* \"#utility.yul\":1684:1686   */\n      0x1f\n        /* \"#utility.yul\":1677:1682   */\n      dup4\n        /* \"#utility.yul\":1673:1687   */\n      add\n        /* \"#utility.yul\":1669:1697   */\n      and\n        /* \"#utility.yul\":1659:1697   */\n      swap1\n      pop\n        /* \"#utility.yul\":1601:1703   */\n      swap2\n      swap1\n      pop\n      jump\t// out\n        /* \"#utility.yul\":1709:1889   */\n    tag_81:\n        /* \"#utility.yul\":1757:1834   */\n      0x4e487b7100000000000000000000000000000000000000000000000000000000\n        /* \"#utility.yul\":1754:1755   */\n      0x00\n        /* \"#utility.yul\":1747:1835   */\n      mstore\n        /* \"#utility.yul\":1854:1858   */\n      0x41\n        /* \"#utility.yul\":1851:1852   */\n      0x04\n        /* \"#utility.yul\":1844:1859   */\n      mstore\n        /* \"#utility.yul\":1878:1882   */\n      0x24\n        /* \"#utility.yul\":1875:1876   */\n      0x00\n        /* \"#utility.yul\":1868:1883   */\n      revert\n        /* \"#utility.yul\":1895:2176   */\n    tag_82:\n        /* \"#utility.yul\":1978:2005   */\n      tag_139\n        /* \"#utility.yul\":2000:2004   */\n      dup3\n        /* \"#utility.yul\":1978:2005   */\n      tag_80\n      jump\t// in\n    tag_139:\n        /* \"#utility.yul\":1970:1976   */\n      dup2\n        /* \"#utility.yul\":1966:2006   */\n      add\n        /* \"#utility.yul\":2108:2114   */\n      dup2\n        /* \"#utility.yul\":2096:2106   */\n      dup2\n        /* \"#utility.yul\":2093:2115   */\n      lt\n        /* \"#utility.yul\":2072:2090   */\n      0xffffffffffffffff\n        /* \"#utility.yul\":2060:2070   */\n      dup3\n        /* \"#utility.yul\":2057:2091   */\n      gt\n        /* \"#utility.yul\":2054:2116   */\n      or\n        /* \"#utility.yul\":2051:2139   */\n      iszero\n      tag_140\n      jumpi\n        /* \"#utility.yul\":2119:2137   */\n      tag_141\n      tag_81\n      jump\t// in\n    tag_141:\n        /* \"#utility.yul\":2051:2139   */\n    tag_140:\n        /* \"#utility.yul\":2159:2169   */\n      dup1\n        /* \"#utility.yul\":2155:2157   */\n      0x40\n        /* \"#utility.yul\":2148:2170   */\n      mstore\n        /* \"#utility.yul\":1938:2176   */\n      pop\n        /* \"#utility.yul\":1895:2176   */\n      pop\n      pop\n      jump\t// out\n        /* \"#utility.yul\":2182:2311   */\n    tag_83:\n        /* \"#utility.yul\":2216:2222   */\n      0x00\n        /* \"#utility.yul\":2243:2263   */\n      tag_143\n      tag_75\n      jump\t// in\n    tag_143:\n        /* \"#utility.yul\":2233:2263   */\n      swap1\n      pop\n        /* \"#utility.yul\":2272:2305   */\n      tag_144\n        /* \"#utility.yul\":2300:2304   */\n      dup3\n        /* \"#utility.yul\":2292:2298   */\n      dup3\n        /* \"#utility.yul\":2272:2305   */\n      tag_82\n      jump\t// in\n    tag_144:\n        /* \"#utility.yul\":2182:2311   */\n      swap2\n      swap1\n      pop\n      jump\t// out\n        /* \"#utility.yul\":2317:2625   */\n    tag_84:\n        /* \"#utility.yul\":2379:2383   */\n      0x00\n        /* \"#utility.yul\":2469:2487   */\n      0xffffffffffffffff\n        /* \"#utility.yul\":2461:2467   */\n      dup3\n        /* \"#utility.yul\":2458:2488   */\n      gt\n        /* \"#utility.yul\":2455:2511   */\n      iszero\n      tag_146\n      jumpi\n        /* \"#utility.yul\":2491:2509   */\n      tag_147\n      tag_81\n      jump\t// in\n    tag_147:\n        /* \"#utility.yul\":2455:2511   */\n    tag_146:\n        /* \"#utility.yul\":2529:2558   */\n      tag_148\n        /* \"#utility.yul\":2551:2557   */\n      dup3\n        /* \"#utility.yul\":2529:2558   */\n      tag_80\n      jump\t// in\n    tag_148:\n        /* \"#utility.yul\":2521:2558   */\n      swap1\n      pop\n        /* \"#utility.yul\":2613:2617   */\n      0x20\n        /* \"#utility.yul\":2607:2611   */\n      dup2\n        /* \"#utility.yul\":2603:2618   */\n      add\n        /* \"#utility.yul\":2595:2618   */\n      swap1\n      pop\n        /* \"#utility.yul\":2317:2625   */\n      swap2\n      swap1\n      pop\n      jump\t// out\n        /* \"#utility.yul\":2631:2779   */\n    tag_85:\n        /* \"#utility.yul\":2729:2735   */\n      dup3\n        /* \"#utility.yul\":2724:2727   */\n      dup2\n        /* \"#utility.yul\":2719:2722   */\n      dup4\n        /* \"#utility.yul\":2706:2736   */\n      calldatacopy\n        /* \"#utility.yul\":2770:2771   */\n      0x00\n        /* \"#utility.yul\":2761:2767   */\n      dup4\n        /* \"#utility.yul\":2756:2759   */\n      dup4\n        /* \"#utility.yul\":2752:2768   */\n      add\n        /* \"#utility.yul\":2745:2772   */\n      mstore\n        /* \"#utility.yul\":2631:2779   */\n      pop\n      pop\n      pop\n      jump\t// out\n        /* \"#utility.yul\":2785:3210   */\n    tag_86:\n        /* \"#utility.yul\":2863:2868   */\n      0x00\n        /* \"#utility.yul\":2888:2954   */\n      tag_151\n        /* \"#utility.yul\":2904:2953   */\n      tag_152\n        /* \"#utility.yul\":2946:2952   */\n      dup5\n        /* \"#utility.yul\":2904:2953   */\n      tag_84\n      jump\t// in\n    tag_152:\n        /* \"#utility.yul\":2888:2954   */\n      tag_83\n      jump\t// in\n    tag_151:\n        /* \"#utility.yul\":2879:2954   */\n      swap1\n      pop\n        /* \"#utility.yul\":2977:2983   */\n      dup3\n        /* \"#utility.yul\":2970:2975   */\n      dup2\n        /* \"#utility.yul\":2963:2984   */\n      mstore\n        /* \"#utility.yul\":3015:3019   */\n      0x20\n        /* \"#utility.yul\":3008:3013   */\n      dup2\n        /* \"#utility.yul\":3004:3020   */\n      add\n        /* \"#utility.yul\":3053:3056   */\n      dup5\n        /* \"#utility.yul\":3044:3050   */\n      dup5\n        /* \"#utility.yul\":3039:3042   */\n      dup5\n        /* \"#utility.yul\":3035:3051   */\n      add\n        /* \"#utility.yul\":3032:3057   */\n      gt\n        /* \"#utility.yul\":3029:3141   */\n      iszero\n      tag_153\n      jumpi\n        /* \"#utility.yul\":3060:3139   */\n      tag_154\n      tag_79\n      jump\t// in\n    tag_154:\n        /* \"#utility.yul\":3029:3141   */\n    tag_153:\n        /* \"#utility.yul\":3150:3204   */\n      tag_155\n        /* \"#utility.yul\":3197:3203   */\n      dup5\n        /* \"#utility.yul\":3192:3195   */\n      dup3\n        /* \"#utility.yul\":3187:3190   */\n      dup6\n        /* \"#utility.yul\":3150:3204   */\n      tag_85\n      jump\t// in\n    tag_155:\n        /* \"#utility.yul\":2869:3210   */\n      pop\n        /* \"#utility.yul\":2785:3210   */\n      swap4\n      swap3\n      pop\n      pop\n      pop\n      jump\t// out\n        /* \"#utility.yul\":3230:3570   */\n    tag_87:\n        /* \"#utility.yul\":3286:3291   */\n      0x00\n        /* \"#utility.yul\":3335:3338   */\n      dup3\n        /* \"#utility.yul\":3328:3332   */\n      0x1f\n        /* \"#utility.yul\":3320:3326   */\n      dup4\n        /* \"#utility.yul\":3316:3333   */\n      add\n        /* \"#utility.yul\":3312:3339   */\n      slt\n        /* \"#utility.yul\":3302:3424   */\n      tag_157\n      jumpi\n        /* \"#utility.yul\":3343:3422   */\n      tag_158\n      tag_78\n      jump\t// in\n    tag_158:\n        /* \"#utility.yul\":3302:3424   */\n    tag_157:\n        /* \"#utility.yul\":3460:3466   */\n      dup2\n        /* \"#utility.yul\":3447:3467   */\n      calldataload\n        /* \"#utility.yul\":3485:3564   */\n      tag_159\n        /* \"#utility.yul\":3560:3563   */\n      dup5\n        /* \"#utility.yul\":3552:3558   */\n      dup3\n        /* \"#utility.yul\":3545:3549   */\n      0x20\n        /* \"#utility.yul\":3537:3543   */\n      dup7\n        /* \"#utility.yul\":3533:3550   */\n      add\n        /* \"#utility.yul\":3485:3564   */\n      tag_86\n      jump\t// in\n    tag_159:\n        /* \"#utility.yul\":3476:3564   */\n      swap2\n      pop\n        /* \"#utility.yul\":3292:3570   */\n      pop\n        /* \"#utility.yul\":3230:3570   */\n      swap3\n      swap2\n      pop\n      pop\n      jump\t// out\n        /* \"#utility.yul\":3576:4085   */\n    tag_23:\n        /* \"#utility.yul\":3645:3651   */\n      0x00\n        /* \"#utility.yul\":3694:3696   */\n      0x20\n        /* \"#utility.yul\":3682:3691   */\n      dup3\n        /* \"#utility.yul\":3673:3680   */\n      dup5\n        /* \"#utility.yul\":3669:3692   */\n      sub\n        /* \"#utility.yul\":3665:3697   */\n      slt\n        /* \"#utility.yul\":3662:3781   */\n      iszero\n      tag_161\n      jumpi\n        /* \"#utility.yul\":3700:3779   */\n      tag_162\n      tag_76\n      jump\t// in\n    tag_162:\n        /* \"#utility.yul\":3662:3781   */\n    tag_161:\n        /* \"#utility.yul\":3848:3849   */\n      0x00\n        /* \"#utility.yul\":3837:3846   */\n      dup3\n        /* \"#utility.yul\":3833:3850   */\n      add\n        /* \"#utility.yul\":3820:3851   */\n      calldataload\n        /* \"#utility.yul\":3878:3896   */\n      0xffffffffffffffff\n        /* \"#utility.yul\":3870:3876   */\n      dup2\n        /* \"#utility.yul\":3867:3897   */\n      gt\n        /* \"#utility.yul\":3864:3981   */\n      iszero\n      tag_163\n      jumpi\n        /* \"#utility.yul\":3900:3979   */\n      tag_164\n      tag_77\n      jump\t// in\n    tag_164:\n        /* \"#utility.yul\":3864:3981   */\n    tag_163:\n        /* \"#utility.yul\":4005:4068   */\n      tag_165\n        /* \"#utility.yul\":4060:4067   */\n      dup5\n        /* \"#utility.yul\":4051:4057   */\n      dup3\n        /* \"#utility.yul\":4040:4049   */\n      dup6\n        /* \"#utility.yul\":4036:4058   */\n      add\n        /* \"#utility.yul\":4005:4068   */\n      tag_87\n      jump\t// in\n    tag_165:\n        /* \"#utility.yul\":3995:4068   */\n      swap2\n      pop\n        /* \"#utility.yul\":3791:4078   */\n      pop\n        /* \"#utility.yul\":3576:4085   */\n      swap3\n      swap2\n      pop\n      pop\n      jump\t// out\n        /* \"#utility.yul\":4091:4190   */\n    tag_88:\n        /* \"#utility.yul\":4143:4149   */\n      0x00\n        /* \"#utility.yul\":4177:4182   */\n      dup2\n        /* \"#utility.yul\":4171:4183   */\n      mload\n        /* \"#utility.yul\":4161:4183   */\n      swap1\n      pop\n        /* \"#utility.yul\":4091:4190   */\n      swap2\n      swap1\n      pop\n      jump\t// out\n        /* \"#utility.yul\":4196:4365   */\n    tag_89:\n        /* \"#utility.yul\":4280:4291   */\n      0x00\n        /* \"#utility.yul\":4314:4320   */\n      dup3\n        /* \"#utility.yul\":4309:4312   */\n      dup3\n        /* \"#utility.yul\":4302:4321   */\n      mstore\n        /* \"#utility.yul\":4354:4358   */\n      0x20\n        /* \"#utility.yul\":4349:4352   */\n      dup3\n        /* \"#utility.yul\":4345:4359   */\n      add\n        /* \"#utility.yul\":4330:4359   */\n      swap1\n      pop\n        /* \"#utility.yul\":4196:4365   */\n      swap3\n      swap2\n      pop\n      pop\n      jump\t// out\n        /* \"#utility.yul\":4371:4510   */\n    tag_90:\n        /* \"#utility.yul\":4460:4466   */\n      dup3\n        /* \"#utility.yul\":4455:4458   */\n      dup2\n        /* \"#utility.yul\":4450:4453   */\n      dup4\n        /* \"#utility.yul\":4444:4467   */\n      mcopy\n        /* \"#utility.yul\":4501:4502   */\n      0x00\n        /* \"#utility.yul\":4492:4498   */\n      dup4\n        /* \"#utility.yul\":4487:4490   */\n      dup4\n        /* \"#utility.yul\":4483:4499   */\n      add\n        /* \"#utility.yul\":4476:4503   */\n      mstore\n        /* \"#utility.yul\":4371:4510   */\n      pop\n      pop\n      pop\n      jump\t// out\n        /* \"#utility.yul\":4516:4893   */\n    tag_91:\n        /* \"#utility.yul\":4604:4607   */\n      0x00\n        /* \"#utility.yul\":4632:4671   */\n      tag_170\n        /* \"#utility.yul\":4665:4670   */\n      dup3\n        /* \"#utility.yul\":4632:4671   */\n      tag_88\n      jump\t// in\n    tag_170:\n        /* \"#utility.yul\":4687:4758   */\n      tag_171\n        /* \"#utility.yul\":4751:4757   */\n      dup2\n        /* \"#utility.yul\":4746:4749   */\n      dup6\n        /* \"#utility.yul\":4687:4758   */\n      tag_89\n      jump\t// in\n    tag_171:\n        /* \"#utility.yul\":4680:4758   */\n      swap4\n      pop\n        /* \"#utility.yul\":4767:4832   */\n      tag_172\n        /* \"#utility.yul\":4825:4831   */\n      dup2\n        /* \"#utility.yul\":4820:4823   */\n      dup6\n        /* \"#utility.yul\":4813:4817   */\n      0x20\n        /* \"#utility.yul\":4806:4811   */\n      dup7\n        /* \"#utility.yul\":4802:4818   */\n      add\n        /* \"#utility.yul\":4767:4832   */\n      tag_90\n      jump\t// in\n    tag_172:\n        /* \"#utility.yul\":4857:4886   */\n      tag_173\n        /* \"#utility.yul\":4879:4885   */\n      dup2\n        /* \"#utility.yul\":4857:4886   */\n      tag_80\n      jump\t// in\n    tag_173:\n        /* \"#utility.yul\":4852:4855   */\n      dup5\n        /* \"#utility.yul\":4848:4887   */\n      add\n        /* \"#utility.yul\":4841:4887   */\n      swap2\n      pop\n        /* \"#utility.yul\":4608:4893   */\n      pop\n        /* \"#utility.yul\":4516:4893   */\n      swap3\n      swap2\n      pop\n      pop\n      jump\t// out\n        /* \"#utility.yul\":4899:5212   */\n    tag_28:\n        /* \"#utility.yul\":5012:5016   */\n      0x00\n        /* \"#utility.yul\":5050:5052   */\n      0x20\n        /* \"#utility.yul\":5039:5048   */\n      dup3\n        /* \"#utility.yul\":5035:5053   */\n      add\n        /* \"#utility.yul\":5027:5053   */\n      swap1\n      pop\n        /* \"#utility.yul\":5099:5108   */\n      dup2\n        /* \"#utility.yul\":5093:5097   */\n      dup2\n        /* \"#utility.yul\":5089:5109   */\n      sub\n        /* \"#utility.yul\":5085:5086   */\n      0x00\n        /* \"#utility.yul\":5074:5083   */\n      dup4\n        /* \"#utility.yul\":5070:5087   */\n      add\n        /* \"#utility.yul\":5063:5110   */\n      mstore\n        /* \"#utility.yul\":5127:5205   */\n      tag_175\n        /* \"#utility.yul\":5200:5204   */\n      dup2\n        /* \"#utility.yul\":5191:5197   */\n      dup5\n        /* \"#utility.yul\":5127:5205   */\n      tag_91\n      jump\t// in\n    tag_175:\n        /* \"#utility.yul\":5119:5205   */\n      swap1\n      pop\n        /* \"#utility.yul\":4899:5212   */\n      swap3\n      swap2\n      pop\n      pop\n      jump\t// out\n        /* \"#utility.yul\":5218:5308   */\n    tag_92:\n        /* \"#utility.yul\":5252:5259   */\n      0x00\n        /* \"#utility.yul\":5295:5300   */\n      dup2\n        /* \"#utility.yul\":5288:5301   */\n      iszero\n        /* \"#utility.yul\":5281:5302   */\n      iszero\n        /* \"#utility.yul\":5270:5302   */\n      swap1\n      pop\n        /* \"#utility.yul\":5218:5308   */\n      swap2\n      swap1\n      pop\n      jump\t// out\n        /* \"#utility.yul\":5314:5423   */\n    tag_93:\n        /* \"#utility.yul\":5395:5416   */\n      tag_178\n        /* \"#utility.yul\":5410:5415   */\n      dup2\n        /* \"#utility.yul\":5395:5416   */\n      tag_92\n      jump\t// in\n    tag_178:\n        /* \"#utility.yul\":5390:5393   */\n      dup3\n        /* \"#utility.yul\":5383:5417   */\n      mstore\n        /* \"#utility.yul\":5314:5423   */\n      pop\n      pop\n      jump\t// out\n        /* \"#utility.yul\":5429:5639   */\n    tag_33:\n        /* \"#utility.yul\":5516:5520   */\n      0x00\n        /* \"#utility.yul\":5554:5556   */\n      0x20\n        /* \"#utility.yul\":5543:5552   */\n      dup3\n        /* \"#utility.yul\":5539:5557   */\n      add\n        /* \"#utility.yul\":5531:5557   */\n      swap1\n      pop\n        /* \"#utility.yul\":5567:5632   */\n      tag_180\n        /* \"#utility.yul\":5629:5630   */\n      0x00\n        /* \"#utility.yul\":5618:5627   */\n      dup4\n        /* \"#utility.yul\":5614:5631   */\n      add\n        /* \"#utility.yul\":5605:5611   */\n      dup5\n        /* \"#utility.yul\":5567:5632   */\n      tag_93\n      jump\t// in\n    tag_180:\n        /* \"#utility.yul\":5429:5639   */\n      swap3\n      swap2\n      pop\n      pop\n      jump\t// out\n        /* \"#utility.yul\":5645:5743   */\n    tag_94:\n        /* \"#utility.yul\":5696:5702   */\n      0x00\n        /* \"#utility.yul\":5730:5735   */\n      dup2\n        /* \"#utility.yul\":5724:5736   */\n      mload\n        /* \"#utility.yul\":5714:5736   */\n      swap1\n      pop\n        /* \"#utility.yul\":5645:5743   */\n      swap2\n      swap1\n      pop\n      jump\t// out\n        /* \"#utility.yul\":5749:5917   */\n    tag_95:\n        /* \"#utility.yul\":5832:5843   */\n      0x00\n        /* \"#utility.yul\":5866:5872   */\n      dup3\n        /* \"#utility.yul\":5861:5864   */\n      dup3\n        /* \"#utility.yul\":5854:5873   */\n      mstore\n        /* \"#utility.yul\":5906:5910   */\n      0x20\n        /* \"#utility.yul\":5901:5904   */\n      dup3\n        /* \"#utility.yul\":5897:5911   */\n      add\n        /* \"#utility.yul\":5882:5911   */\n      swap1\n      pop\n        /* \"#utility.yul\":5749:5917   */\n      swap3\n      swap2\n      pop\n      pop\n      jump\t// out\n        /* \"#utility.yul\":5923:6296   */\n    tag_96:\n        /* \"#utility.yul\":6009:6012   */\n      0x00\n        /* \"#utility.yul\":6037:6075   */\n      tag_184\n        /* \"#utility.yul\":6069:6074   */\n      dup3\n        /* \"#utility.yul\":6037:6075   */\n      tag_94\n      jump\t// in\n    tag_184:\n        /* \"#utility.yul\":6091:6161   */\n      tag_185\n        /* \"#utility.yul\":6154:6160   */\n      dup2\n        /* \"#utility.yul\":6149:6152   */\n      dup6\n        /* \"#utility.yul\":6091:6161   */\n      tag_95\n      jump\t// in\n    tag_185:\n        /* \"#utility.yul\":6084:6161   */\n      swap4\n      pop\n        /* \"#utility.yul\":6170:6235   */\n      tag_186\n        /* \"#utility.yul\":6228:6234   */\n      dup2\n        /* \"#utility.yul\":6223:6226   */\n      dup6\n        /* \"#utility.yul\":6216:6220   */\n      0x20\n        /* \"#utility.yul\":6209:6214   */\n      dup7\n        /* \"#utility.yul\":6205:6221   */\n      add\n        /* \"#utility.yul\":6170:6235   */\n      tag_90\n      jump\t// in\n    tag_186:\n        /* \"#utility.yul\":6260:6289   */\n      tag_187\n        /* \"#utility.yul\":6282:6288   */\n      dup2\n        /* \"#utility.yul\":6260:6289   */\n      tag_80\n      jump\t// in\n    tag_187:\n        /* \"#utility.yul\":6255:6258   */\n      dup5\n        /* \"#utility.yul\":6251:6290   */\n      add\n        /* \"#utility.yul\":6244:6290   */\n      swap2\n      pop\n        /* \"#utility.yul\":6013:6296   */\n      pop\n        /* \"#utility.yul\":5923:6296   */\n      swap3\n      swap2\n      pop\n      pop\n      jump\t// out\n        /* \"#utility.yul\":6302:6611   */\n    tag_37:\n        /* \"#utility.yul\":6413:6417   */\n      0x00\n        /* \"#utility.yul\":6451:6453   */\n      0x20\n        /* \"#utility.yul\":6440:6449   */\n      dup3\n        /* \"#utility.yul\":6436:6454   */\n      add\n        /* \"#utility.yul\":6428:6454   */\n      swap1\n      pop\n        /* \"#utility.yul\":6500:6509   */\n      dup2\n        /* \"#utility.yul\":6494:6498   */\n      dup2\n        /* \"#utility.yul\":6490:6510   */\n      sub\n        /* \"#utility.yul\":6486:6487   */\n      0x00\n        /* \"#utility.yul\":6475:6484   */\n      dup4\n        /* \"#utility.yul\":6471:6488   */\n      add\n        /* \"#utility.yul\":6464:6511   */\n      mstore\n        /* \"#utility.yul\":6528:6604   */\n      tag_189\n        /* \"#utility.yul\":6599:6603   */\n      dup2\n        /* \"#utility.yul\":6590:6596   */\n      dup5\n        /* \"#utility.yul\":6528:6604   */\n      tag_96\n      jump\t// in\n    tag_189:\n        /* \"#utility.yul\":6520:6604   */\n      swap1\n      pop\n        /* \"#utility.yul\":6302:6611   */\n      swap3\n      swap2\n      pop\n      pop\n      jump\t// out\n        /* \"#utility.yul\":6617:6739   */\n    tag_97:\n        /* \"#utility.yul\":6690:6714   */\n      tag_191\n        /* \"#utility.yul\":6708:6713   */\n      dup2\n        /* \"#utility.yul\":6690:6714   */\n      tag_71\n      jump\t// in\n    tag_191:\n        /* \"#utility.yul\":6683:6688   */\n      dup2\n        /* \"#utility.yul\":6680:6715   */\n      eq\n        /* \"#utility.yul\":6670:6733   */\n      tag_192\n      jumpi\n        /* \"#utility.yul\":6729:6730   */\n      0x00\n        /* \"#utility.yul\":6726:6727   */\n      0x00\n        /* \"#utility.yul\":6719:6731   */\n      revert\n        /* \"#utility.yul\":6670:6733   */\n    tag_192:\n        /* \"#utility.yul\":6617:6739   */\n      pop\n      jump\t// out\n        /* \"#utility.yul\":6745:6884   */\n    tag_98:\n        /* \"#utility.yul\":6791:6796   */\n      0x00\n        /* \"#utility.yul\":6829:6835   */\n      dup2\n        /* \"#utility.yul\":6816:6836   */\n      calldataload\n        /* \"#utility.yul\":6807:6836   */\n      swap1\n      pop\n        /* \"#utility.yul\":6845:6878   */\n      tag_194\n        /* \"#utility.yul\":6872:6877   */\n      dup2\n        /* \"#utility.yul\":6845:6878   */\n      tag_97\n      jump\t// in\n    tag_194:\n        /* \"#utility.yul\":6745:6884   */\n      swap3\n      swap2\n      pop\n      pop\n      jump\t// out\n        /* \"#utility.yul\":6890:7219   */\n    tag_43:\n        /* \"#utility.yul\":6949:6955   */\n      0x00\n        /* \"#utility.yul\":6998:7000   */\n      0x20\n        /* \"#utility.yul\":6986:6995   */\n      dup3\n        /* \"#utility.yul\":6977:6984   */\n      dup5\n        /* \"#utility.yul\":6973:6996   */\n      sub\n        /* \"#utility.yul\":6969:7001   */\n      slt\n        /* \"#utility.yul\":6966:7085   */\n      iszero\n      tag_196\n      jumpi\n        /* \"#utility.yul\":7004:7083   */\n      tag_197\n      tag_76\n      jump\t// in\n    tag_197:\n        /* \"#utility.yul\":6966:7085   */\n    tag_196:\n        /* \"#utility.yul\":7124:7125   */\n      0x00\n        /* \"#utility.yul\":7149:7202   */\n      tag_198\n        /* \"#utility.yul\":7194:7201   */\n      dup5\n        /* \"#utility.yul\":7185:7191   */\n      dup3\n        /* \"#utility.yul\":7174:7183   */\n      dup6\n        /* \"#utility.yul\":7170:7192   */\n      add\n        /* \"#utility.yul\":7149:7202   */\n      tag_98\n      jump\t// in\n    tag_198:\n        /* \"#utility.yul\":7139:7202   */\n      swap2\n      pop\n        /* \"#utility.yul\":7095:7212   */\n      pop\n        /* \"#utility.yul\":6890:7219   */\n      swap3\n      swap2\n      pop\n      pop\n      jump\t// out\n        /* \"#utility.yul\":7225:7405   */\n    tag_99:\n        /* \"#utility.yul\":7273:7350   */\n      0x4e487b7100000000000000000000000000000000000000000000000000000000\n        /* \"#utility.yul\":7270:7271   */\n      0x00\n        /* \"#utility.yul\":7263:7351   */\n      mstore\n        /* \"#utility.yul\":7370:7374   */\n      0x22\n        /* \"#utility.yul\":7367:7368   */\n      0x04\n        /* \"#utility.yul\":7360:7375   */\n      mstore\n        /* \"#utility.yul\":7394:7398   */\n      0x24\n        /* \"#utility.yul\":7391:7392   */\n      0x00\n        /* \"#utility.yul\":7384:7399   */\n      revert\n        /* \"#utility.yul\":7411:7731   */\n    tag_50:\n        /* \"#utility.yul\":7455:7461   */\n      0x00\n        /* \"#utility.yul\":7492:7493   */\n      0x02\n        /* \"#utility.yul\":7486:7490   */\n      dup3\n        /* \"#utility.yul\":7482:7494   */\n      div\n        /* \"#utility.yul\":7472:7494   */\n      swap1\n      pop\n        /* \"#utility.yul\":7539:7540   */\n      0x01\n        /* \"#utility.yul\":7533:7537   */\n      dup3\n        /* \"#utility.yul\":7529:7541   */\n      and\n        /* \"#utility.yul\":7560:7578   */\n      dup1\n        /* \"#utility.yul\":7550:7631   */\n      tag_201\n      jumpi\n        /* \"#utility.yul\":7616:7620   */\n      0x7f\n        /* \"#utility.yul\":7608:7614   */\n      dup3\n        /* \"#utility.yul\":7604:7621   */\n      and\n        /* \"#utility.yul\":7594:7621   */\n      swap2\n      pop\n        /* \"#utility.yul\":7550:7631   */\n    tag_201:\n        /* \"#utility.yul\":7678:7680   */\n      0x20\n        /* \"#utility.yul\":7670:7676   */\n      dup3\n        /* \"#utility.yul\":7667:7681   */\n      lt\n        /* \"#utility.yul\":7647:7665   */\n      dup2\n        /* \"#utility.yul\":7644:7682   */\n      sub\n        /* \"#utility.yul\":7641:7725   */\n      tag_202\n      jumpi\n        /* \"#utility.yul\":7697:7715   */\n      tag_203\n      tag_99\n      jump\t// in\n    tag_203:\n        /* \"#utility.yul\":7641:7725   */\n    tag_202:\n        /* \"#utility.yul\":7462:7731   */\n      pop\n        /* \"#utility.yul\":7411:7731   */\n      swap2\n      swap1\n      pop\n      jump\t// out\n        /* \"#utility.yul\":7737:7885   */\n    tag_100:\n        /* \"#utility.yul\":7839:7850   */\n      0x00\n        /* \"#utility.yul\":7876:7879   */\n      dup2\n        /* \"#utility.yul\":7861:7879   */\n      swap1\n      pop\n        /* \"#utility.yul\":7737:7885   */\n      swap3\n      swap2\n      pop\n      pop\n      jump\t// out\n        /* \"#utility.yul\":7891:8281   */\n    tag_101:\n        /* \"#utility.yul\":7997:8000   */\n      0x00\n        /* \"#utility.yul\":8025:8064   */\n      tag_206\n        /* \"#utility.yul\":8058:8063   */\n      dup3\n        /* \"#utility.yul\":8025:8064   */\n      tag_88\n      jump\t// in\n    tag_206:\n        /* \"#utility.yul\":8080:8169   */\n      tag_207\n        /* \"#utility.yul\":8162:8168   */\n      dup2\n        /* \"#utility.yul\":8157:8160   */\n      dup6\n        /* \"#utility.yul\":8080:8169   */\n      tag_100\n      jump\t// in\n    tag_207:\n        /* \"#utility.yul\":8073:8169   */\n      swap4\n      pop\n        /* \"#utility.yul\":8178:8243   */\n      tag_208\n        /* \"#utility.yul\":8236:8242   */\n      dup2\n        /* \"#utility.yul\":8231:8234   */\n      dup6\n        /* \"#utility.yul\":8224:8228   */\n      0x20\n        /* \"#utility.yul\":8217:8222   */\n      dup7\n        /* \"#utility.yul\":8213:8229   */\n      add\n        /* \"#utility.yul\":8178:8243   */\n      tag_90\n      jump\t// in\n    tag_208:\n        /* \"#utility.yul\":8268:8274   */\n      dup1\n        /* \"#utility.yul\":8263:8266   */\n      dup5\n        /* \"#utility.yul\":8259:8275   */\n      add\n        /* \"#utility.yul\":8252:8275   */\n      swap2\n      pop\n        /* \"#utility.yul\":8001:8281   */\n      pop\n        /* \"#utility.yul\":7891:8281   */\n      swap3\n      swap2\n      pop\n      pop\n      jump\t// out\n        /* \"#utility.yul\":8287:8562   */\n    tag_57:\n        /* \"#utility.yul\":8419:8422   */\n      0x00\n        /* \"#utility.yul\":8441:8536   */\n      tag_210\n        /* \"#utility.yul\":8532:8535   */\n      dup3\n        /* \"#utility.yul\":8523:8529   */\n      dup5\n        /* \"#utility.yul\":8441:8536   */\n      tag_101\n      jump\t// in\n    tag_210:\n        /* \"#utility.yul\":8434:8536   */\n      swap2\n      pop\n        /* \"#utility.yul\":8553:8556   */\n      dup2\n        /* \"#utility.yul\":8546:8556   */\n      swap1\n      pop\n        /* \"#utility.yul\":8287:8562   */\n      swap3\n      swap2\n      pop\n      pop\n      jump\t// out\n        /* \"#utility.yul\":8568:8709   */\n    tag_102:\n        /* \"#utility.yul\":8617:8621   */\n      0x00\n        /* \"#utility.yul\":8640:8643   */\n      dup2\n        /* \"#utility.yul\":8632:8643   */\n      swap1\n      pop\n        /* \"#utility.yul\":8663:8666   */\n      dup2\n        /* \"#utility.yul\":8660:8661   */\n      0x00\n        /* \"#utility.yul\":8653:8667   */\n      mstore\n        /* \"#utility.yul\":8697:8701   */\n      0x20\n        /* \"#utility.yul\":8694:8695   */\n      0x00\n        /* \"#utility.yul\":8684:8702   */\n      keccak256\n        /* \"#utility.yul\":8676:8702   */\n      swap1\n      pop\n        /* \"#utility.yul\":8568:8709   */\n      swap2\n      swap1\n      pop\n      jump\t// out\n        /* \"#utility.yul\":8739:9613   */\n    tag_103:\n        /* \"#utility.yul\":8842:8845   */\n      0x00\n        /* \"#utility.yul\":8879:8884   */\n      dup2\n        /* \"#utility.yul\":8873:8885   */\n      sload\n        /* \"#utility.yul\":8908:8944   */\n      tag_213\n        /* \"#utility.yul\":8934:8943   */\n      dup2\n        /* \"#utility.yul\":8908:8944   */\n      tag_50\n      jump\t// in\n    tag_213:\n        /* \"#utility.yul\":8960:9049   */\n      tag_214\n        /* \"#utility.yul\":9042:9048   */\n      dup2\n        /* \"#utility.yul\":9037:9040   */\n      dup7\n        /* \"#utility.yul\":8960:9049   */\n      tag_100\n      jump\t// in\n    tag_214:\n        /* \"#utility.yul\":8953:9049   */\n      swap5\n      pop\n        /* \"#utility.yul\":9080:9081   */\n      0x01\n        /* \"#utility.yul\":9069:9078   */\n      dup3\n        /* \"#utility.yul\":9065:9082   */\n      and\n        /* \"#utility.yul\":9096:9097   */\n      0x00\n        /* \"#utility.yul\":9091:9257   */\n      dup2\n      eq\n      tag_216\n      jumpi\n        /* \"#utility.yul\":9271:9272   */\n      0x01\n        /* \"#utility.yul\":9266:9607   */\n      dup2\n      eq\n      tag_217\n      jumpi\n        /* \"#utility.yul\":9058:9607   */\n      jump(tag_215)\n        /* \"#utility.yul\":9091:9257   */\n    tag_216:\n        /* \"#utility.yul\":9175:9179   */\n      0xff\n        /* \"#utility.yul\":9171:9180   */\n      not\n        /* \"#utility.yul\":9160:9169   */\n      dup4\n        /* \"#utility.yul\":9156:9181   */\n      and\n        /* \"#utility.yul\":9151:9154   */\n      dup7\n        /* \"#utility.yul\":9144:9182   */\n      mstore\n        /* \"#utility.yul\":9237:9243   */\n      dup2\n        /* \"#utility.yul\":9230:9244   */\n      iszero\n        /* \"#utility.yul\":9223:9245   */\n      iszero\n        /* \"#utility.yul\":9215:9221   */\n      dup3\n        /* \"#utility.yul\":9211:9246   */\n      mul\n        /* \"#utility.yul\":9206:9209   */\n      dup7\n        /* \"#utility.yul\":9202:9247   */\n      add\n        /* \"#utility.yul\":9195:9247   */\n      swap4\n      pop\n        /* \"#utility.yul\":9091:9257   */\n      jump(tag_215)\n        /* \"#utility.yul\":9266:9607   */\n    tag_217:\n        /* \"#utility.yul\":9333:9371   */\n      tag_218\n        /* \"#utility.yul\":9365:9370   */\n      dup6\n        /* \"#utility.yul\":9333:9371   */\n      tag_102\n      jump\t// in\n    tag_218:\n        /* \"#utility.yul\":9393:9394   */\n      0x00\n        /* \"#utility.yul\":9407:9561   */\n    tag_219:\n        /* \"#utility.yul\":9421:9427   */\n      dup4\n        /* \"#utility.yul\":9418:9419   */\n      dup2\n        /* \"#utility.yul\":9415:9428   */\n      lt\n        /* \"#utility.yul\":9407:9561   */\n      iszero\n      tag_221\n      jumpi\n        /* \"#utility.yul\":9495:9502   */\n      dup2\n        /* \"#utility.yul\":9489:9503   */\n      sload\n        /* \"#utility.yul\":9485:9486   */\n      dup2\n        /* \"#utility.yul\":9480:9483   */\n      dup10\n        /* \"#utility.yul\":9476:9487   */\n      add\n        /* \"#utility.yul\":9469:9504   */\n      mstore\n        /* \"#utility.yul\":9545:9546   */\n      0x01\n        /* \"#utility.yul\":9536:9543   */\n      dup3\n        /* \"#utility.yul\":9532:9547   */\n      add\n        /* \"#utility.yul\":9521:9547   */\n      swap2\n      pop\n        /* \"#utility.yul\":9443:9447   */\n      0x20\n        /* \"#utility.yul\":9440:9441   */\n      dup2\n        /* \"#utility.yul\":9436:9448   */\n      add\n        /* \"#utility.yul\":9431:9448   */\n      swap1\n      pop\n        /* \"#utility.yul\":9407:9561   */\n      jump(tag_219)\n    tag_221:\n        /* \"#utility.yul\":9590:9596   */\n      dup4\n        /* \"#utility.yul\":9585:9588   */\n      dup9\n        /* \"#utility.yul\":9581:9597   */\n      add\n        /* \"#utility.yul\":9574:9597   */\n      swap6\n      pop\n        /* \"#utility.yul\":9273:9607   */\n      pop\n      pop\n        /* \"#utility.yul\":9058:9607   */\n    tag_215:\n      pop\n        /* \"#utility.yul\":8846:9613   */\n      pop\n      pop\n        /* \"#utility.yul\":8739:9613   */\n      swap3\n      swap2\n      pop\n      pop\n      jump\t// out\n        /* \"#utility.yul\":9619:9888   */\n    tag_59:\n        /* \"#utility.yul\":9748:9751   */\n      0x00\n        /* \"#utility.yul\":9770:9862   */\n      tag_223\n        /* \"#utility.yul\":9858:9861   */\n      dup3\n        /* \"#utility.yul\":9849:9855   */\n      dup5\n        /* \"#utility.yul\":9770:9862   */\n      tag_103\n      jump\t// in\n    tag_223:\n        /* \"#utility.yul\":9763:9862   */\n      swap2\n      pop\n        /* \"#utility.yul\":9879:9882   */\n      dup2\n        /* \"#utility.yul\":9872:9882   */\n      swap1\n      pop\n        /* \"#utility.yul\":9619:9888   */\n      swap3\n      swap2\n      pop\n      pop\n      jump\t// out\n        /* \"#utility.yul\":9894:9987   */\n    tag_104:\n        /* \"#utility.yul\":9931:9937   */\n      0x00\n        /* \"#utility.yul\":9978:9980   */\n      0x20\n        /* \"#utility.yul\":9973:9975   */\n      0x1f\n        /* \"#utility.yul\":9966:9971   */\n      dup4\n        /* \"#utility.yul\":9962:9976   */\n      add\n        /* \"#utility.yul\":9958:9981   */\n      div\n        /* \"#utility.yul\":9948:9981   */\n      swap1\n      pop\n        /* \"#utility.yul\":9894:9987   */\n      swap2\n      swap1\n      pop\n      jump\t// out\n        /* \"#utility.yul\":9993:10100   */\n    tag_105:\n        /* \"#utility.yul\":10037:10045   */\n      0x00\n        /* \"#utility.yul\":10087:10092   */\n      dup3\n        /* \"#utility.yul\":10081:10085   */\n      dup3\n        /* \"#utility.yul\":10077:10093   */\n      shl\n        /* \"#utility.yul\":10056:10093   */\n      swap1\n      pop\n        /* \"#utility.yul\":9993:10100   */\n      swap3\n      swap2\n      pop\n      pop\n      jump\t// out\n        /* \"#utility.yul\":10106:10499   */\n    tag_106:\n        /* \"#utility.yul\":10175:10181   */\n      0x00\n        /* \"#utility.yul\":10225:10226   */\n      0x08\n        /* \"#utility.yul\":10213:10223   */\n      dup4\n        /* \"#utility.yul\":10209:10227   */\n      mul\n        /* \"#utility.yul\":10248:10345   */\n      tag_227\n        /* \"#utility.yul\":10278:10344   */\n      0xffffffffffffffffffffffffffffffffffffffffffffffffffffffffffffffff\n        /* \"#utility.yul\":10267:10276   */\n      dup3\n        /* \"#utility.yul\":10248:10345   */\n      tag_105\n      jump\t// in\n    tag_227:\n        /* \"#utility.yul\":10366:10405   */\n      tag_228\n        /* \"#utility.yul\":10396:10404   */\n      dup7\n        /* \"#utility.yul\":10385:10394   */\n      dup4\n        /* \"#utility.yul\":10366:10405   */\n      tag_105\n      jump\t// in\n    tag_228:\n        /* \"#utility.yul\":10354:10405   */\n      swap6\n      pop\n        /* \"#utility.yul\":10438:10442   */\n      dup1\n        /* \"#utility.yul\":10434:10443   */\n      not\n        /* \"#utility.yul\":10427:10432   */\n      dup5\n        /* \"#utility.yul\":10423:10444   */\n      and\n        /* \"#utility.yul\":10414:10444   */\n      swap4\n      pop\n        /* \"#utility.yul\":10487:10491   */\n      dup1\n        /* \"#utility.yul\":10477:10485   */\n      dup7\n        /* \"#utility.yul\":10473:10492   */\n      and\n        /* \"#utility.yul\":10466:10471   */\n      dup5\n        /* \"#utility.yul\":10463:10493   */\n      or\n        /* \"#utility.yul\":10453:10493   */\n      swap3\n      pop\n        /* \"#utility.yul\":10182:10499   */\n      pop\n      pop\n        /* \"#utility.yul\":10106:10499   */\n      swap4\n      swap3\n      pop\n      pop\n      pop\n      jump\t// out\n        /* \"#utility.yul\":10505:10565   */\n    tag_107:\n        /* \"#utility.yul\":10533:10536   */\n      0x00\n        /* \"#utility.yul\":10554:10559   */\n      dup2\n        /* \"#utility.yul\":10547:10559   */\n      swap1\n      pop\n        /* \"#utility.yul\":10505:10565   */\n      swap2\n      swap1\n      pop\n      jump\t// out\n        /* \"#utility.yul\":10571:10713   */\n    tag_108:\n        /* \"#utility.yul\":10621:10630   */\n      0x00\n        /* \"#utility.yul\":10654:10707   */\n      tag_231\n        /* \"#utility.yul\":10672:10706   */\n      tag_232\n        /* \"#utility.yul\":10681:10705   */\n      tag_233\n        /* \"#utility.yul\":10699:10704   */\n      dup5\n        /* \"#utility.yul\":10681:10705   */\n      tag_73\n      jump\t// in\n    tag_233:\n        /* \"#utility.yul\":10672:10706   */\n      tag_107\n      jump\t// in\n    tag_232:\n        /* \"#utility.yul\":10654:10707   */\n      tag_73\n      jump\t// in\n    tag_231:\n        /* \"#utility.yul\":10641:10707   */\n      swap1\n      pop\n        /* \"#utility.yul\":10571:10713   */\n      swap2\n      swap1\n      pop\n      jump\t// out\n        /* \"#utility.yul\":10719:10794   */\n    tag_109:\n        /* \"#utility.yul\":10762:10765   */\n      0x00\n        /* \"#utility.yul\":10783:10788   */\n      dup2\n        /* \"#utility.yul\":10776:10788   */\n      swap1\n      pop\n        /* \"#utility.yul\":10719:10794   */\n      swap2\n      swap1\n      pop\n      jump\t// out\n        /* \"#utility.yul\":10800:11069   */\n    tag_110:\n        /* \"#utility.yul\":10910:10949   */\n      tag_236\n        /* \"#utility.yul\":10941:10948   */\n      dup4\n        /* \"#utility.yul\":10910:10949   */\n      tag_108\n      jump\t// in\n    tag_236:\n        /* \"#utility.yul\":10971:11062   */\n      tag_237\n        /* \"#utility.yul\":11020:11061   */\n      tag_238\n        /* \"#utility.yul\":11044:11060   */\n      dup3\n        /* \"#utility.yul\":11020:11061   */\n      tag_109\n      jump\t// in\n    tag_238:\n        /* \"#utility.yul\":11012:11018   */\n      dup5\n        /* \"#utility.yul\":11005:11009   */\n      dup5\n        /* \"#utility.yul\":10999:11010   */\n      sload\n        /* \"#utility.yul\":10971:11062   */\n      tag_106\n      jump\t// in\n    tag_237:\n        /* \"#utility.yul\":10965:10969   */\n      dup3\n        /* \"#utility.yul\":10958:11063   */\n      sstore\n        /* \"#utility.yul\":10876:11069   */\n      pop\n        /* \"#utility.yul\":10800:11069   */\n      pop\n      pop\n      pop\n      jump\t// out\n        /* \"#utility.yul\":11075:11148   */\n    tag_111:\n        /* \"#utility.yul\":11120:11123   */\n      0x00\n        /* \"#utility.yul\":11141:11142   */\n      0x00\n        /* \"#utility.yul\":11134:11142   */\n      swap1\n      pop\n        /* \"#utility.yul\":11075:11148   */\n      swap1\n      jump\t// out\n        /* \"#utility.yul\":11154:11343   */\n    tag_112:\n        /* \"#utility.yul\":11231:11263   */\n      tag_241\n      tag_111\n      jump\t// in\n    tag_241:\n        /* \"#utility.yul\":11272:11337   */\n      tag_242\n        /* \"#utility.yul\":11330:11336   */\n      dup2\n        /* \"#utility.yul\":11322:11328   */\n      dup5\n        /* \"#utility.yul\":11316:11320   */\n      dup5\n        /* \"#utility.yul\":11272:11337   */\n      tag_110\n      jump\t// in\n    tag_242:\n        /* \"#utility.yul\":11207:11343   */\n      pop\n        /* \"#utility.yul\":11154:11343   */\n      pop\n      pop\n      jump\t// out\n        /* \"#utility.yul\":11349:11535   */\n    tag_113:\n        /* \"#utility.yul\":11409:11529   */\n    tag_244:\n        /* \"#utility.yul\":11426:11429   */\n      dup2\n        /* \"#utility.yul\":11419:11424   */\n      dup2\n        /* \"#utility.yul\":11416:11430   */\n      lt\n        /* \"#utility.yul\":11409:11529   */\n      iszero\n      tag_246\n      jumpi\n        /* \"#utility.yul\":11480:11519   */\n      tag_247\n        /* \"#utility.yul\":11517:11518   */\n      0x00\n        /* \"#utility.yul\":11510:11515   */\n      dup3\n        /* \"#utility.yul\":11480:11519   */\n      tag_112\n      jump\t// in\n    tag_247:\n        /* \"#utility.yul\":11453:11454   */\n      0x01\n        /* \"#utility.yul\":11446:11451   */\n      dup2\n        /* \"#utility.yul\":11442:11455   */\n      add\n        /* \"#utility.yul\":11433:11455   */\n      swap1\n      pop\n        /* \"#utility.yul\":11409:11529   */\n      jump(tag_244)\n    tag_246:\n        /* \"#utility.yul\":11349:11535   */\n      pop\n      pop\n      jump\t// out\n        /* \"#utility.yul\":11541:12084   */\n    tag_114:\n        /* \"#utility.yul\":11642:11644   */\n      0x1f\n        /* \"#utility.yul\":11637:11640   */\n      dup3\n        /* \"#utility.yul\":11634:11645   */\n      gt\n        /* \"#utility.yul\":11631:12077   */\n      iszero\n      tag_249\n      jumpi\n        /* \"#utility.yul\":11676:11714   */\n      tag_250\n        /* \"#utility.yul\":11708:11713   */\n      dup2\n        /* \"#utility.yul\":11676:11714   */\n      tag_102\n      jump\t// in\n    tag_250:\n        /* \"#utility.yul\":11760:11789   */\n      tag_251\n        /* \"#utility.yul\":11778:11788   */\n      dup5\n        /* \"#utility.yul\":11760:11789   */\n      tag_104\n      jump\t// in\n    tag_251:\n        /* \"#utility.yul\":11750:11758   */\n      dup2\n        /* \"#utility.yul\":11746:11790   */\n      add\n        /* \"#utility.yul\":11943:11945   */\n      0x20\n        /* \"#utility.yul\":11931:11941   */\n      dup6\n        /* \"#utility.yul\":11928:11946   */\n      lt\n        /* \"#utility.yul\":11925:11974   */\n      iszero\n      tag_252\n      jumpi\n        /* \"#utility.yul\":11964:11972   */\n      dup2\n        /* \"#utility.yul\":11949:11972   */\n      swap1\n      pop\n        /* \"#utility.yul\":11925:11974   */\n    tag_252:\n        /* \"#utility.yul\":11987:12067   */\n      tag_253\n        /* \"#utility.yul\":12043:12065   */\n      tag_254\n        /* \"#utility.yul\":12061:12064   */\n      dup6\n        /* \"#utility.yul\":12043:12065   */\n      tag_104\n      jump\t// in\n    tag_254:\n        /* \"#utility.yul\":12033:12041   */\n      dup4\n        /* \"#utility.yul\":12029:12066   */\n      add\n        /* \"#utility.yul\":12016:12027   */\n      dup3\n        /* \"#utility.yul\":11987:12067   */\n      tag_113\n      jump\t// in\n    tag_253:\n        /* \"#utility.yul\":11646:12077   */\n      pop\n      pop\n        /* \"#utility.yul\":11631:12077   */\n    tag_249:\n        /* \"#utility.yul\":11541:12084   */\n      pop\n      pop\n      pop\n      jump\t// out\n        /* \"#utility.yul\":12090:12207   */\n    tag_115:\n        /* \"#utility.yul\":12144:12152   */\n      0x00\n        /* \"#utility.yul\":12194:12199   */\n      dup3\n        /* \"#utility.yul\":12188:12192   */\n      dup3\n        /* \"#utility.yul\":12184:12200   */\n      shr\n        /* \"#utility.yul\":12163:12200   */\n      swap1\n      pop\n        /* \"#utility.yul\":12090:12207   */\n      swap3\n      swap2\n      pop\n      pop\n      jump\t// out\n        /* \"#utility.yul\":12213:12382   */\n    tag_116:\n        /* \"#utility.yul\":12257:12263   */\n      0x00\n        /* \"#utility.yul\":12290:12341   */\n      tag_257\n        /* \"#utility.yul\":12338:12339   */\n      0x00\n        /* \"#utility.yul\":12334:12340   */\n      not\n        /* \"#utility.yul\":12326:12331   */\n      dup5\n        /* \"#utility.yul\":12323:12324   */\n      0x08\n        /* \"#utility.yul\":12319:12332   */\n      mul\n        /* \"#utility.yul\":12290:12341   */\n      tag_115\n      jump\t// in\n    tag_257:\n        /* \"#utility.yul\":12286:12342   */\n      not\n        /* \"#utility.yul\":12371:12375   */\n      dup1\n        /* \"#utility.yul\":12365:12369   */\n      dup4\n        /* \"#utility.yul\":12361:12376   */\n      and\n        /* \"#utility.yul\":12351:12376   */\n      swap2\n      pop\n        /* \"#utility.yul\":12264:12382   */\n      pop\n        /* \"#utility.yul\":12213:12382   */\n      swap3\n      swap2\n      pop\n      pop\n      jump\t// out\n        /* \"#utility.yul\":12387:12682   */\n    tag_117:\n        /* \"#utility.yul\":12463:12467   */\n      0x00\n        /* \"#utility.yul\":12609:12638   */\n      tag_259\n        /* \"#utility.yul\":12634:12637   */\n      dup4\n        /* \"#utility.yul\":12628:12632   */\n      dup4\n        /* \"#utility.yul\":12609:12638   */\n      tag_116\n      jump\t// in\n    tag_259:\n        /* \"#utility.yul\":12601:12638   */\n      swap2\n      pop\n        /* \"#utility.yul\":12671:12674   */\n      dup3\n        /* \"#utility.yul\":12668:12669   */\n      0x02\n        /* \"#utility.yul\":12664:12675   */\n      mul\n        /* \"#utility.yul\":12658:12662   */\n      dup3\n        /* \"#utility.yul\":12655:12676   */\n      or\n        /* \"#utility.yul\":12647:12676   */\n      swap1\n      pop\n        /* \"#utility.yul\":12387:12682   */\n      swap3\n      swap2\n      pop\n      pop\n      jump\t// out\n        /* \"#utility.yul\":12687:14082   */\n    tag_67:\n        /* \"#utility.yul\":12804:12841   */\n      tag_261\n        /* \"#utility.yul\":12837:12840   */\n      dup3\n        /* \"#utility.yul\":12804:12841   */\n      tag_88\n      jump\t// in\n    tag_261:\n        /* \"#utility.yul\":12906:12924   */\n      0xffffffffffffffff\n        /* \"#utility.yul\":12898:12904   */\n      dup2\n        /* \"#utility.yul\":12895:12925   */\n      gt\n        /* \"#utility.yul\":12892:12948   */\n      iszero\n      tag_262\n      jumpi\n        /* \"#utility.yul\":12928:12946   */\n      tag_263\n      tag_81\n      jump\t// in\n    tag_263:\n        /* \"#utility.yul\":12892:12948   */\n    tag_262:\n        /* \"#utility.yul\":12972:13010   */\n      tag_264\n        /* \"#utility.yul\":13004:13008   */\n      dup3\n        /* \"#utility.yul\":12998:13009   */\n      sload\n        /* \"#utility.yul\":12972:13010   */\n      tag_50\n      jump\t// in\n    tag_264:\n        /* \"#utility.yul\":13057:13124   */\n      tag_265\n        /* \"#utility.yul\":13117:13123   */\n      dup3\n        /* \"#utility.yul\":13109:13115   */\n      dup3\n        /* \"#utility.yul\":13103:13107   */\n      dup6\n        /* \"#utility.yul\":13057:13124   */\n      tag_114\n      jump\t// in\n    tag_265:\n        /* \"#utility.yul\":13151:13152   */\n      0x00\n        /* \"#utility.yul\":13175:13179   */\n      0x20\n        /* \"#utility.yul\":13162:13179   */\n      swap1\n      pop\n        /* \"#utility.yul\":13207:13209   */\n      0x1f\n        /* \"#utility.yul\":13199:13205   */\n      dup4\n        /* \"#utility.yul\":13196:13210   */\n      gt\n        /* \"#utility.yul\":13224:13225   */\n      0x01\n        /* \"#utility.yul\":13219:13837   */\n      dup2\n      eq\n      tag_267\n      jumpi\n        /* \"#utility.yul\":13881:13882   */\n      0x00\n        /* \"#utility.yul\":13898:13904   */\n      dup5\n        /* \"#utility.yul\":13895:13972   */\n      iszero\n      tag_268\n      jumpi\n        /* \"#utility.yul\":13947:13956   */\n      dup3\n        /* \"#utility.yul\":13942:13945   */\n      dup8\n        /* \"#utility.yul\":13938:13957   */\n      add\n        /* \"#utility.yul\":13932:13958   */\n      mload\n        /* \"#utility.yul\":13923:13958   */\n      swap1\n      pop\n        /* \"#utility.yul\":13895:13972   */\n    tag_268:\n        /* \"#utility.yul\":13998:14065   */\n      tag_269\n        /* \"#utility.yul\":14058:14064   */\n      dup6\n        /* \"#utility.yul\":14051:14056   */\n      dup3\n        /* \"#utility.yul\":13998:14065   */\n      tag_117\n      jump\t// in\n    tag_269:\n        /* \"#utility.yul\":13992:13996   */\n      dup7\n        /* \"#utility.yul\":13985:14066   */\n      sstore\n        /* \"#utility.yul\":13854:14076   */\n      pop\n        /* \"#utility.yul\":13189:14076   */\n      jump(tag_266)\n        /* \"#utility.yul\":13219:13837   */\n    tag_267:\n        /* \"#utility.yul\":13271:13275   */\n      0x1f\n        /* \"#utility.yul\":13267:13276   */\n      not\n        /* \"#utility.yul\":13259:13265   */\n      dup5\n        /* \"#utility.yul\":13255:13277   */\n      and\n        /* \"#utility.yul\":13305:13342   */\n      tag_270\n        /* \"#utility.yul\":13337:13341   */\n      dup7\n        /* \"#utility.yul\":13305:13342   */\n      tag_102\n      jump\t// in\n    tag_270:\n        /* \"#utility.yul\":13364:13365   */\n      0x00\n        /* \"#utility.yul\":13378:13586   */\n    tag_271:\n        /* \"#utility.yul\":13392:13399   */\n      dup3\n        /* \"#utility.yul\":13389:13390   */\n      dup2\n        /* \"#utility.yul\":13386:13400   */\n      lt\n        /* \"#utility.yul\":13378:13586   */\n      iszero\n      tag_273\n      jumpi\n        /* \"#utility.yul\":13471:13480   */\n      dup5\n        /* \"#utility.yul\":13466:13469   */\n      dup10\n        /* \"#utility.yul\":13462:13481   */\n      add\n        /* \"#utility.yul\":13456:13482   */\n      mload\n        /* \"#utility.yul\":13448:13454   */\n      dup3\n        /* \"#utility.yul\":13441:13483   */\n      sstore\n        /* \"#utility.yul\":13522:13523   */\n      0x01\n        /* \"#utility.yul\":13514:13520   */\n      dup3\n        /* \"#utility.yul\":13510:13524   */\n      add\n        /* \"#utility.yul\":13500:13524   */\n      swap2\n      pop\n        /* \"#utility.yul\":13569:13571   */\n      0x20\n        /* \"#utility.yul\":13558:13567   */\n      dup6\n        /* \"#utility.yul\":13554:13572   */\n      add\n        /* \"#utility.yul\":13541:13572   */\n      swap5\n      pop\n        /* \"#utility.yul\":13415:13419   */\n      0x20\n        /* \"#utility.yul\":13412:13413   */\n      dup2\n        /* \"#utility.yul\":13408:13420   */\n      add\n        /* \"#utility.yul\":13403:13420   */\n      swap1\n      pop\n        /* \"#utility.yul\":13378:13586   */\n      jump(tag_271)\n    tag_273:\n        /* \"#utility.yul\":13614:13620   */\n      dup7\n        /* \"#utility.yul\":13605:13612   */\n      dup4\n        /* \"#utility.yul\":13602:13621   */\n      lt\n        /* \"#utility.yul\":13599:13778   */\n      iszero\n      tag_274\n      jumpi\n        /* \"#utility.yul\":13672:13681   */\n      dup5\n        /* \"#utility.yul\":13667:13670   */\n      dup10\n        /* \"#utility.yul\":13663:13682   */\n      add\n        /* \"#utility.yul\":13657:13683   */\n      mload\n        /* \"#utility.yul\":13715:13763   */\n      tag_275\n        /* \"#utility.yul\":13757:13761   */\n      0x1f\n        /* \"#utility.yul\":13749:13755   */\n      dup10\n        /* \"#utility.yul\":13745:13762   */\n      and\n        /* \"#utility.yul\":13734:13743   */\n      dup3\n        /* \"#utility.yul\":13715:13763   */\n      tag_116\n      jump\t// in\n    tag_275:\n        /* \"#utility.yul\":13707:13713   */\n      dup4\n        /* \"#utility.yul\":13700:13764   */\n      sstore\n        /* \"#utility.yul\":13622:13778   */\n      pop\n        /* \"#utility.yul\":13599:13778   */\n    tag_274:\n        /* \"#utility.yul\":13824:13825   */\n      0x01\n        /* \"#utility.yul\":13820:13821   */\n      0x02\n        /* \"#utility.yul\":13812:13818   */\n      dup9\n        /* \"#utility.yul\":13808:13822   */\n      mul\n        /* \"#utility.yul\":13804:13826   */\n      add\n        /* \"#utility.yul\":13798:13802   */\n      dup9\n        /* \"#utility.yul\":13791:13827   */\n      sstore\n        /* \"#utility.yul\":13226:13837   */\n      pop\n      pop\n      pop\n        /* \"#utility.yul\":13189:14076   */\n    tag_266:\n      pop\n        /* \"#utility.yul\":12779:14082   */\n      pop\n      pop\n      pop\n        /* \"#utility.yul\":12687:14082   */\n      pop\n      pop\n      jump\t// out\n\n    auxdata: 0xa26469706673582212208a5691e06a6e8aede572d81c6613a5be0a2d9a4d9c6aedc56b557d7b39ecaa6064736f6c634300081c0033\n}\n",
				"bytecode": {
					"linkReferences": {},
					"object": "60806040526040518060400160405280600b81526020017f48656c6c6f20776f726c640000000000000000000000000000000000000000008152505f908161004791906102db565b506040518060400160405280600b81526020017f48656c6c6f20576f726c640000000000000000000000000000000000000000008152506001908161008c9190610402565b50348015610098575f5ffd5b506104d1565b5f81519050919050565b7f4e487b71000000000000000000000000000000000000000000000000000000005f52604160045260245ffd5b7f4e487b71000000000000000000000000000000000000000000000000000000005f52602260045260245ffd5b5f600282049050600182168061011957607f821691505b60208210810361012c5761012b6100d5565b5b50919050565b5f819050815f5260205f209050919050565b5f6020601f8301049050919050565b5f82821b905092915050565b5f6008830261018e7fffffffffffffffffffffffffffffffffffffffffffffffffffffffffffffffff82610153565b6101988683610153565b95508019841693508086168417925050509392505050565b5f819050919050565b5f819050919050565b5f6101dc6101d76101d2846101b0565b6101b9565b6101b0565b9050919050565b5f819050919050565b6101f5836101c2565b610209610201826101e3565b84845461015f565b825550505050565b5f5f905090565b610220610211565b61022b8184846101ec565b505050565b5b8181101561024e576102435f82610218565b600181019050610231565b5050565b601f8211156102935761026481610132565b61026d84610144565b8101602085101561027c578190505b61029061028885610144565b830182610230565b50505b505050565b5f82821c905092915050565b5f6102b35f1984600802610298565b1980831691505092915050565b5f6102cb83836102a4565b9150826002028217905092915050565b6102e48261009e565b67ffffffffffffffff8111156102fd576102fc6100a8565b5b6103078254610102565b610312828285610252565b5f60209050601f831160018114610343575f8415610331578287015190505b61033b85826102c0565b8655506103a2565b601f19841661035186610132565b5f5b8281101561037857848901518255600182019150602085019450602081019050610353565b868310156103955784890151610391601f8916826102a4565b8355505b6001600288020188555050505b505050505050565b5f819050815f5260205f209050919050565b601f8211156103fd576103ce816103aa565b6103d784610144565b810160208510156103e6578190505b6103fa6103f285610144565b830182610230565b50505b505050565b61040b8261009e565b67ffffffffffffffff811115610424576104236100a8565b5b61042e8254610102565b6104398282856103bc565b5f60209050601f83116001811461046a575f8415610458578287015190505b61046285826102c0565b8655506104c9565b601f198416610478866103aa565b5f5b8281101561049f5784890151825560018201915060208501945060208101905061047a565b868310156104bc57848901516104b8601f8916826102a4565b8355505b6001600288020188555050505b505050505050565b610b66806104de5f395ff3fe608060405234801561000f575f5ffd5b5060043610610091575f3560e01c80634f86f506116100645780634f86f5061461010b578063712f46021461013b5780638218056814610159578063be9bea9d14610175578063c4e704081461019157610091565b806318e5f16b146100955780631f7b6d32146100b35780632c1a8eda146100d1578063492bfa18146100ed575b5f5ffd5b61009d6101af565b6040516100aa9190610426565b60405180910390f35b6100bb6101d4565b6040516100c89190610457565b60405180910390f35b6100eb60048036038101906100e691906105bd565b6101da565b005b6100f56101e5565b6040516101029190610664565b60405180910390f35b610125600480360381019061012091906105bd565b610270565b604051610132919061069e565b60405180910390f35b6101436102c7565b6040516101509190610709565b60405180910390f35b610173600480360381019061016e91906105bd565b610353565b005b61018f600480360381019061018a9190610753565b610365565b005b6101996103a8565b6040516101a69190610457565b60405180910390f35b60035f9054906101000a900473ffffffffffffffffffffffffffffffffffffffff1681565b60025481565b805160028190555050565b5f80546101f1906107ab565b80601f016020809104026020016040519081016040528092919081815260200182805461021d906107ab565b80156102685780601f1061023f57610100808354040283529160200191610268565b820191905f5260205f20905b81548152906001019060200180831161024b57829003601f168201915b505050505081565b5f816040516020016102829190610815565b604051602081830303815290604052805190602001205f6040516020016102a991906108bd565b60405160208183030381529060405280519060200120149050919050565b600180546102d4906107ab565b80601f0160208091040260200160405190810160405280929190818152602001828054610300906107ab565b801561034b5780601f106103225761010080835404028352916020019161034b565b820191905f5260205f20905b81548152906001019060200180831161032e57829003601f168201915b505050505081565b805f90816103619190610a61565b5050565b8060035f6101000a81548173ffffffffffffffffffffffffffffffffffffffff021916908373ffffffffffffffffffffffffffffffffffffffff16021790555050565b5f60035f9054906101000a900473ffffffffffffffffffffffffffffffffffffffff1673ffffffffffffffffffffffffffffffffffffffff1631905090565b5f73ffffffffffffffffffffffffffffffffffffffff82169050919050565b5f610410826103e7565b9050919050565b61042081610406565b82525050565b5f6020820190506104395f830184610417565b92915050565b5f819050919050565b6104518161043f565b82525050565b5f60208201905061046a5f830184610448565b92915050565b5f604051905090565b5f5ffd5b5f5ffd5b5f5ffd5b5f5ffd5b5f601f19601f8301169050919050565b7f4e487b71000000000000000000000000000000000000000000000000000000005f52604160045260245ffd5b6104cf82610489565b810181811067ffffffffffffffff821117156104ee576104ed610499565b5b80604052505050565b5f610500610470565b905061050c82826104c6565b919050565b5f67ffffffffffffffff82111561052b5761052a610499565b5b61053482610489565b9050602081019050919050565b828183375f83830152505050565b5f61056161055c84610511565b6104f7565b90508281526020810184848401111561057d5761057c610485565b5b610588848285610541565b509392505050565b5f82601f8301126105a4576105a3610481565b5b81356105b484826020860161054f565b91505092915050565b5f602082840312156105d2576105d1610479565b5b5f82013567ffffffffffffffff8111156105ef576105ee61047d565b5b6105fb84828501610590565b91505092915050565b5f81519050919050565b5f82825260208201905092915050565b8281835e5f83830152505050565b5f61063682610604565b610640818561060e565b935061065081856020860161061e565b61065981610489565b840191505092915050565b5f6020820190508181035f83015261067c818461062c565b905092915050565b5f8115159050919050565b61069881610684565b82525050565b5f6020820190506106b15f83018461068f565b92915050565b5f81519050919050565b5f82825260208201905092915050565b5f6106db826106b7565b6106e581856106c1565b93506106f581856020860161061e565b6106fe81610489565b840191505092915050565b5f6020820190508181035f83015261072181846106d1565b905092915050565b61073281610406565b811461073c575f5ffd5b50565b5f8135905061074d81610729565b92915050565b5f6020828403121561076857610767610479565b5b5f6107758482850161073f565b91505092915050565b7f4e487b71000000000000000000000000000000000000000000000000000000005f52602260045260245ffd5b5f60028204905060018216806107c257607f821691505b6020821081036107d5576107d461077e565b5b50919050565b5f81905092915050565b5f6107ef82610604565b6107f981856107db565b935061080981856020860161061e565b80840191505092915050565b5f61082082846107e5565b915081905092915050565b5f819050815f5260205f209050919050565b5f8154610849816107ab565b61085381866107db565b9450600182165f811461086d5760018114610882576108b4565b60ff19831686528115158202860193506108b4565b61088b8561082b565b5f5b838110156108ac5781548189015260018201915060208101905061088d565b838801955050505b50505092915050565b5f6108c8828461083d565b915081905092915050565b5f6020601f8301049050919050565b5f82821b905092915050565b5f6008830261091d7fffffffffffffffffffffffffffffffffffffffffffffffffffffffffffffffff826108e2565b61092786836108e2565b95508019841693508086168417925050509392505050565b5f819050919050565b5f61096261095d6109588461043f565b61093f565b61043f565b9050919050565b5f819050919050565b61097b83610948565b61098f61098782610969565b8484546108ee565b825550505050565b5f5f905090565b6109a6610997565b6109b1818484610972565b505050565b5b818110156109d4576109c95f8261099e565b6001810190506109b7565b5050565b601f821115610a19576109ea8161082b565b6109f3846108d3565b81016020851015610a02578190505b610a16610a0e856108d3565b8301826109b6565b50505b505050565b5f82821c905092915050565b5f610a395f1984600802610a1e565b1980831691505092915050565b5f610a518383610a2a565b9150826002028217905092915050565b610a6a82610604565b67ffffffffffffffff811115610a8357610a82610499565b5b610a8d82546107ab565b610a988282856109d8565b5f60209050601f831160018114610ac9575f8415610ab7578287015190505b610ac18582610a46565b865550610b28565b601f198416610ad78661082b565b5f5b82811015610afe57848901518255600182019150602085019450602081019050610ad9565b86831015610b1b5784890151610b17601f891682610a2a565b8355505b6001600288020188555050505b50505050505056fea26469706673582212208a5691e06a6e8aede572d81c6613a5be0a2d9a4d9c6aedc56b557d7b39ecaa6064736f6c634300081c0033",
					"opcodes": "PUSH1 0x80 PUSH1 0x40 MSTORE PUSH1 0x40 MLOAD DUP1 PUSH1 0x40 ADD PUSH1 0x40 MSTORE DUP1 PUSH1 0xB DUP2 MSTORE PUSH1 0x20 ADD PUSH32 0x48656C6C6F20776F726C64000000000000000000000000000000000000000000 DUP2 MSTORE POP PUSH0 SWAP1 DUP2 PUSH2 0x47 SWAP2 SWAP1 PUSH2 0x2DB JUMP JUMPDEST POP PUSH1 0x40 MLOAD DUP1 PUSH1 0x40 ADD PUSH1 0x40 MSTORE DUP1 PUSH1 0xB DUP2 MSTORE PUSH1 0x20 ADD PUSH32 0x48656C6C6F20576F726C64000000000000000000000000000000000000000000 DUP2 MSTORE POP PUSH1 0x1 SWAP1 DUP2 PUSH2 0x8C SWAP2 SWAP1 PUSH2 0x402 JUMP JUMPDEST POP CALLVALUE DUP1 ISZERO PUSH2 0x98 JUMPI PUSH0 PUSH0 REVERT JUMPDEST POP PUSH2 0x4D1 JUMP JUMPDEST PUSH0 DUP2 MLOAD SWAP1 POP SWAP2 SWAP1 POP JUMP JUMPDEST PUSH32 0x4E487B7100000000000000000000000000000000000000000000000000000000 PUSH0 MSTORE PUSH1 0x41 PUSH1 0x4 MSTORE PUSH1 0x24 PUSH0 REVERT JUMPDEST PUSH32 0x4E487B7100000000000000000000000000000000000000000000000000000000 PUSH0 MSTORE PUSH1 0x22 PUSH1 0x4 MSTORE PUSH1 0x24 PUSH0 REVERT JUMPDEST PUSH0 PUSH1 0x2 DUP3 DIV SWAP1 POP PUSH1 0x1 DUP3 AND DUP1 PUSH2 0x119 JUMPI PUSH1 0x7F DUP3 AND SWAP2 POP JUMPDEST PUSH1 0x20 DUP3 LT DUP2 SUB PUSH2 0x12C JUMPI PUSH2 0x12B PUSH2 0xD5 JUMP JUMPDEST JUMPDEST POP SWAP2 SWAP1 POP JUMP JUMPDEST PUSH0 DUP2 SWAP1 POP DUP2 PUSH0 MSTORE PUSH1 0x20 PUSH0 KECCAK256 SWAP1 POP SWAP2 SWAP1 POP JUMP JUMPDEST PUSH0 PUSH1 0x20 PUSH1 0x1F DUP4 ADD DIV SWAP1 POP SWAP2 SWAP1 POP JUMP JUMPDEST PUSH0 DUP3 DUP3 SHL SWAP1 POP SWAP3 SWAP2 POP POP JUMP JUMPDEST PUSH0 PUSH1 0x8 DUP4 MUL PUSH2 0x18E PUSH32 0xFFFFFFFFFFFFFFFFFFFFFFFFFFFFFFFFFFFFFFFFFFFFFFFFFFFFFFFFFFFFFFFF DUP3 PUSH2 0x153 JUMP JUMPDEST PUSH2 0x198 DUP7 DUP4 PUSH2 0x153 JUMP JUMPDEST SWAP6 POP DUP1 NOT DUP5 AND SWAP4 POP DUP1 DUP7 AND DUP5 OR SWAP3 POP POP POP SWAP4 SWAP3 POP POP POP JUMP JUMPDEST PUSH0 DUP2 SWAP1 POP SWAP2 SWAP1 POP JUMP JUMPDEST PUSH0 DUP2 SWAP1 POP SWAP2 SWAP1 POP JUMP JUMPDEST PUSH0 PUSH2 0x1DC PUSH2 0x1D7 PUSH2 0x1D2 DUP5 PUSH2 0x1B0 JUMP JUMPDEST PUSH2 0x1B9 JUMP JUMPDEST PUSH2 0x1B0 JUMP JUMPDEST SWAP1 POP SWAP2 SWAP1 POP JUMP JUMPDEST PUSH0 DUP2 SWAP1 POP SWAP2 SWAP1 POP JUMP JUMPDEST PUSH2 0x1F5 DUP4 PUSH2 0x1C2 JUMP JUMPDEST PUSH2 0x209 PUSH2 0x201 DUP3 PUSH2 0x1E3 JUMP JUMPDEST DUP5 DUP5 SLOAD PUSH2 0x15F JUMP JUMPDEST DUP3 SSTORE POP POP POP POP JUMP JUMPDEST PUSH0 PUSH0 SWAP1 POP SWAP1 JUMP JUMPDEST PUSH2 0x220 PUSH2 0x211 JUMP JUMPDEST PUSH2 0x22B DUP2 DUP5 DUP5 PUSH2 0x1EC JUMP JUMPDEST POP POP POP JUMP JUMPDEST JUMPDEST DUP2 DUP2 LT ISZERO PUSH2 0x24E JUMPI PUSH2 0x243 PUSH0 DUP3 PUSH2 0x218 JUMP JUMPDEST PUSH1 0x1 DUP2 ADD SWAP1 POP PUSH2 0x231 JUMP JUMPDEST POP POP JUMP JUMPDEST PUSH1 0x1F DUP3 GT ISZERO PUSH2 0x293 JUMPI PUSH2 0x264 DUP2 PUSH2 0x132 JUMP JUMPDEST PUSH2 0x26D DUP5 PUSH2 0x144 JUMP JUMPDEST DUP2 ADD PUSH1 0x20 DUP6 LT ISZERO PUSH2 0x27C JUMPI DUP2 SWAP1 POP JUMPDEST PUSH2 0x290 PUSH2 0x288 DUP6 PUSH2 0x144 JUMP JUMPDEST DUP4 ADD DUP3 PUSH2 0x230 JUMP JUMPDEST POP POP JUMPDEST POP POP POP JUMP JUMPDEST PUSH0 DUP3 DUP3 SHR SWAP1 POP SWAP3 SWAP2 POP POP JUMP JUMPDEST PUSH0 PUSH2 0x2B3 PUSH0 NOT DUP5 PUSH1 0x8 MUL PUSH2 0x298 JUMP JUMPDEST NOT DUP1 DUP4 AND SWAP2 POP POP SWAP3 SWAP2 POP POP JUMP JUMPDEST PUSH0 PUSH2 0x2CB DUP4 DUP4 PUSH2 0x2A4 JUMP JUMPDEST SWAP2 POP DUP3 PUSH1 0x2 MUL DUP3 OR SWAP1 POP SWAP3 SWAP2 POP POP JUMP JUMPDEST PUSH2 0x2E4 DUP3 PUSH2 0x9E JUMP JUMPDEST PUSH8 0xFFFFFFFFFFFFFFFF DUP2 GT ISZERO PUSH2 0x2FD JUMPI PUSH2 0x2FC PUSH2 0xA8 JUMP JUMPDEST JUMPDEST PUSH2 0x307 DUP3 SLOAD PUSH2 0x102 JUMP JUMPDEST PUSH2 0x312 DUP3 DUP3 DUP6 PUSH2 0x252 JUMP JUMPDEST PUSH0 PUSH1 0x20 SWAP1 POP PUSH1 0x1F DUP4 GT PUSH1 0x1 DUP2 EQ PUSH2 0x343 JUMPI PUSH0 DUP5 ISZERO PUSH2 0x331 JUMPI DUP3 DUP8 ADD MLOAD SWAP1 POP JUMPDEST PUSH2 0x33B DUP6 DUP3 PUSH2 0x2C0 JUMP JUMPDEST DUP7 SSTORE POP PUSH2 0x3A2 JUMP JUMPDEST PUSH1 0x1F NOT DUP5 AND PUSH2 0x351 DUP7 PUSH2 0x132 JUMP JUMPDEST PUSH0 JUMPDEST DUP3 DUP2 LT ISZERO PUSH2 0x378 JUMPI DUP5 DUP10 ADD MLOAD DUP3 SSTORE PUSH1 0x1 DUP3 ADD SWAP2 POP PUSH1 0x20 DUP6 ADD SWAP5 POP PUSH1 0x20 DUP2 ADD SWAP1 POP PUSH2 0x353 JUMP JUMPDEST DUP7 DUP4 LT ISZERO PUSH2 0x395 JUMPI DUP5 DUP10 ADD MLOAD PUSH2 0x391 PUSH1 0x1F DUP10 AND DUP3 PUSH2 0x2A4 JUMP JUMPDEST DUP4 SSTORE POP JUMPDEST PUSH1 0x1 PUSH1 0x2 DUP9 MUL ADD DUP9 SSTORE POP POP POP JUMPDEST POP POP POP POP POP POP JUMP JUMPDEST PUSH0 DUP2 SWAP1 POP DUP2 PUSH0 MSTORE PUSH1 0x20 PUSH0 KECCAK256 SWAP1 POP SWAP2 SWAP1 POP JUMP JUMPDEST PUSH1 0x1F DUP3 GT ISZERO PUSH2 0x3FD JUMPI PUSH2 0x3CE DUP2 PUSH2 0x3AA JUMP JUMPDEST PUSH2 0x3D7 DUP5 PUSH2 0x144 JUMP JUMPDEST DUP2 ADD PUSH1 0x20 DUP6 LT ISZERO PUSH2 0x3E6 JUMPI DUP2 SWAP1 POP JUMPDEST PUSH2 0x3FA PUSH2 0x3F2 DUP6 PUSH2 0x144 JUMP JUMPDEST DUP4 ADD DUP3 PUSH2 0x230 JUMP JUMPDEST POP POP JUMPDEST POP POP POP JUMP JUMPDEST PUSH2 0x40B DUP3 PUSH2 0x9E JUMP JUMPDEST PUSH8 0xFFFFFFFFFFFFFFFF DUP2 GT ISZERO PUSH2 0x424 JUMPI PUSH2 0x423 PUSH2 0xA8 JUMP JUMPDEST JUMPDEST PUSH2 0x42E DUP3 SLOAD PUSH2 0x102 JUMP JUMPDEST PUSH2 0x439 DUP3 DUP3 DUP6 PUSH2 0x3BC JUMP JUMPDEST PUSH0 PUSH1 0x20 SWAP1 POP PUSH1 0x1F DUP4 GT PUSH1 0x1 DUP2 EQ PUSH2 0x46A JUMPI PUSH0 DUP5 ISZERO PUSH2 0x458 JUMPI DUP3 DUP8 ADD MLOAD SWAP1 POP JUMPDEST PUSH2 0x462 DUP6 DUP3 PUSH2 0x2C0 JUMP JUMPDEST DUP7 SSTORE POP PUSH2 0x4C9 JUMP JUMPDEST PUSH1 0x1F NOT DUP5 AND PUSH2 0x478 DUP7 PUSH2 0x3AA JUMP JUMPDEST PUSH0 JUMPDEST DUP3 DUP2 LT ISZERO PUSH2 0x49F JUMPI DUP5 DUP10 ADD MLOAD DUP3 SSTORE PUSH1 0x1 DUP3 ADD SWAP2 POP PUSH1 0x20 DUP6 ADD SWAP5 POP PUSH1 0x20 DUP2 ADD SWAP1 POP PUSH2 0x47A JUMP JUMPDEST DUP7 DUP4 LT ISZERO PUSH2 0x4BC JUMPI DUP5 DUP10 ADD MLOAD PUSH2 0x4B8 PUSH1 0x1F DUP10 AND DUP3 PUSH2 0x2A4 JUMP JUMPDEST DUP4 SSTORE POP JUMPDEST PUSH1 0x1 PUSH1 0x2 DUP9 MUL ADD DUP9 SSTORE POP POP POP JUMPDEST POP POP POP POP POP POP JUMP JUMPDEST PUSH2 0xB66 DUP1 PUSH2 0x4DE PUSH0 CODECOPY PUSH0 RETURN INVALID PUSH1 0x80 PUSH1 0x40 MSTORE CALLVALUE DUP1 ISZERO PUSH2 0xF JUMPI PUSH0 PUSH0 REVERT JUMPDEST POP PUSH1 0x4 CALLDATASIZE LT PUSH2 0x91 JUMPI PUSH0 CALLDATALOAD PUSH1 0xE0 SHR DUP1 PUSH4 0x4F86F506 GT PUSH2 0x64 JUMPI DUP1 PUSH4 0x4F86F506 EQ PUSH2 0x10B JUMPI DUP1 PUSH4 0x712F4602 EQ PUSH2 0x13B JUMPI DUP1 PUSH4 0x82180568 EQ PUSH2 0x159 JUMPI DUP1 PUSH4 0xBE9BEA9D EQ PUSH2 0x175 JUMPI DUP1 PUSH4 0xC4E70408 EQ PUSH2 0x191 JUMPI PUSH2 0x91 JUMP JUMPDEST DUP1 PUSH4 0x18E5F16B EQ PUSH2 0x95 JUMPI DUP1 PUSH4 0x1F7B6D32 EQ PUSH2 0xB3 JUMPI DUP1 PUSH4 0x2C1A8EDA EQ PUSH2 0xD1 JUMPI DUP1 PUSH4 0x492BFA18 EQ PUSH2 0xED JUMPI JUMPDEST PUSH0 PUSH0 REVERT JUMPDEST PUSH2 0x9D PUSH2 0x1AF JUMP JUMPDEST PUSH1 0x40 MLOAD PUSH2 0xAA SWAP2 SWAP1 PUSH2 0x426 JUMP JUMPDEST PUSH1 0x40 MLOAD DUP1 SWAP2 SUB SWAP1 RETURN JUMPDEST PUSH2 0xBB PUSH2 0x1D4 JUMP JUMPDEST PUSH1 0x40 MLOAD PUSH2 0xC8 SWAP2 SWAP1 PUSH2 0x457 JUMP JUMPDEST PUSH1 0x40 MLOAD DUP1 SWAP2 SUB SWAP1 RETURN JUMPDEST PUSH2 0xEB PUSH1 0x4 DUP1 CALLDATASIZE SUB DUP2 ADD SWAP1 PUSH2 0xE6 SWAP2 SWAP1 PUSH2 0x5BD JUMP JUMPDEST PUSH2 0x1DA JUMP JUMPDEST STOP JUMPDEST PUSH2 0xF5 PUSH2 0x1E5 JUMP JUMPDEST PUSH1 0x40 MLOAD PUSH2 0x102 SWAP2 SWAP1 PUSH2 0x664 JUMP JUMPDEST PUSH1 0x40 MLOAD DUP1 SWAP2 SUB SWAP1 RETURN JUMPDEST PUSH2 0x125 PUSH1 0x4 DUP1 CALLDATASIZE SUB DUP2 ADD SWAP1 PUSH2 0x120 SWAP2 SWAP1 PUSH2 0x5BD JUMP JUMPDEST PUSH2 0x270 JUMP JUMPDEST PUSH1 0x40 MLOAD PUSH2 0x132 SWAP2 SWAP1 PUSH2 0x69E JUMP JUMPDEST PUSH1 0x40 MLOAD DUP1 SWAP2 SUB SWAP1 RETURN JUMPDEST PUSH2 0x143 PUSH2 0x2C7 JUMP JUMPDEST PUSH1 0x40 MLOAD PUSH2 0x150 SWAP2 SWAP1 PUSH2 0x709 JUMP JUMPDEST PUSH1 0x40 MLOAD DUP1 SWAP2 SUB SWAP1 RETURN JUMPDEST PUSH2 0x173 PUSH1 0x4 DUP1 CALLDATASIZE SUB DUP2 ADD SWAP1 PUSH2 0x16E SWAP2 SWAP1 PUSH2 0x5BD JUMP JUMPDEST PUSH2 0x353 JUMP JUMPDEST STOP JUMPDEST PUSH2 0x18F PUSH1 0x4 DUP1 CALLDATASIZE SUB DUP2 ADD SWAP1 PUSH2 0x18A SWAP2 SWAP1 PUSH2 0x753 JUMP JUMPDEST PUSH2 0x365 JUMP JUMPDEST STOP JUMPDEST PUSH2 0x199 PUSH2 0x3A8 JUMP JUMPDEST PUSH1 0x40 MLOAD PUSH2 0x1A6 SWAP2 SWAP1 PUSH2 0x457 JUMP JUMPDEST PUSH1 0x40 MLOAD DUP1 SWAP2 SUB SWAP1 RETURN JUMPDEST PUSH1 0x3 PUSH0 SWAP1 SLOAD SWAP1 PUSH2 0x100 EXP SWAP1 DIV PUSH20 0xFFFFFFFFFFFFFFFFFFFFFFFFFFFFFFFFFFFFFFFF AND DUP2 JUMP JUMPDEST PUSH1 0x2 SLOAD DUP2 JUMP JUMPDEST DUP1 MLOAD PUSH1 0x2 DUP2 SWAP1 SSTORE POP POP JUMP JUMPDEST PUSH0 DUP1 SLOAD PUSH2 0x1F1 SWAP1 PUSH2 0x7AB JUMP JUMPDEST DUP1 PUSH1 0x1F ADD PUSH1 0x20 DUP1 SWAP2 DIV MUL PUSH1 0x20 ADD PUSH1 0x40 MLOAD SWAP1 DUP2 ADD PUSH1 0x40 MSTORE DUP1 SWAP3 SWAP2 SWAP1 DUP2 DUP2 MSTORE PUSH1 0x20 ADD DUP3 DUP1 SLOAD PUSH2 0x21D SWAP1 PUSH2 0x7AB JUMP JUMPDEST DUP1 ISZERO PUSH2 0x268 JUMPI DUP1 PUSH1 0x1F LT PUSH2 0x23F JUMPI PUSH2 0x100 DUP1 DUP4 SLOAD DIV MUL DUP4 MSTORE SWAP2 PUSH1 0x20 ADD SWAP2 PUSH2 0x268 JUMP JUMPDEST DUP3 ADD SWAP2 SWAP1 PUSH0 MSTORE PUSH1 0x20 PUSH0 KECCAK256 SWAP1 JUMPDEST DUP2 SLOAD DUP2 MSTORE SWAP1 PUSH1 0x1 ADD SWAP1 PUSH1 0x20 ADD DUP1 DUP4 GT PUSH2 0x24B JUMPI DUP3 SWAP1 SUB PUSH1 0x1F AND DUP3 ADD SWAP2 JUMPDEST POP POP POP POP POP DUP2 JUMP JUMPDEST PUSH0 DUP2 PUSH1 0x40 MLOAD PUSH1 0x20 ADD PUSH2 0x282 SWAP2 SWAP1 PUSH2 0x815 JUMP JUMPDEST PUSH1 0x40 MLOAD PUSH1 0x20 DUP2 DUP4 SUB SUB DUP2 MSTORE SWAP1 PUSH1 0x40 MSTORE DUP1 MLOAD SWAP1 PUSH1 0x20 ADD KECCAK256 PUSH0 PUSH1 0x40 MLOAD PUSH1 0x20 ADD PUSH2 0x2A9 SWAP2 SWAP1 PUSH2 0x8BD JUMP JUMPDEST PUSH1 0x40 MLOAD PUSH1 0x20 DUP2 DUP4 SUB SUB DUP2 MSTORE SWAP1 PUSH1 0x40 MSTORE DUP1 MLOAD SWAP1 PUSH1 0x20 ADD KECCAK256 EQ SWAP1 POP SWAP2 SWAP1 POP JUMP JUMPDEST PUSH1 0x1 DUP1 SLOAD PUSH2 0x2D4 SWAP1 PUSH2 0x7AB JUMP JUMPDEST DUP1 PUSH1 0x1F ADD PUSH1 0x20 DUP1 SWAP2 DIV MUL PUSH1 0x20 ADD PUSH1 0x40 MLOAD SWAP1 DUP2 ADD PUSH1 0x40 MSTORE DUP1 SWAP3 SWAP2 SWAP1 DUP2 DUP2 MSTORE PUSH1 0x20 ADD DUP3 DUP1 SLOAD PUSH2 0x300 SWAP1 PUSH2 0x7AB JUMP JUMPDEST DUP1 ISZERO PUSH2 0x34B JUMPI DUP1 PUSH1 0x1F LT PUSH2 0x322 JUMPI PUSH2 0x100 DUP1 DUP4 SLOAD DIV MUL DUP4 MSTORE SWAP2 PUSH1 0x20 ADD SWAP2 PUSH2 0x34B JUMP JUMPDEST DUP3 ADD SWAP2 SWAP1 PUSH0 MSTORE PUSH1 0x20 PUSH0 KECCAK256 SWAP1 JUMPDEST DUP2 SLOAD DUP2 MSTORE SWAP1 PUSH1 0x1 ADD SWAP1 PUSH1 0x20 ADD DUP1 DUP4 GT PUSH2 0x32E JUMPI DUP3 SWAP1 SUB PUSH1 0x1F AND DUP3 ADD SWAP2 JUMPDEST POP POP POP POP POP DUP2 JUMP JUMPDEST DUP1 PUSH0 SWAP1 DUP2 PUSH2 0x361 SWAP2 SWAP1 PUSH2 0xA61 JUMP JUMPDEST POP POP JUMP JUMPDEST DUP1 PUSH1 0x3 PUSH0 PUSH2 0x100 EXP DUP2 SLOAD DUP2 PUSH20 0xFFFFFFFFFFFFFFFFFFFFFFFFFFFFFFFFFFFFFFFF MUL NOT AND SWAP1 DUP4 PUSH20 0xFFFFFFFFFFFFFFFFFFFFFFFFFFFFFFFFFFFFFFFF AND MUL OR SWAP1 SSTORE POP POP JUMP JUMPDEST PUSH0 PUSH1 0x3 PUSH0 SWAP1 SLOAD SWAP1 PUSH2 0x100 EXP SWAP1 DIV PUSH20 0xFFFFFFFFFFFFFFFFFFFFFFFFFFFFFFFFFFFFFFFF AND PUSH20 0xFFFFFFFFFFFFFFFFFFFFFFFFFFFFFFFFFFFFFFFF AND BALANCE SWAP1 POP SWAP1 JUMP JUMPDEST PUSH0 PUSH20 0xFFFFFFFFFFFFFFFFFFFFFFFFFFFFFFFFFFFFFFFF DUP3 AND SWAP1 POP SWAP2 SWAP1 POP JUMP JUMPDEST PUSH0 PUSH2 0x410 DUP3 PUSH2 0x3E7 JUMP JUMPDEST SWAP1 POP SWAP2 SWAP1 POP JUMP JUMPDEST PUSH2 0x420 DUP2 PUSH2 0x406 JUMP JUMPDEST DUP3 MSTORE POP POP JUMP JUMPDEST PUSH0 PUSH1 0x20 DUP3 ADD SWAP1 POP PUSH2 0x439 PUSH0 DUP4 ADD DUP5 PUSH2 0x417 JUMP JUMPDEST SWAP3 SWAP2 POP POP JUMP JUMPDEST PUSH0 DUP2 SWAP1 POP SWAP2 SWAP1 POP JUMP JUMPDEST PUSH2 0x451 DUP2 PUSH2 0x43F JUMP JUMPDEST DUP3 MSTORE POP POP JUMP JUMPDEST PUSH0 PUSH1 0x20 DUP3 ADD SWAP1 POP PUSH2 0x46A PUSH0 DUP4 ADD DUP5 PUSH2 0x448 JUMP JUMPDEST SWAP3 SWAP2 POP POP JUMP JUMPDEST PUSH0 PUSH1 0x40 MLOAD SWAP1 POP SWAP1 JUMP JUMPDEST PUSH0 PUSH0 REVERT JUMPDEST PUSH0 PUSH0 REVERT JUMPDEST PUSH0 PUSH0 REVERT JUMPDEST PUSH0 PUSH0 REVERT JUMPDEST PUSH0 PUSH1 0x1F NOT PUSH1 0x1F DUP4 ADD AND SWAP1 POP SWAP2 SWAP1 POP JUMP JUMPDEST PUSH32 0x4E487B7100000000000000000000000000000000000000000000000000000000 PUSH0 MSTORE PUSH1 0x41 PUSH1 0x4 MSTORE PUSH1 0x24 PUSH0 REVERT JUMPDEST PUSH2 0x4CF DUP3 PUSH2 0x489 JUMP JUMPDEST DUP2 ADD DUP2 DUP2 LT PUSH8 0xFFFFFFFFFFFFFFFF DUP3 GT OR ISZERO PUSH2 0x4EE JUMPI PUSH2 0x4ED PUSH2 0x499 JUMP JUMPDEST JUMPDEST DUP1 PUSH1 0x40 MSTORE POP POP POP JUMP JUMPDEST PUSH0 PUSH2 0x500 PUSH2 0x470 JUMP JUMPDEST SWAP1 POP PUSH2 0x50C DUP3 DUP3 PUSH2 0x4C6 JUMP JUMPDEST SWAP2 SWAP1 POP JUMP JUMPDEST PUSH0 PUSH8 0xFFFFFFFFFFFFFFFF DUP3 GT ISZERO PUSH2 0x52B JUMPI PUSH2 0x52A PUSH2 0x499 JUMP JUMPDEST JUMPDEST PUSH2 0x534 DUP3 PUSH2 0x489 JUMP JUMPDEST SWAP1 POP PUSH1 0x20 DUP2 ADD SWAP1 POP SWAP2 SWAP1 POP JUMP JUMPDEST DUP3 DUP2 DUP4 CALLDATACOPY PUSH0 DUP4 DUP4 ADD MSTORE POP POP POP JUMP JUMPDEST PUSH0 PUSH2 0x561 PUSH2 0x55C DUP5 PUSH2 0x511 JUMP JUMPDEST PUSH2 0x4F7 JUMP JUMPDEST SWAP1 POP DUP3 DUP2 MSTORE PUSH1 0x20 DUP2 ADD DUP5 DUP5 DUP5 ADD GT ISZERO PUSH2 0x57D JUMPI PUSH2 0x57C PUSH2 0x485 JUMP JUMPDEST JUMPDEST PUSH2 0x588 DUP5 DUP3 DUP6 PUSH2 0x541 JUMP JUMPDEST POP SWAP4 SWAP3 POP POP POP JUMP JUMPDEST PUSH0 DUP3 PUSH1 0x1F DUP4 ADD SLT PUSH2 0x5A4 JUMPI PUSH2 0x5A3 PUSH2 0x481 JUMP JUMPDEST JUMPDEST DUP2 CALLDATALOAD PUSH2 0x5B4 DUP5 DUP3 PUSH1 0x20 DUP7 ADD PUSH2 0x54F JUMP JUMPDEST SWAP2 POP POP SWAP3 SWAP2 POP POP JUMP JUMPDEST PUSH0 PUSH1 0x20 DUP3 DUP5 SUB SLT ISZERO PUSH2 0x5D2 JUMPI PUSH2 0x5D1 PUSH2 0x479 JUMP JUMPDEST JUMPDEST PUSH0 DUP3 ADD CALLDATALOAD PUSH8 0xFFFFFFFFFFFFFFFF DUP2 GT ISZERO PUSH2 0x5EF JUMPI PUSH2 0x5EE PUSH2 0x47D JUMP JUMPDEST JUMPDEST PUSH2 0x5FB DUP5 DUP3 DUP6 ADD PUSH2 0x590 JUMP JUMPDEST SWAP2 POP POP SWAP3 SWAP2 POP POP JUMP JUMPDEST PUSH0 DUP2 MLOAD SWAP1 POP SWAP2 SWAP1 POP JUMP JUMPDEST PUSH0 DUP3 DUP3 MSTORE PUSH1 0x20 DUP3 ADD SWAP1 POP SWAP3 SWAP2 POP POP JUMP JUMPDEST DUP3 DUP2 DUP4 MCOPY PUSH0 DUP4 DUP4 ADD MSTORE POP POP POP JUMP JUMPDEST PUSH0 PUSH2 0x636 DUP3 PUSH2 0x604 JUMP JUMPDEST PUSH2 0x640 DUP2 DUP6 PUSH2 0x60E JUMP JUMPDEST SWAP4 POP PUSH2 0x650 DUP2 DUP6 PUSH1 0x20 DUP7 ADD PUSH2 0x61E JUMP JUMPDEST PUSH2 0x659 DUP2 PUSH2 0x489 JUMP JUMPDEST DUP5 ADD SWAP2 POP POP SWAP3 SWAP2 POP POP JUMP JUMPDEST PUSH0 PUSH1 0x20 DUP3 ADD SWAP1 POP DUP2 DUP2 SUB PUSH0 DUP4 ADD MSTORE PUSH2 0x67C DUP2 DUP5 PUSH2 0x62C JUMP JUMPDEST SWAP1 POP SWAP3 SWAP2 POP POP JUMP JUMPDEST PUSH0 DUP2 ISZERO ISZERO SWAP1 POP SWAP2 SWAP1 POP JUMP JUMPDEST PUSH2 0x698 DUP2 PUSH2 0x684 JUMP JUMPDEST DUP3 MSTORE POP POP JUMP JUMPDEST PUSH0 PUSH1 0x20 DUP3 ADD SWAP1 POP PUSH2 0x6B1 PUSH0 DUP4 ADD DUP5 PUSH2 0x68F JUMP JUMPDEST SWAP3 SWAP2 POP POP JUMP JUMPDEST PUSH0 DUP2 MLOAD SWAP1 POP SWAP2 SWAP1 POP JUMP JUMPDEST PUSH0 DUP3 DUP3 MSTORE PUSH1 0x20 DUP3 ADD SWAP1 POP SWAP3 SWAP2 POP POP JUMP JUMPDEST PUSH0 PUSH2 0x6DB DUP3 PUSH2 0x6B7 JUMP JUMPDEST PUSH2 0x6E5 DUP2 DUP6 PUSH2 0x6C1 JUMP JUMPDEST SWAP4 POP PUSH2 0x6F5 DUP2 DUP6 PUSH1 0x20 DUP7 ADD PUSH2 0x61E JUMP JUMPDEST PUSH2 0x6FE DUP2 PUSH2 0x489 JUMP JUMPDEST DUP5 ADD SWAP2 POP POP SWAP3 SWAP2 POP POP JUMP JUMPDEST PUSH0 PUSH1 0x20 DUP3 ADD SWAP1 POP DUP2 DUP2 SUB PUSH0 DUP4 ADD MSTORE PUSH2 0x721 DUP2 DUP5 PUSH2 0x6D1 JUMP JUMPDEST SWAP1 POP SWAP3 SWAP2 POP POP JUMP JUMPDEST PUSH2 0x732 DUP2 PUSH2 0x406 JUMP JUMPDEST DUP2 EQ PUSH2 0x73C JUMPI PUSH0 PUSH0 REVERT JUMPDEST POP JUMP JUMPDEST PUSH0 DUP2 CALLDATALOAD SWAP1 POP PUSH2 0x74D DUP2 PUSH2 0x729 JUMP JUMPDEST SWAP3 SWAP2 POP POP JUMP JUMPDEST PUSH0 PUSH1 0x20 DUP3 DUP5 SUB SLT ISZERO PUSH2 0x768 JUMPI PUSH2 0x767 PUSH2 0x479 JUMP JUMPDEST JUMPDEST PUSH0 PUSH2 0x775 DUP5 DUP3 DUP6 ADD PUSH2 0x73F JUMP JUMPDEST SWAP2 POP POP SWAP3 SWAP2 POP POP JUMP JUMPDEST PUSH32 0x4E487B7100000000000000000000000000000000000000000000000000000000 PUSH0 MSTORE PUSH1 0x22 PUSH1 0x4 MSTORE PUSH1 0x24 PUSH0 REVERT JUMPDEST PUSH0 PUSH1 0x2 DUP3 DIV SWAP1 POP PUSH1 0x1 DUP3 AND DUP1 PUSH2 0x7C2 JUMPI PUSH1 0x7F DUP3 AND SWAP2 POP JUMPDEST PUSH1 0x20 DUP3 LT DUP2 SUB PUSH2 0x7D5 JUMPI PUSH2 0x7D4 PUSH2 0x77E JUMP JUMPDEST JUMPDEST POP SWAP2 SWAP1 POP JUMP JUMPDEST PUSH0 DUP2 SWAP1 POP SWAP3 SWAP2 POP POP JUMP JUMPDEST PUSH0 PUSH2 0x7EF DUP3 PUSH2 0x604 JUMP JUMPDEST PUSH2 0x7F9 DUP2 DUP6 PUSH2 0x7DB JUMP JUMPDEST SWAP4 POP PUSH2 0x809 DUP2 DUP6 PUSH1 0x20 DUP7 ADD PUSH2 0x61E JUMP JUMPDEST DUP1 DUP5 ADD SWAP2 POP POP SWAP3 SWAP2 POP POP JUMP JUMPDEST PUSH0 PUSH2 0x820 DUP3 DUP5 PUSH2 0x7E5 JUMP JUMPDEST SWAP2 POP DUP2 SWAP1 POP SWAP3 SWAP2 POP POP JUMP JUMPDEST PUSH0 DUP2 SWAP1 POP DUP2 PUSH0 MSTORE PUSH1 0x20 PUSH0 KECCAK256 SWAP1 POP SWAP2 SWAP1 POP JUMP JUMPDEST PUSH0 DUP2 SLOAD PUSH2 0x849 DUP2 PUSH2 0x7AB JUMP JUMPDEST PUSH2 0x853 DUP2 DUP7 PUSH2 0x7DB JUMP JUMPDEST SWAP5 POP PUSH1 0x1 DUP3 AND PUSH0 DUP2 EQ PUSH2 0x86D JUMPI PUSH1 0x1 DUP2 EQ PUSH2 0x882 JUMPI PUSH2 0x8B4 JUMP JUMPDEST PUSH1 0xFF NOT DUP4 AND DUP7 MSTORE DUP2 ISZERO ISZERO DUP3 MUL DUP7 ADD SWAP4 POP PUSH2 0x8B4 JUMP JUMPDEST PUSH2 0x88B DUP6 PUSH2 0x82B JUMP JUMPDEST PUSH0 JUMPDEST DUP4 DUP2 LT ISZERO PUSH2 0x8AC JUMPI DUP2 SLOAD DUP2 DUP10 ADD MSTORE PUSH1 0x1 DUP3 ADD SWAP2 POP PUSH1 0x20 DUP2 ADD SWAP1 POP PUSH2 0x88D JUMP JUMPDEST DUP4 DUP9 ADD SWAP6 POP POP POP JUMPDEST POP POP POP SWAP3 SWAP2 POP POP JUMP JUMPDEST PUSH0 PUSH2 0x8C8 DUP3 DUP5 PUSH2 0x83D JUMP JUMPDEST SWAP2 POP DUP2 SWAP1 POP SWAP3 SWAP2 POP POP JUMP JUMPDEST PUSH0 PUSH1 0x20 PUSH1 0x1F DUP4 ADD DIV SWAP1 POP SWAP2 SWAP1 POP JUMP JUMPDEST PUSH0 DUP3 DUP3 SHL SWAP1 POP SWAP3 SWAP2 POP POP JUMP JUMPDEST PUSH0 PUSH1 0x8 DUP4 MUL PUSH2 0x91D PUSH32 0xFFFFFFFFFFFFFFFFFFFFFFFFFFFFFFFFFFFFFFFFFFFFFFFFFFFFFFFFFFFFFFFF DUP3 PUSH2 0x8E2 JUMP JUMPDEST PUSH2 0x927 DUP7 DUP4 PUSH2 0x8E2 JUMP JUMPDEST SWAP6 POP DUP1 NOT DUP5 AND SWAP4 POP DUP1 DUP7 AND DUP5 OR SWAP3 POP POP POP SWAP4 SWAP3 POP POP POP JUMP JUMPDEST PUSH0 DUP2 SWAP1 POP SWAP2 SWAP1 POP JUMP JUMPDEST PUSH0 PUSH2 0x962 PUSH2 0x95D PUSH2 0x958 DUP5 PUSH2 0x43F JUMP JUMPDEST PUSH2 0x93F JUMP JUMPDEST PUSH2 0x43F JUMP JUMPDEST SWAP1 POP SWAP2 SWAP1 POP JUMP JUMPDEST PUSH0 DUP2 SWAP1 POP SWAP2 SWAP1 POP JUMP JUMPDEST PUSH2 0x97B DUP4 PUSH2 0x948 JUMP JUMPDEST PUSH2 0x98F PUSH2 0x987 DUP3 PUSH2 0x969 JUMP JUMPDEST DUP5 DUP5 SLOAD PUSH2 0x8EE JUMP JUMPDEST DUP3 SSTORE POP POP POP POP JUMP JUMPDEST PUSH0 PUSH0 SWAP1 POP SWAP1 JUMP JUMPDEST PUSH2 0x9A6 PUSH2 0x997 JUMP JUMPDEST PUSH2 0x9B1 DUP2 DUP5 DUP5 PUSH2 0x972 JUMP JUMPDEST POP POP POP JUMP JUMPDEST JUMPDEST DUP2 DUP2 LT ISZERO PUSH2 0x9D4 JUMPI PUSH2 0x9C9 PUSH0 DUP3 PUSH2 0x99E JUMP JUMPDEST PUSH1 0x1 DUP2 ADD SWAP1 POP PUSH2 0x9B7 JUMP JUMPDEST POP POP JUMP JUMPDEST PUSH1 0x1F DUP3 GT ISZERO PUSH2 0xA19 JUMPI PUSH2 0x9EA DUP2 PUSH2 0x82B JUMP JUMPDEST PUSH2 0x9F3 DUP5 PUSH2 0x8D3 JUMP JUMPDEST DUP2 ADD PUSH1 0x20 DUP6 LT ISZERO PUSH2 0xA02 JUMPI DUP2 SWAP1 POP JUMPDEST PUSH2 0xA16 PUSH2 0xA0E DUP6 PUSH2 0x8D3 JUMP JUMPDEST DUP4 ADD DUP3 PUSH2 0x9B6 JUMP JUMPDEST POP POP JUMPDEST POP POP POP JUMP JUMPDEST PUSH0 DUP3 DUP3 SHR SWAP1 POP SWAP3 SWAP2 POP POP JUMP JUMPDEST PUSH0 PUSH2 0xA39 PUSH0 NOT DUP5 PUSH1 0x8 MUL PUSH2 0xA1E JUMP JUMPDEST NOT DUP1 DUP4 AND SWAP2 POP POP SWAP3 SWAP2 POP POP JUMP JUMPDEST PUSH0 PUSH2 0xA51 DUP4 DUP4 PUSH2 0xA2A JUMP JUMPDEST SWAP2 POP DUP3 PUSH1 0x2 MUL DUP3 OR SWAP1 POP SWAP3 SWAP2 POP POP JUMP JUMPDEST PUSH2 0xA6A DUP3 PUSH2 0x604 JUMP JUMPDEST PUSH8 0xFFFFFFFFFFFFFFFF DUP2 GT ISZERO PUSH2 0xA83 JUMPI PUSH2 0xA82 PUSH2 0x499 JUMP JUMPDEST JUMPDEST PUSH2 0xA8D DUP3 SLOAD PUSH2 0x7AB JUMP JUMPDEST PUSH2 0xA98 DUP3 DUP3 DUP6 PUSH2 0x9D8 JUMP JUMPDEST PUSH0 PUSH1 0x20 SWAP1 POP PUSH1 0x1F DUP4 GT PUSH1 0x1 DUP2 EQ PUSH2 0xAC9 JUMPI PUSH0 DUP5 ISZERO PUSH2 0xAB7 JUMPI DUP3 DUP8 ADD MLOAD SWAP1 POP JUMPDEST PUSH2 0xAC1 DUP6 DUP3 PUSH2 0xA46 JUMP JUMPDEST DUP7 SSTORE POP PUSH2 0xB28 JUMP JUMPDEST PUSH1 0x1F NOT DUP5 AND PUSH2 0xAD7 DUP7 PUSH2 0x82B JUMP JUMPDEST PUSH0 JUMPDEST DUP3 DUP2 LT ISZERO PUSH2 0xAFE JUMPI DUP5 DUP10 ADD MLOAD DUP3 SSTORE PUSH1 0x1 DUP3 ADD SWAP2 POP PUSH1 0x20 DUP6 ADD SWAP5 POP PUSH1 0x20 DUP2 ADD SWAP1 POP PUSH2 0xAD9 JUMP JUMPDEST DUP7 DUP4 LT ISZERO PUSH2 0xB1B JUMPI DUP5 DUP10 ADD MLOAD PUSH2 0xB17 PUSH1 0x1F DUP10 AND DUP3 PUSH2 0xA2A JUMP JUMPDEST DUP4 SSTORE POP JUMPDEST PUSH1 0x1 PUSH1 0x2 DUP9 MUL ADD DUP9 SSTORE POP POP POP JUMPDEST POP POP POP POP POP POP JUMP INVALID LOG2 PUSH5 0x6970667358 0x22 SLT KECCAK256 DUP11 JUMP SWAP2 0xE0 PUSH11 0x6E8AEDE572D81C6613A5BE EXP 0x2D SWAP11 0x4D SWAP13 PUSH11 0xEDC56B557D7B39ECAA6064 PUSH20 0x6F6C634300081C00330000000000000000000000 "
				},
				"gasEstimates": {
					"creation": {
						"codeDepositCost": "583600",
						"executionCost": "infinite",
						"totalCost": "infinite"
					},
					"external": {
						"compareStrings(string)": "infinite",
						"getaddressbalance()": "5161",
						"length()": "2448",
						"lengthString(string)": "infinite",
						"myBytes()": "infinite",
						"myString()": "infinite",
						"setMyString(string)": "infinite",
						"setSomeAddress(address)": "24781",
						"someAddress()": "2509"
					}
				},
				"methodIdentifiers": {
					"compareStrings(string)": "4f86f506",
					"getaddressbalance()": "c4e70408",
					"length()": "1f7b6d32",
					"lengthString(string)": "2c1a8eda",
					"myBytes()": "712f4602",
					"myString()": "492bfa18",
					"setMyString(string)": "82180568",
					"setSomeAddress(address)": "be9bea9d",
					"someAddress()": "18e5f16b"
				}
			},
			"storageLayout": {
				"storage": [
					{
						"astId": 4,
						"contract": "contracts/SampleString.sol:SampleString",
						"label": "myString",
						"offset": 0,
						"slot": "0",
						"type": "t_string_storage"
					},
					{
						"astId": 7,
						"contract": "contracts/SampleString.sol:SampleString",
						"label": "myBytes",
						"offset": 0,
						"slot": "1",
						"type": "t_bytes_storage"
					},
					{
						"astId": 41,
						"contract": "contracts/SampleString.sol:SampleString",
						"label": "length",
						"offset": 0,
						"slot": "2",
						"type": "t_uint256"
					},
					{
						"astId": 57,
						"contract": "contracts/SampleString.sol:SampleString",
						"label": "someAddress",
						"offset": 0,
						"slot": "3",
						"type": "t_address"
					}
				],
				"types": {
					"t_address": {
						"encoding": "inplace",
						"label": "address",
						"numberOfBytes": "20"
					},
					"t_bytes_storage": {
						"encoding": "bytes",
						"label": "bytes",
						"numberOfBytes": "32"
					},
					"t_string_storage": {
						"encoding": "bytes",
						"label": "string",
						"numberOfBytes": "32"
					},
					"t_uint256": {
						"encoding": "inplace",
						"label": "uint256",
						"numberOfBytes": "32"
					}
				}
			},
			"userdoc": {
				"kind": "user",
				"methods": {},
				"version": 1
			}
		}
	}
}